{
  "_format": "hh-sol-artifact-1",
  "contractName": "SaleNFT",
  "sourceName": "contracts/NFTMarket.sol",
  "abi": [
    {
      "inputs": [
        {
          "internalType": "address",
          "name": "_nftAddress",
          "type": "address"
        }
      ],
      "stateMutability": "nonpayable",
      "type": "constructor"
    },
    {
      "anonymous": false,
      "inputs": [
        {
          "indexed": true,
          "internalType": "address",
          "name": "seller",
          "type": "address"
        },
        {
          "indexed": false,
          "internalType": "uint256",
          "name": "tokenId",
          "type": "uint256"
        },
        {
          "indexed": false,
          "internalType": "uint256",
          "name": "price",
          "type": "uint256"
        }
      ],
      "name": "addSaleList",
      "type": "event"
    },
    {
      "anonymous": false,
      "inputs": [
        {
          "indexed": true,
          "internalType": "address",
          "name": "buyer",
          "type": "address"
        },
        {
          "indexed": true,
          "internalType": "address",
          "name": "seller",
          "type": "address"
        },
        {
          "indexed": false,
          "internalType": "uint256",
          "name": "tokenId",
          "type": "uint256"
        },
        {
          "indexed": false,
          "internalType": "uint256",
          "name": "price",
          "type": "uint256"
        }
      ],
      "name": "buyNFT",
      "type": "event"
    },
    {
      "anonymous": false,
      "inputs": [
        {
          "indexed": true,
          "internalType": "address",
          "name": "seller",
          "type": "address"
        },
        {
          "indexed": false,
          "internalType": "uint256",
          "name": "tokenId",
          "type": "uint256"
        }
      ],
      "name": "removeSaleList",
      "type": "event"
    },
    {
      "inputs": [
        {
          "internalType": "uint256",
          "name": "tokenId",
          "type": "uint256"
        }
      ],
      "name": "BuyNFT",
      "outputs": [],
      "stateMutability": "payable",
      "type": "function"
    },
    {
      "inputs": [
        {
          "internalType": "uint256",
          "name": "tokenId",
          "type": "uint256"
        },
        {
          "internalType": "uint256",
          "name": "price",
          "type": "uint256"
        }
      ],
      "name": "addNFTsale",
      "outputs": [],
      "stateMutability": "nonpayable",
      "type": "function"
    },
    {
      "inputs": [
        {
          "internalType": "uint256",
          "name": "tokenId",
          "type": "uint256"
        }
      ],
      "name": "cancelSale",
      "outputs": [],
      "stateMutability": "nonpayable",
      "type": "function"
    },
    {
      "inputs": [],
      "name": "getSaleList",
      "outputs": [
        {
          "internalType": "uint256[]",
          "name": "",
          "type": "uint256[]"
        }
      ],
      "stateMutability": "view",
      "type": "function"
    },
    {
      "inputs": [
        {
          "internalType": "uint256",
          "name": "",
          "type": "uint256"
        }
      ],
      "name": "listNFTids",
      "outputs": [
        {
          "internalType": "uint256",
          "name": "",
          "type": "uint256"
        }
      ],
      "stateMutability": "view",
      "type": "function"
    },
    {
      "inputs": [
        {
          "internalType": "uint256",
          "name": "",
          "type": "uint256"
        }
      ],
      "name": "sales",
      "outputs": [
        {
          "internalType": "address",
          "name": "seller",
          "type": "address"
        },
        {
          "internalType": "uint256",
          "name": "price",
          "type": "uint256"
        }
      ],
      "stateMutability": "view",
      "type": "function"
    }
  ],
  "bytecode": "0x60a060405234801561001057600080fd5b50604051610f10380380610f10833981810160405281019061003291906100cf565b8073ffffffffffffffffffffffffffffffffffffffff1660808173ffffffffffffffffffffffffffffffffffffffff1681525050506100fc565b600080fd5b600073ffffffffffffffffffffffffffffffffffffffff82169050919050565b600061009c82610071565b9050919050565b6100ac81610091565b81146100b757600080fd5b50565b6000815190506100c9816100a3565b92915050565b6000602082840312156100e5576100e461006c565b5b60006100f3848285016100ba565b91505092915050565b608051610df261011e600039600081816102bc01526107240152610df26000f3fe6080604052600436106100555760003560e01c80630546deac1461005a5780636d7cdad014610085578063a37365e0146100c2578063b5f522f7146100de578063bd94b0051461011c578063ef82ec2414610145575b600080fd5b34801561006657600080fd5b5061006f61016e565b60405161007c9190610a60565b60405180910390f35b34801561009157600080fd5b506100ac60048036038101906100a79190610ab3565b6101c6565b6040516100b99190610aef565b60405180910390f35b6100dc60048036038101906100d79190610ab3565b6101ea565b005b3480156100ea57600080fd5b5061010560048036038101906101009190610ab3565b610516565b604051610113929190610b4b565b60405180910390f35b34801561012857600080fd5b50610143600480360381019061013e9190610ab3565b61055a565b005b34801561015157600080fd5b5061016c60048036038101906101679190610b74565b610720565b005b606060008054806020026020016040519081016040528092919081815260200182805480156101bc57602002820191906000526020600020905b8154815260200190600101908083116101a8575b5050505050905090565b600081815481106101d657600080fd5b906000526020600020016000915090505481565b6000600160008381526020019081526020016000206040518060400160405290816000820160009054906101000a900473ffffffffffffffffffffffffffffffffffffffff1673ffffffffffffffffffffffffffffffffffffffff1673ffffffffffffffffffffffffffffffffffffffff16815260200160018201548152505090503481602001511461027c57600080fd5b806000015173ffffffffffffffffffffffffffffffffffffffff163373ffffffffffffffffffffffffffffffffffffffff16036102b857600080fd5b60007f000000000000000000000000000000000000000000000000000000000000000090508073ffffffffffffffffffffffffffffffffffffffff166323b872dd836000015133866040518463ffffffff1660e01b815260040161031e93929190610bb4565b600060405180830381600087803b15801561033857600080fd5b505af115801561034c573d6000803e3d6000fd5b50505050816000015173ffffffffffffffffffffffffffffffffffffffff166108fc349081150290604051600060405180830381858888f1935050505015801561039a573d6000803e3d6000fd5b5060016000848152602001908152602001600020600080820160006101000a81549073ffffffffffffffffffffffffffffffffffffffff02191690556001820160009055505060008080549050905060005b818110156104a0576000818154811061040857610407610beb565b5b906000526020600020015485036104935760006001836104289190610c49565b8154811061043957610438610beb565b5b90600052602060002001546000828154811061045857610457610beb565b5b9060005260206000200181905550600080548061047857610477610c7d565b5b600190038181906000526020600020016000905590556104a0565b80806001019150506103ec565b50826000015173ffffffffffffffffffffffffffffffffffffffff163373ffffffffffffffffffffffffffffffffffffffff167f03c13380276d9996793198ca83e4b57c613931da9d7fa4f26b766a0358c90eb4868660200151604051610508929190610cac565b60405180910390a350505050565b60016020528060005260406000206000915090508060000160009054906101000a900473ffffffffffffffffffffffffffffffffffffffff16908060010154905082565b3373ffffffffffffffffffffffffffffffffffffffff166001600083815260200190815260200160002060000160009054906101000a900473ffffffffffffffffffffffffffffffffffffffff1673ffffffffffffffffffffffffffffffffffffffff16146105c857600080fd5b60016000828152602001908152602001600020600080820160006101000a81549073ffffffffffffffffffffffffffffffffffffffff02191690556001820160009055505060008080549050905060005b818110156106cd576000818154811061063557610634610beb565b5b906000526020600020015483036106c05760006001836106559190610c49565b8154811061066657610665610beb565b5b90600052602060002001546000828154811061068557610684610beb565b5b906000526020600020018190555060008054806106a5576106a4610c7d565b5b600190038181906000526020600020016000905590556106cd565b8080600101915050610619565b503373ffffffffffffffffffffffffffffffffffffffff167f823a4f2fefb7c6664dfa7fc04f52513ec4c6f697df50cf2069b176bd1c8870cd836040516107149190610aef565b60405180910390a25050565b60007f000000000000000000000000000000000000000000000000000000000000000090503373ffffffffffffffffffffffffffffffffffffffff168173ffffffffffffffffffffffffffffffffffffffff16636352211e856040518263ffffffff1660e01b81526004016107959190610aef565b602060405180830381865afa1580156107b2573d6000803e3d6000fd5b505050506040513d601f19601f820116820180604052508101906107d69190610d01565b73ffffffffffffffffffffffffffffffffffffffff16146107f657600080fd5b6000821161080357600080fd5b8073ffffffffffffffffffffffffffffffffffffffff1663e985e9c533306040518363ffffffff1660e01b815260040161083e929190610d2e565b602060405180830381865afa15801561085b573d6000803e3d6000fd5b505050506040513d601f19601f8201168201806040525081019061087f9190610d8f565b61088857600080fd5b60405180604001604052803373ffffffffffffffffffffffffffffffffffffffff168152602001838152506001600085815260200190815260200160002060008201518160000160006101000a81548173ffffffffffffffffffffffffffffffffffffffff021916908373ffffffffffffffffffffffffffffffffffffffff1602179055506020820151816001015590505060008390806001815401808255809150506001900390600052602060002001600090919091909150553373ffffffffffffffffffffffffffffffffffffffff167fa516894b6d709b85cbc4ea520209b1f9ce2d4f7a3bfb938cd45ab64f81af6b58848460405161098b929190610cac565b60405180910390a2505050565b600081519050919050565b600082825260208201905092915050565b6000819050602082019050919050565b6000819050919050565b6109d7816109c4565b82525050565b60006109e983836109ce565b60208301905092915050565b6000602082019050919050565b6000610a0d82610998565b610a1781856109a3565b9350610a22836109b4565b8060005b83811015610a53578151610a3a88826109dd565b9750610a45836109f5565b925050600181019050610a26565b5085935050505092915050565b60006020820190508181036000830152610a7a8184610a02565b905092915050565b600080fd5b610a90816109c4565b8114610a9b57600080fd5b50565b600081359050610aad81610a87565b92915050565b600060208284031215610ac957610ac8610a82565b5b6000610ad784828501610a9e565b91505092915050565b610ae9816109c4565b82525050565b6000602082019050610b046000830184610ae0565b92915050565b600073ffffffffffffffffffffffffffffffffffffffff82169050919050565b6000610b3582610b0a565b9050919050565b610b4581610b2a565b82525050565b6000604082019050610b606000830185610b3c565b610b6d6020830184610ae0565b9392505050565b60008060408385031215610b8b57610b8a610a82565b5b6000610b9985828601610a9e565b9250506020610baa85828601610a9e565b9150509250929050565b6000606082019050610bc96000830186610b3c565b610bd66020830185610b3c565b610be36040830184610ae0565b949350505050565b7f4e487b7100000000000000000000000000000000000000000000000000000000600052603260045260246000fd5b7f4e487b7100000000000000000000000000000000000000000000000000000000600052601160045260246000fd5b6000610c54826109c4565b9150610c5f836109c4565b9250828203905081811115610c7757610c76610c1a565b5b92915050565b7f4e487b7100000000000000000000000000000000000000000000000000000000600052603160045260246000fd5b6000604082019050610cc16000830185610ae0565b610cce6020830184610ae0565b9392505050565b610cde81610b2a565b8114610ce957600080fd5b50565b600081519050610cfb81610cd5565b92915050565b600060208284031215610d1757610d16610a82565b5b6000610d2584828501610cec565b91505092915050565b6000604082019050610d436000830185610b3c565b610d506020830184610b3c565b9392505050565b60008115159050919050565b610d6c81610d57565b8114610d7757600080fd5b50565b600081519050610d8981610d63565b92915050565b600060208284031215610da557610da4610a82565b5b6000610db384828501610d7a565b9150509291505056fea2646970667358221220e9666d704024b973baefbe32a377d20704b8d9341d305b94f2375cb39543e42564736f6c634300081e0033",
  "linkReferences": {},
  "deployedLinkReferences": {}
}