{
  "_format": "hh-sol-artifact-1",
  "contractName": "CoinNFT",
  "sourceName": "contracts/CoinNFT.sol",
  "abi": [
    {
      "inputs": [
        {
          "internalType": "string",
          "name": "name",
          "type": "string"
        },
        {
          "internalType": "string",
          "name": "symbol",
          "type": "string"
        }
      ],
      "stateMutability": "nonpayable",
      "type": "constructor"
    },
    {
      "inputs": [
        {
          "internalType": "address",
          "name": "spender",
          "type": "address"
        },
        {
          "internalType": "uint256",
          "name": "allowance",
          "type": "uint256"
        },
        {
          "internalType": "uint256",
          "name": "needed",
          "type": "uint256"
        }
      ],
      "name": "ERC20InsufficientAllowance",
      "type": "error"
    },
    {
      "inputs": [
        {
          "internalType": "address",
          "name": "sender",
          "type": "address"
        },
        {
          "internalType": "uint256",
          "name": "balance",
          "type": "uint256"
        },
        {
          "internalType": "uint256",
          "name": "needed",
          "type": "uint256"
        }
      ],
      "name": "ERC20InsufficientBalance",
      "type": "error"
    },
    {
      "inputs": [
        {
          "internalType": "address",
          "name": "approver",
          "type": "address"
        }
      ],
      "name": "ERC20InvalidApprover",
      "type": "error"
    },
    {
      "inputs": [
        {
          "internalType": "address",
          "name": "receiver",
          "type": "address"
        }
      ],
      "name": "ERC20InvalidReceiver",
      "type": "error"
    },
    {
      "inputs": [
        {
          "internalType": "address",
          "name": "sender",
          "type": "address"
        }
      ],
      "name": "ERC20InvalidSender",
      "type": "error"
    },
    {
      "inputs": [
        {
          "internalType": "address",
          "name": "spender",
          "type": "address"
        }
      ],
      "name": "ERC20InvalidSpender",
      "type": "error"
    },
    {
      "anonymous": false,
      "inputs": [
        {
          "indexed": true,
          "internalType": "address",
          "name": "owner",
          "type": "address"
        },
        {
          "indexed": true,
          "internalType": "address",
          "name": "spender",
          "type": "address"
        },
        {
          "indexed": false,
          "internalType": "uint256",
          "name": "value",
          "type": "uint256"
        }
      ],
      "name": "Approval",
      "type": "event"
    },
    {
      "anonymous": false,
      "inputs": [
        {
          "indexed": false,
          "internalType": "address",
          "name": "owner",
          "type": "address"
        },
        {
          "indexed": false,
          "internalType": "string",
          "name": "name",
          "type": "string"
        },
        {
          "indexed": false,
          "internalType": "uint256",
          "name": "price",
          "type": "uint256"
        },
        {
          "indexed": false,
          "internalType": "string",
          "name": "url",
          "type": "string"
        },
        {
          "indexed": false,
          "internalType": "string",
          "name": "trade",
          "type": "string"
        }
      ],
      "name": "NFTEvents",
      "type": "event"
    },
    {
      "anonymous": false,
      "inputs": [
        {
          "indexed": true,
          "internalType": "address",
          "name": "from",
          "type": "address"
        },
        {
          "indexed": true,
          "internalType": "address",
          "name": "to",
          "type": "address"
        },
        {
          "indexed": false,
          "internalType": "uint256",
          "name": "value",
          "type": "uint256"
        }
      ],
      "name": "Transfer",
      "type": "event"
    },
    {
      "inputs": [
        {
          "internalType": "address",
          "name": "owner",
          "type": "address"
        },
        {
          "internalType": "address",
          "name": "spender",
          "type": "address"
        }
      ],
      "name": "allowance",
      "outputs": [
        {
          "internalType": "uint256",
          "name": "",
          "type": "uint256"
        }
      ],
      "stateMutability": "view",
      "type": "function"
    },
    {
      "inputs": [
        {
          "internalType": "address",
          "name": "spender",
          "type": "address"
        },
        {
          "internalType": "uint256",
          "name": "value",
          "type": "uint256"
        }
      ],
      "name": "approve",
      "outputs": [
        {
          "internalType": "bool",
          "name": "",
          "type": "bool"
        }
      ],
      "stateMutability": "nonpayable",
      "type": "function"
    },
    {
      "inputs": [
        {
          "internalType": "address",
          "name": "account",
          "type": "address"
        }
      ],
      "name": "balanceOf",
      "outputs": [
        {
          "internalType": "uint256",
          "name": "",
          "type": "uint256"
        }
      ],
      "stateMutability": "view",
      "type": "function"
    },
    {
      "inputs": [
        {
          "internalType": "uint256",
          "name": "index",
          "type": "uint256"
        }
      ],
      "name": "buyNFT",
      "outputs": [],
      "stateMutability": "nonpayable",
      "type": "function"
    },
    {
      "inputs": [
        {
          "internalType": "uint256",
          "name": "tokenamt",
          "type": "uint256"
        }
      ],
      "name": "buyToken",
      "outputs": [],
      "stateMutability": "payable",
      "type": "function"
    },
    {
      "inputs": [],
      "name": "decimals",
      "outputs": [
        {
          "internalType": "uint8",
          "name": "",
          "type": "uint8"
        }
      ],
      "stateMutability": "view",
      "type": "function"
    },
    {
      "inputs": [],
      "name": "getCoins",
      "outputs": [
        {
          "components": [
            {
              "internalType": "address",
              "name": "owner",
              "type": "address"
            },
            {
              "internalType": "string",
              "name": "name",
              "type": "string"
            },
            {
              "internalType": "uint256",
              "name": "price",
              "type": "uint256"
            },
            {
              "internalType": "string",
              "name": "url",
              "type": "string"
            }
          ],
          "internalType": "struct CoinNFT.CoinStruct[]",
          "name": "",
          "type": "tuple[]"
        }
      ],
      "stateMutability": "view",
      "type": "function"
    },
    {
      "inputs": [],
      "name": "getuserCoins",
      "outputs": [
        {
          "components": [
            {
              "internalType": "string",
              "name": "name",
              "type": "string"
            },
            {
              "internalType": "string",
              "name": "url",
              "type": "string"
            }
          ],
          "internalType": "struct CoinNFT.userCoin[]",
          "name": "",
          "type": "tuple[]"
        }
      ],
      "stateMutability": "view",
      "type": "function"
    },
    {
      "inputs": [],
      "name": "getuserTokens",
      "outputs": [
        {
          "internalType": "uint256",
          "name": "",
          "type": "uint256"
        }
      ],
      "stateMutability": "view",
      "type": "function"
    },
    {
      "inputs": [],
      "name": "name",
      "outputs": [
        {
          "internalType": "string",
          "name": "",
          "type": "string"
        }
      ],
      "stateMutability": "view",
      "type": "function"
    },
    {
      "inputs": [
        {
          "internalType": "string",
          "name": "name",
          "type": "string"
        },
        {
          "internalType": "string",
          "name": "url",
          "type": "string"
        },
        {
          "internalType": "uint256",
          "name": "price",
          "type": "uint256"
        }
      ],
      "name": "sellNFT",
      "outputs": [],
      "stateMutability": "nonpayable",
      "type": "function"
    },
    {
      "inputs": [],
      "name": "symbol",
      "outputs": [
        {
          "internalType": "string",
          "name": "",
          "type": "string"
        }
      ],
      "stateMutability": "view",
      "type": "function"
    },
    {
      "inputs": [],
      "name": "totalSupply",
      "outputs": [
        {
          "internalType": "uint256",
          "name": "",
          "type": "uint256"
        }
      ],
      "stateMutability": "view",
      "type": "function"
    },
    {
      "inputs": [
        {
          "internalType": "address",
          "name": "to",
          "type": "address"
        },
        {
          "internalType": "uint256",
          "name": "value",
          "type": "uint256"
        }
      ],
      "name": "transfer",
      "outputs": [
        {
          "internalType": "bool",
          "name": "",
          "type": "bool"
        }
      ],
      "stateMutability": "nonpayable",
      "type": "function"
    },
    {
      "inputs": [
        {
          "internalType": "address",
          "name": "from",
          "type": "address"
        },
        {
          "internalType": "address",
          "name": "to",
          "type": "address"
        },
        {
          "internalType": "uint256",
          "name": "value",
          "type": "uint256"
        }
      ],
      "name": "transferFrom",
      "outputs": [
        {
          "internalType": "bool",
          "name": "",
          "type": "bool"
        }
      ],
      "stateMutability": "nonpayable",
      "type": "function"
    }
  ],
  "bytecode": "0x60806040526305f5e10060065534801561001857600080fd5b50604051612cec380380612cec833981810160405281019061003a91906101da565b8181816003908161004b9190610473565b50806004908161005b9190610473565b5050505050610545565b6000604051905090565b600080fd5b600080fd5b600080fd5b600080fd5b6000601f19601f8301169050919050565b7f4e487b7100000000000000000000000000000000000000000000000000000000600052604160045260246000fd5b6100cc82610083565b810181811067ffffffffffffffff821117156100eb576100ea610094565b5b80604052505050565b60006100fe610065565b905061010a82826100c3565b919050565b600067ffffffffffffffff82111561012a57610129610094565b5b61013382610083565b9050602081019050919050565b60005b8381101561015e578082015181840152602081019050610143565b60008484015250505050565b600061017d6101788461010f565b6100f4565b9050828152602081018484840111156101995761019861007e565b5b6101a4848285610140565b509392505050565b600082601f8301126101c1576101c0610079565b5b81516101d184826020860161016a565b91505092915050565b600080604083850312156101f1576101f061006f565b5b600083015167ffffffffffffffff81111561020f5761020e610074565b5b61021b858286016101ac565b925050602083015167ffffffffffffffff81111561023c5761023b610074565b5b610248858286016101ac565b9150509250929050565b600081519050919050565b7f4e487b7100000000000000000000000000000000000000000000000000000000600052602260045260246000fd5b600060028204905060018216806102a457607f821691505b6020821081036102b7576102b661025d565b5b50919050565b60008190508160005260206000209050919050565b60006020601f8301049050919050565b600082821b905092915050565b60006008830261031f7fffffffffffffffffffffffffffffffffffffffffffffffffffffffffffffffff826102e2565b61032986836102e2565b95508019841693508086168417925050509392505050565b6000819050919050565b6000819050919050565b600061037061036b61036684610341565b61034b565b610341565b9050919050565b6000819050919050565b61038a83610355565b61039e61039682610377565b8484546102ef565b825550505050565b600090565b6103b36103a6565b6103be818484610381565b505050565b5b818110156103e2576103d76000826103ab565b6001810190506103c4565b5050565b601f821115610427576103f8816102bd565b610401846102d2565b81016020851015610410578190505b61042461041c856102d2565b8301826103c3565b50505b505050565b600082821c905092915050565b600061044a6000198460080261042c565b1980831691505092915050565b60006104638383610439565b9150826002028217905092915050565b61047c82610252565b67ffffffffffffffff81111561049557610494610094565b5b61049f825461028c565b6104aa8282856103e6565b600060209050601f8311600181146104dd57600084156104cb578287015190505b6104d58582610457565b86555061053d565b601f1984166104eb866102bd565b60005b82811015610513578489015182556001820191506020850194506020810190506104ee565b86831015610530578489015161052c601f891682610439565b8355505b6001600288020188555050505b505050505050565b612798806105546000396000f3fe6080604052600436106100e85760003560e01c8063313ce5671161008a578063a9059cbb11610059578063a9059cbb146102e9578063dd62b51514610326578063dd62ed3e14610351578063e9f73f791461038e576100e8565b8063313ce5671461022d57806351ed82881461025857806370a082311461028157806395d89b41146102be576100e8565b806318160ddd116100c657806318160ddd146101805780631f1f311c146101ab57806323b872dd146101d45780632d296bf114610211576100e8565b806306fdde03146100ed578063095ea7b31461011857806313c390ef14610155575b600080fd5b3480156100f957600080fd5b506101026103b9565b60405161010f919061187c565b60405180910390f35b34801561012457600080fd5b5061013f600480360381019061013a9190611946565b61044b565b60405161014c91906119a1565b60405180910390f35b34801561016157600080fd5b5061016a61046e565b6040516101779190611b50565b60405180910390f35b34801561018c57600080fd5b50610195610651565b6040516101a29190611b81565b60405180910390f35b3480156101b757600080fd5b506101d260048036038101906101cd9190611cd1565b61065b565b005b3480156101e057600080fd5b506101fb60048036038101906101f69190611d5c565b6107bb565b60405161020891906119a1565b60405180910390f35b61022b60048036038101906102269190611daf565b6107ea565b005b34801561023957600080fd5b50610242610884565b60405161024f9190611df8565b60405180910390f35b34801561026457600080fd5b5061027f600480360381019061027a9190611daf565b61088d565b005b34801561028d57600080fd5b506102a860048036038101906102a39190611e13565b610de3565b6040516102b59190611b81565b60405180910390f35b3480156102ca57600080fd5b506102d3610e2b565b6040516102e0919061187c565b60405180910390f35b3480156102f557600080fd5b50610310600480360381019061030b9190611946565b610ebd565b60405161031d91906119a1565b60405180910390f35b34801561033257600080fd5b5061033b610ee0565b6040516103489190611f46565b60405180910390f35b34801561035d57600080fd5b5061037860048036038101906103739190611f68565b6110a0565b6040516103859190611b81565b60405180910390f35b34801561039a57600080fd5b506103a3611127565b6040516103b09190611b81565b60405180910390f35b6060600380546103c890611fd7565b80601f01602080910402602001604051908101604052809291908181526020018280546103f490611fd7565b80156104415780601f1061041657610100808354040283529160200191610441565b820191906000526020600020905b81548152906001019060200180831161042457829003601f168201915b5050505050905090565b60008061045661116e565b9050610463818585611176565b600191505092915050565b60606007805480602002602001604051908101604052809291908181526020016000905b8282101561064857838290600052602060002090600402016040518060800160405290816000820160009054906101000a900473ffffffffffffffffffffffffffffffffffffffff1673ffffffffffffffffffffffffffffffffffffffff1673ffffffffffffffffffffffffffffffffffffffff16815260200160018201805461051b90611fd7565b80601f016020809104026020016040519081016040528092919081815260200182805461054790611fd7565b80156105945780601f1061056957610100808354040283529160200191610594565b820191906000526020600020905b81548152906001019060200180831161057757829003601f168201915b50505050508152602001600282015481526020016003820180546105b790611fd7565b80601f01602080910402602001604051908101604052809291908181526020018280546105e390611fd7565b80156106305780601f1061060557610100808354040283529160200191610630565b820191906000526020600020905b81548152906001019060200180831161061357829003601f168201915b50505050508152505081526020019060010190610492565b50505050905090565b6000600254905090565b60006040518060400160405280600481526020017f73656c6c000000000000000000000000000000000000000000000000000000008152509050600760405180608001604052803373ffffffffffffffffffffffffffffffffffffffff16815260200186815260200184815260200185815250908060018154018082558091505060019003906000526020600020906004020160009091909190915060008201518160000160006101000a81548173ffffffffffffffffffffffffffffffffffffffff021916908373ffffffffffffffffffffffffffffffffffffffff160217905550602082015181600101908161075391906121b4565b5060408201518160020155606082015181600301908161077391906121b4565b5050507f61270c040d8007dacaaa711f1cd207d409898b220cf51c30ffc6f00803a67fb233858486856040516107ad959493929190612295565b60405180910390a150505050565b6000806107c661116e565b90506107d3858285611188565b6107de85858561121d565b60019150509392505050565b600654816107f8919061235b565b341461080357600080fd5b61082b3361080f610884565b600a61081b91906124bf565b83610826919061250a565b611311565b80600560003373ffffffffffffffffffffffffffffffffffffffff1673ffffffffffffffffffffffffffffffffffffffff168152602001908152602001600020600082825461087a919061254c565b9250508190555050565b60006012905090565b600781815481106108a1576108a0612580565b5b9060005260206000209060040201600201546108bc33610de3565b116108c657600080fd5b60006040518060400160405280600381526020017f6275790000000000000000000000000000000000000000000000000000000000815250905060006007838154811061091657610915612580565b5b906000526020600020906004020160000160009054906101000a900473ffffffffffffffffffffffffffffffffffffffff1690506000600784815481106109605761095f612580565b5b9060005260206000209060040201600101805461097c90611fd7565b80601f01602080910402602001604051908101604052809291908181526020018280546109a890611fd7565b80156109f55780601f106109ca576101008083540402835291602001916109f5565b820191906000526020600020905b8154815290600101906020018083116109d857829003601f168201915b50505050509050600060078581548110610a1257610a11612580565b5b90600052602060002090600402016003018054610a2e90611fd7565b80601f0160208091040260200160405190810160405280929190818152602001828054610a5a90611fd7565b8015610aa75780601f10610a7c57610100808354040283529160200191610aa7565b820191906000526020600020905b815481529060010190602001808311610a8a57829003601f168201915b50505050509050600060078681548110610ac457610ac3612580565b5b9060005260206000209060040201600201549050600860003373ffffffffffffffffffffffffffffffffffffffff1673ffffffffffffffffffffffffffffffffffffffff16815260200190815260200160002060405180604001604052808581526020018481525090806001815401808255809150506001900390600052602060002090600202016000909190919091506000820151816000019081610b6a91906121b4565b506020820151816001019081610b8091906121b4565b50505080600560003373ffffffffffffffffffffffffffffffffffffffff1673ffffffffffffffffffffffffffffffffffffffff1681526020019081526020016000206000828254610bd291906125af565b9250508190555080600560008673ffffffffffffffffffffffffffffffffffffffff1673ffffffffffffffffffffffffffffffffffffffff1681526020019081526020016000206000828254610c28919061254c565b9250508190555060076001600780549050610c4391906125af565b81548110610c5457610c53612580565b5b906000526020600020906004020160078781548110610c7657610c75612580565b5b90600052602060002090600402016000820160009054906101000a900473ffffffffffffffffffffffffffffffffffffffff168160000160006101000a81548173ffffffffffffffffffffffffffffffffffffffff021916908373ffffffffffffffffffffffffffffffffffffffff16021790555060018201816001019081610cff91906125f9565b506002820154816002015560038201816003019081610d1e91906125f9565b509050506007805480610d3457610d336126e1565b5b6001900381819060005260206000209060040201600080820160006101000a81549073ffffffffffffffffffffffffffffffffffffffff0219169055600182016000610d80919061178f565b6002820160009055600382016000610d98919061178f565b505090557f61270c040d8007dacaaa711f1cd207d409898b220cf51c30ffc6f00803a67fb23384838589604051610dd3959493929190612295565b60405180910390a1505050505050565b60008060008373ffffffffffffffffffffffffffffffffffffffff1673ffffffffffffffffffffffffffffffffffffffff168152602001908152602001600020549050919050565b606060048054610e3a90611fd7565b80601f0160208091040260200160405190810160405280929190818152602001828054610e6690611fd7565b8015610eb35780601f10610e8857610100808354040283529160200191610eb3565b820191906000526020600020905b815481529060010190602001808311610e9657829003601f168201915b5050505050905090565b600080610ec861116e565b9050610ed581858561121d565b600191505092915050565b6060600860003373ffffffffffffffffffffffffffffffffffffffff1673ffffffffffffffffffffffffffffffffffffffff168152602001908152602001600020805480602002602001604051908101604052809291908181526020016000905b828210156110975783829060005260206000209060020201604051806040016040529081600082018054610f7490611fd7565b80601f0160208091040260200160405190810160405280929190818152602001828054610fa090611fd7565b8015610fed5780601f10610fc257610100808354040283529160200191610fed565b820191906000526020600020905b815481529060010190602001808311610fd057829003601f168201915b5050505050815260200160018201805461100690611fd7565b80601f016020809104026020016040519081016040528092919081815260200182805461103290611fd7565b801561107f5780601f106110545761010080835404028352916020019161107f565b820191906000526020600020905b81548152906001019060200180831161106257829003601f168201915b50505050508152505081526020019060010190610f41565b50505050905090565b6000600160008473ffffffffffffffffffffffffffffffffffffffff1673ffffffffffffffffffffffffffffffffffffffff16815260200190815260200160002060008373ffffffffffffffffffffffffffffffffffffffff1673ffffffffffffffffffffffffffffffffffffffff16815260200190815260200160002054905092915050565b6000600560003373ffffffffffffffffffffffffffffffffffffffff1673ffffffffffffffffffffffffffffffffffffffff16815260200190815260200160002054905090565b600033905090565b6111838383836001611393565b505050565b600061119484846110a0565b90507fffffffffffffffffffffffffffffffffffffffffffffffffffffffffffffffff8110156112175781811015611207578281836040517ffb8f41b20000000000000000000000000000000000000000000000000000000081526004016111fe93929190612710565b60405180910390fd5b61121684848484036000611393565b5b50505050565b600073ffffffffffffffffffffffffffffffffffffffff168373ffffffffffffffffffffffffffffffffffffffff160361128f5760006040517f96c6fd1e0000000000000000000000000000000000000000000000000000000081526004016112869190612747565b60405180910390fd5b600073ffffffffffffffffffffffffffffffffffffffff168273ffffffffffffffffffffffffffffffffffffffff16036113015760006040517fec442f050000000000000000000000000000000000000000000000000000000081526004016112f89190612747565b60405180910390fd5b61130c83838361156a565b505050565b600073ffffffffffffffffffffffffffffffffffffffff168273ffffffffffffffffffffffffffffffffffffffff16036113835760006040517fec442f0500000000000000000000000000000000000000000000000000000000815260040161137a9190612747565b60405180910390fd5b61138f6000838361156a565b5050565b600073ffffffffffffffffffffffffffffffffffffffff168473ffffffffffffffffffffffffffffffffffffffff16036114055760006040517fe602df050000000000000000000000000000000000000000000000000000000081526004016113fc9190612747565b60405180910390fd5b600073ffffffffffffffffffffffffffffffffffffffff168373ffffffffffffffffffffffffffffffffffffffff16036114775760006040517f94280d6200000000000000000000000000000000000000000000000000000000815260040161146e9190612747565b60405180910390fd5b81600160008673ffffffffffffffffffffffffffffffffffffffff1673ffffffffffffffffffffffffffffffffffffffff16815260200190815260200160002060008573ffffffffffffffffffffffffffffffffffffffff1673ffffffffffffffffffffffffffffffffffffffff168152602001908152602001600020819055508015611564578273ffffffffffffffffffffffffffffffffffffffff168473ffffffffffffffffffffffffffffffffffffffff167f8c5be1e5ebec7d5bd14f71427d1e84f3dd0314c0f7b2291e5b200ac8c7c3b9258460405161155b9190611b81565b60405180910390a35b50505050565b600073ffffffffffffffffffffffffffffffffffffffff168373ffffffffffffffffffffffffffffffffffffffff16036115bc5780600260008282546115b0919061254c565b9250508190555061168f565b60008060008573ffffffffffffffffffffffffffffffffffffffff1673ffffffffffffffffffffffffffffffffffffffff16815260200190815260200160002054905081811015611648578381836040517fe450d38c00000000000000000000000000000000000000000000000000000000815260040161163f93929190612710565b60405180910390fd5b8181036000808673ffffffffffffffffffffffffffffffffffffffff1673ffffffffffffffffffffffffffffffffffffffff16815260200190815260200160002081905550505b600073ffffffffffffffffffffffffffffffffffffffff168273ffffffffffffffffffffffffffffffffffffffff16036116d85780600260008282540392505081905550611725565b806000808473ffffffffffffffffffffffffffffffffffffffff1673ffffffffffffffffffffffffffffffffffffffff168152602001908152602001600020600082825401925050819055505b8173ffffffffffffffffffffffffffffffffffffffff168373ffffffffffffffffffffffffffffffffffffffff167fddf252ad1be2c89b69c2b068fc378daa952ba7f163c4a11628f55a4df523b3ef836040516117829190611b81565b60405180910390a3505050565b50805461179b90611fd7565b6000825580601f106117ad57506117cc565b601f0160209004906000526020600020908101906117cb91906117cf565b5b50565b5b808211156117e85760008160009055506001016117d0565b5090565b600081519050919050565b600082825260208201905092915050565b60005b8381101561182657808201518184015260208101905061180b565b60008484015250505050565b6000601f19601f8301169050919050565b600061184e826117ec565b61185881856117f7565b9350611868818560208601611808565b61187181611832565b840191505092915050565b600060208201905081810360008301526118968184611843565b905092915050565b6000604051905090565b600080fd5b600080fd5b600073ffffffffffffffffffffffffffffffffffffffff82169050919050565b60006118dd826118b2565b9050919050565b6118ed816118d2565b81146118f857600080fd5b50565b60008135905061190a816118e4565b92915050565b6000819050919050565b61192381611910565b811461192e57600080fd5b50565b6000813590506119408161191a565b92915050565b6000806040838503121561195d5761195c6118a8565b5b600061196b858286016118fb565b925050602061197c85828601611931565b9150509250929050565b60008115159050919050565b61199b81611986565b82525050565b60006020820190506119b66000830184611992565b92915050565b600081519050919050565b600082825260208201905092915050565b6000819050602082019050919050565b6119f1816118d2565b82525050565b600082825260208201905092915050565b6000611a13826117ec565b611a1d81856119f7565b9350611a2d818560208601611808565b611a3681611832565b840191505092915050565b611a4a81611910565b82525050565b6000608083016000830151611a6860008601826119e8565b5060208301518482036020860152611a808282611a08565b9150506040830151611a956040860182611a41565b5060608301518482036060860152611aad8282611a08565b9150508091505092915050565b6000611ac68383611a50565b905092915050565b6000602082019050919050565b6000611ae6826119bc565b611af081856119c7565b935083602082028501611b02856119d8565b8060005b85811015611b3e5784840389528151611b1f8582611aba565b9450611b2a83611ace565b925060208a01995050600181019050611b06565b50829750879550505050505092915050565b60006020820190508181036000830152611b6a8184611adb565b905092915050565b611b7b81611910565b82525050565b6000602082019050611b966000830184611b72565b92915050565b600080fd5b600080fd5b7f4e487b7100000000000000000000000000000000000000000000000000000000600052604160045260246000fd5b611bde82611832565b810181811067ffffffffffffffff82111715611bfd57611bfc611ba6565b5b80604052505050565b6000611c1061189e565b9050611c1c8282611bd5565b919050565b600067ffffffffffffffff821115611c3c57611c3b611ba6565b5b611c4582611832565b9050602081019050919050565b82818337600083830152505050565b6000611c74611c6f84611c21565b611c06565b905082815260208101848484011115611c9057611c8f611ba1565b5b611c9b848285611c52565b509392505050565b600082601f830112611cb857611cb7611b9c565b5b8135611cc8848260208601611c61565b91505092915050565b600080600060608486031215611cea57611ce96118a8565b5b600084013567ffffffffffffffff811115611d0857611d076118ad565b5b611d1486828701611ca3565b935050602084013567ffffffffffffffff811115611d3557611d346118ad565b5b611d4186828701611ca3565b9250506040611d5286828701611931565b9150509250925092565b600080600060608486031215611d7557611d746118a8565b5b6000611d83868287016118fb565b9350506020611d94868287016118fb565b9250506040611da586828701611931565b9150509250925092565b600060208284031215611dc557611dc46118a8565b5b6000611dd384828501611931565b91505092915050565b600060ff82169050919050565b611df281611ddc565b82525050565b6000602082019050611e0d6000830184611de9565b92915050565b600060208284031215611e2957611e286118a8565b5b6000611e37848285016118fb565b91505092915050565b600081519050919050565b600082825260208201905092915050565b6000819050602082019050919050565b60006040830160008301518482036000860152611e898282611a08565b91505060208301518482036020860152611ea38282611a08565b9150508091505092915050565b6000611ebc8383611e6c565b905092915050565b6000602082019050919050565b6000611edc82611e40565b611ee68185611e4b565b935083602082028501611ef885611e5c565b8060005b85811015611f345784840389528151611f158582611eb0565b9450611f2083611ec4565b925060208a01995050600181019050611efc565b50829750879550505050505092915050565b60006020820190508181036000830152611f608184611ed1565b905092915050565b60008060408385031215611f7f57611f7e6118a8565b5b6000611f8d858286016118fb565b9250506020611f9e858286016118fb565b9150509250929050565b7f4e487b7100000000000000000000000000000000000000000000000000000000600052602260045260246000fd5b60006002820490506001821680611fef57607f821691505b60208210810361200257612001611fa8565b5b50919050565b60008190508160005260206000209050919050565b60006020601f8301049050919050565b600082821b905092915050565b60006008830261206a7fffffffffffffffffffffffffffffffffffffffffffffffffffffffffffffffff8261202d565b612074868361202d565b95508019841693508086168417925050509392505050565b6000819050919050565b60006120b16120ac6120a784611910565b61208c565b611910565b9050919050565b6000819050919050565b6120cb83612096565b6120df6120d7826120b8565b84845461203a565b825550505050565b600090565b6120f46120e7565b6120ff8184846120c2565b505050565b5b81811015612123576121186000826120ec565b600181019050612105565b5050565b601f8211156121685761213981612008565b6121428461201d565b81016020851015612151578190505b61216561215d8561201d565b830182612104565b50505b505050565b600082821c905092915050565b600061218b6000198460080261216d565b1980831691505092915050565b60006121a4838361217a565b9150826002028217905092915050565b6121bd826117ec565b67ffffffffffffffff8111156121d6576121d5611ba6565b5b6121e08254611fd7565b6121eb828285612127565b600060209050601f83116001811461221e576000841561220c578287015190505b6122168582612198565b86555061227e565b601f19841661222c86612008565b60005b828110156122545784890151825560018201915060208501945060208101905061222f565b86831015612271578489015161226d601f89168261217a565b8355505b6001600288020188555050505b505050505050565b61228f816118d2565b82525050565b600060a0820190506122aa6000830188612286565b81810360208301526122bc8187611843565b90506122cb6040830186611b72565b81810360608301526122dd8185611843565b905081810360808301526122f18184611843565b90509695505050505050565b7f4e487b7100000000000000000000000000000000000000000000000000000000600052601260045260246000fd5b7f4e487b7100000000000000000000000000000000000000000000000000000000600052601160045260246000fd5b600061236682611910565b915061237183611910565b925082612381576123806122fd565b5b828204905092915050565b60008160011c9050919050565b6000808291508390505b60018511156123e3578086048111156123bf576123be61232c565b5b60018516156123ce5780820291505b80810290506123dc8561238c565b94506123a3565b94509492505050565b6000826123fc57600190506124b8565b8161240a57600090506124b8565b8160018114612420576002811461242a57612459565b60019150506124b8565b60ff84111561243c5761243b61232c565b5b8360020a9150848211156124535761245261232c565b5b506124b8565b5060208310610133831016604e8410600b841016171561248e5782820a9050838111156124895761248861232c565b5b6124b8565b61249b8484846001612399565b925090508184048111156124b2576124b161232c565b5b81810290505b9392505050565b60006124ca82611910565b91506124d583611ddc565b92506125027fffffffffffffffffffffffffffffffffffffffffffffffffffffffffffffffff84846123ec565b905092915050565b600061251582611910565b915061252083611910565b925082820261252e81611910565b915082820484148315176125455761254461232c565b5b5092915050565b600061255782611910565b915061256283611910565b925082820190508082111561257a5761257961232c565b5b92915050565b7f4e487b7100000000000000000000000000000000000000000000000000000000600052603260045260246000fd5b60006125ba82611910565b91506125c583611910565b92508282039050818111156125dd576125dc61232c565b5b92915050565b6000815490506125f281611fd7565b9050919050565b8181036126075750506126df565b612610826125e3565b67ffffffffffffffff81111561262957612628611ba6565b5b6126338254611fd7565b61263e828285612127565b6000601f83116001811461266d576000841561265b578287015490505b6126658582612198565b8655506126d8565b601f19841661267b87612008565b965061268686612008565b60005b828110156126ae57848901548255600182019150600185019450602081019050612689565b868310156126cb57848901546126c7601f89168261217a565b8355505b6001600288020188555050505b5050505050505b565b7f4e487b7100000000000000000000000000000000000000000000000000000000600052603160045260246000fd5b60006060820190506127256000830186612286565b6127326020830185611b72565b61273f6040830184611b72565b949350505050565b600060208201905061275c6000830184612286565b9291505056fea2646970667358221220df61b95860257f960d6e9b415b891fdaa5536f0abf8a36c2d2302dced266ff3f64736f6c634300081e0033",
  "linkReferences": {},
  "deployedLinkReferences": {}
}