{
	"contract/proxy.sol": {
		"Proxy": {
			"abi": [
				{
					"inputs": [],
					"stateMutability": "nonpayable",
					"type": "constructor"
				},
				{
					"stateMutability": "payable",
					"type": "fallback"
				},
				{
					"inputs": [],
					"name": "ADMIN_SLOT",
					"outputs": [
						{
							"internalType": "bytes32",
							"name": "",
							"type": "bytes32"
						}
					],
					"stateMutability": "view",
					"type": "function"
				},
				{
					"inputs": [],
					"name": "IMPL_SLOT",
					"outputs": [
						{
							"internalType": "bytes32",
							"name": "",
							"type": "bytes32"
						}
					],
					"stateMutability": "view",
					"type": "function"
				},
				{
					"inputs": [],
					"name": "getImpl",
					"outputs": [
						{
							"internalType": "address",
							"name": "",
							"type": "address"
						}
					],
					"stateMutability": "view",
					"type": "function"
				},
				{
					"inputs": [],
					"name": "getOwner",
					"outputs": [
						{
							"internalType": "address",
							"name": "",
							"type": "address"
						}
					],
					"stateMutability": "view",
					"type": "function"
				},
				{
					"inputs": [
						{
							"internalType": "address",
							"name": "_CA",
							"type": "address"
						}
					],
					"name": "setImpl",
					"outputs": [],
					"stateMutability": "nonpayable",
					"type": "function"
				}
			],
			"devdoc": {
				"kind": "dev",
				"methods": {},
				"version": 1
			},
			"evm": {
				"assembly": "    /* \"contract/proxy.sol\":60:2500  contract Proxy {... */\n  mstore(0x40, 0x80)\n    /* \"contract/proxy.sol\":759:812  constructor() {... */\n  callvalue\n  dup1\n  iszero\n  tag_1\n  jumpi\n  revert(0x00, 0x00)\ntag_1:\n  pop\n    /* \"contract/proxy.sol\":784:804  setOwner(msg.sender) */\n  tag_4\n    /* \"contract/proxy.sol\":793:803  msg.sender */\n  caller\n    /* \"contract/proxy.sol\":784:792  setOwner */\n  shl(0x20, tag_5)\n    /* \"contract/proxy.sol\":784:804  setOwner(msg.sender) */\n  0x20\n  shr\n  jump\t// in\ntag_4:\n    /* \"contract/proxy.sol\":60:2500  contract Proxy {... */\n  jump(tag_6)\n    /* \"contract/proxy.sol\":1347:1452  function setOwner(address owner) private {... */\ntag_5:\n    /* \"contract/proxy.sol\":1439:1444  owner */\n  dup1\n    /* \"contract/proxy.sol\":1399:1430  Slot.getAddressSlot(ADMIN_SLOT) */\n  tag_8\n    /* \"contract/proxy.sol\":680:681  1 */\n  0x01\n    /* \"contract/proxy.sol\":658:676  keccak256(\"ADMIN\") */\n  0xdf8b4c520ffe197c5343c6f5aec59570151ef9a492f2c624fd45ddde6135ec42\n    /* \"contract/proxy.sol\":653:677  uint(keccak256(\"ADMIN\")) */\n  0x00\n  shr\n    /* \"contract/proxy.sol\":653:681  uint(keccak256(\"ADMIN\")) - 1 */\n  tag_9\n  swap2\n  swap1\n  tag_10\n  jump\t// in\ntag_9:\n    /* \"contract/proxy.sol\":645:682  bytes32(uint(keccak256(\"ADMIN\")) - 1) */\n  0x00\n  shl\n    /* \"contract/proxy.sol\":1399:1418  Slot.getAddressSlot */\n  shl(0x20, tag_11)\n    /* \"contract/proxy.sol\":1399:1430  Slot.getAddressSlot(ADMIN_SLOT) */\n  0x20\n  shr\n  jump\t// in\ntag_8:\n    /* \"contract/proxy.sol\":1399:1436  Slot.getAddressSlot(ADMIN_SLOT).value */\n  0x00\n  add\n  0x00\n    /* \"contract/proxy.sol\":1399:1444  Slot.getAddressSlot(ADMIN_SLOT).value = owner */\n  0x0100\n  exp\n  dup2\n  sload\n  dup2\n  0xffffffffffffffffffffffffffffffffffffffff\n  mul\n  not\n  and\n  swap1\n  dup4\n  0xffffffffffffffffffffffffffffffffffffffff\n  and\n  mul\n  or\n  swap1\n  sstore\n  pop\n    /* \"contract/proxy.sol\":1347:1452  function setOwner(address owner) private {... */\n  pop\n  jump\t// out\n    /* \"contract/proxy.sol\":2872:3406  function getAddressSlot(bytes32 _slotAddress) ... */\ntag_11:\n    /* \"contract/proxy.sol\":2951:2978  AddressSlot storage pointer */\n  0x00\n    /* \"contract/proxy.sol\":3340:3352  _slotAddress */\n  dup2\n    /* \"contract/proxy.sol\":3324:3352  pointer.slot := _slotAddress */\n  swap1\n  pop\n    /* \"contract/proxy.sol\":2872:3406  function getAddressSlot(bytes32 _slotAddress) ... */\n  swap2\n  swap1\n  pop\n  jump\t// out\n    /* \"#utility.yul\":7:84   */\ntag_13:\n    /* \"#utility.yul\":44:51   */\n  0x00\n    /* \"#utility.yul\":73:78   */\n  dup2\n    /* \"#utility.yul\":62:78   */\n  swap1\n  pop\n    /* \"#utility.yul\":7:84   */\n  swap2\n  swap1\n  pop\n  jump\t// out\n    /* \"#utility.yul\":90:270   */\ntag_14:\n    /* \"#utility.yul\":138:215   */\n  0x4e487b7100000000000000000000000000000000000000000000000000000000\n    /* \"#utility.yul\":135:136   */\n  0x00\n    /* \"#utility.yul\":128:216   */\n  mstore\n    /* \"#utility.yul\":235:239   */\n  0x11\n    /* \"#utility.yul\":232:233   */\n  0x04\n    /* \"#utility.yul\":225:240   */\n  mstore\n    /* \"#utility.yul\":259:263   */\n  0x24\n    /* \"#utility.yul\":256:257   */\n  0x00\n    /* \"#utility.yul\":249:264   */\n  revert\n    /* \"#utility.yul\":276:470   */\ntag_10:\n    /* \"#utility.yul\":316:320   */\n  0x00\n    /* \"#utility.yul\":336:356   */\n  tag_19\n    /* \"#utility.yul\":354:355   */\n  dup3\n    /* \"#utility.yul\":336:356   */\n  tag_13\n  jump\t// in\ntag_19:\n    /* \"#utility.yul\":331:356   */\n  swap2\n  pop\n    /* \"#utility.yul\":370:390   */\n  tag_20\n    /* \"#utility.yul\":388:389   */\n  dup4\n    /* \"#utility.yul\":370:390   */\n  tag_13\n  jump\t// in\ntag_20:\n    /* \"#utility.yul\":365:390   */\n  swap3\n  pop\n    /* \"#utility.yul\":414:415   */\n  dup3\n    /* \"#utility.yul\":411:412   */\n  dup3\n    /* \"#utility.yul\":407:416   */\n  sub\n    /* \"#utility.yul\":399:416   */\n  swap1\n  pop\n    /* \"#utility.yul\":438:439   */\n  dup2\n    /* \"#utility.yul\":432:436   */\n  dup2\n    /* \"#utility.yul\":429:440   */\n  gt\n    /* \"#utility.yul\":426:463   */\n  iszero\n  tag_21\n  jumpi\n    /* \"#utility.yul\":443:461   */\n  tag_22\n  tag_14\n  jump\t// in\ntag_22:\n    /* \"#utility.yul\":426:463   */\ntag_21:\n    /* \"#utility.yul\":276:470   */\n  swap3\n  swap2\n  pop\n  pop\n  jump\t// out\n    /* \"contract/proxy.sol\":60:2500  contract Proxy {... */\ntag_6:\n  dataSize(sub_0)\n  dup1\n  dataOffset(sub_0)\n  0x00\n  codecopy\n  0x00\n  return\nstop\n\nsub_0: assembly {\n        /* \"contract/proxy.sol\":60:2500  contract Proxy {... */\n      mstore(0x40, 0x80)\n      jumpi(tag_1, lt(calldatasize, 0x04))\n      shr(0xe0, calldataload(0x00))\n      dup1\n      0x691bd2ae\n      eq\n      tag_3\n      jumpi\n      dup1\n      0x893d20e8\n      eq\n      tag_4\n      jumpi\n      dup1\n      0x9c4b32be\n      eq\n      tag_5\n      jumpi\n      dup1\n      0xa0ab35aa\n      eq\n      tag_6\n      jumpi\n      dup1\n      0xdfb80831\n      eq\n      tag_7\n      jumpi\n      jump(tag_2)\n    tag_1:\n    tag_2:\n        /* \"contract/proxy.sol\":2420:2439  delegate(getImpl()) */\n      tag_10\n        /* \"contract/proxy.sol\":2429:2438  getImpl() */\n      tag_11\n        /* \"contract/proxy.sol\":2429:2436  getImpl */\n      tag_12\n        /* \"contract/proxy.sol\":2429:2438  getImpl() */\n      jump\t// in\n    tag_11:\n        /* \"contract/proxy.sol\":2420:2428  delegate */\n      tag_13\n        /* \"contract/proxy.sol\":2420:2439  delegate(getImpl()) */\n      jump\t// in\n    tag_10:\n        /* \"contract/proxy.sol\":60:2500  contract Proxy {... */\n      stop\n        /* \"contract/proxy.sol\":820:1339  function setImpl(address _CA) external {... */\n    tag_3:\n      callvalue\n      dup1\n      iszero\n      tag_14\n      jumpi\n      revert(0x00, 0x00)\n    tag_14:\n      pop\n      tag_15\n      0x04\n      dup1\n      calldatasize\n      sub\n      dup2\n      add\n      swap1\n      tag_16\n      swap2\n      swap1\n      tag_17\n      jump\t// in\n    tag_16:\n      tag_18\n      jump\t// in\n    tag_15:\n      stop\n        /* \"contract/proxy.sol\":1579:1692  function getOwner() public view returns (address) {... */\n    tag_4:\n      callvalue\n      dup1\n      iszero\n      tag_19\n      jumpi\n      revert(0x00, 0x00)\n    tag_19:\n      pop\n      tag_20\n      tag_21\n      jump\t// in\n    tag_20:\n      mload(0x40)\n      tag_22\n      swap2\n      swap1\n      tag_23\n      jump\t// in\n    tag_22:\n      mload(0x40)\n      dup1\n      swap2\n      sub\n      swap1\n      return\n        /* \"contract/proxy.sol\":608:682  bytes32 public constant ADMIN_SLOT = bytes32(uint(keccak256(\"ADMIN\")) - 1) */\n    tag_5:\n      callvalue\n      dup1\n      iszero\n      tag_24\n      jumpi\n      revert(0x00, 0x00)\n    tag_24:\n      pop\n      tag_25\n      tag_26\n      jump\t// in\n    tag_25:\n      mload(0x40)\n      tag_27\n      swap2\n      swap1\n      tag_28\n      jump\t// in\n    tag_27:\n      mload(0x40)\n      dup1\n      swap2\n      sub\n      swap1\n      return\n        /* \"contract/proxy.sol\":342:414  bytes32 public constant IMPL_SLOT = bytes32(uint(keccak256(\"IMPL\")) - 1) */\n    tag_6:\n      callvalue\n      dup1\n      iszero\n      tag_29\n      jumpi\n      revert(0x00, 0x00)\n    tag_29:\n      pop\n      tag_30\n      tag_31\n      jump\t// in\n    tag_30:\n      mload(0x40)\n      tag_32\n      swap2\n      swap1\n      tag_28\n      jump\t// in\n    tag_32:\n      mload(0x40)\n      dup1\n      swap2\n      sub\n      swap1\n      return\n        /* \"contract/proxy.sol\":1460:1571  function getImpl() public view returns (address) {... */\n    tag_7:\n      callvalue\n      dup1\n      iszero\n      tag_33\n      jumpi\n      revert(0x00, 0x00)\n    tag_33:\n      pop\n      tag_34\n      tag_12\n      jump\t// in\n    tag_34:\n      mload(0x40)\n      tag_35\n      swap2\n      swap1\n      tag_23\n      jump\t// in\n    tag_35:\n      mload(0x40)\n      dup1\n      swap2\n      sub\n      swap1\n      return\n    tag_12:\n        /* \"contract/proxy.sol\":1500:1507  address */\n      0x00\n        /* \"contract/proxy.sol\":1527:1557  Slot.getAddressSlot(IMPL_SLOT) */\n      tag_37\n        /* \"contract/proxy.sol\":412:413  1 */\n      0x01\n        /* \"contract/proxy.sol\":391:408  keccak256(\"IMPL\") */\n      0x486287226df0757af294903da9bc1edb84c92006afe00d704a2e6e2aea90d6b8\n        /* \"contract/proxy.sol\":386:409  uint(keccak256(\"IMPL\")) */\n      0x00\n      shr\n        /* \"contract/proxy.sol\":386:413  uint(keccak256(\"IMPL\")) - 1 */\n      tag_38\n      swap2\n      swap1\n      tag_39\n      jump\t// in\n    tag_38:\n        /* \"contract/proxy.sol\":378:414  bytes32(uint(keccak256(\"IMPL\")) - 1) */\n      0x00\n      shl\n        /* \"contract/proxy.sol\":1527:1546  Slot.getAddressSlot */\n      tag_40\n        /* \"contract/proxy.sol\":1527:1557  Slot.getAddressSlot(IMPL_SLOT) */\n      jump\t// in\n    tag_37:\n        /* \"contract/proxy.sol\":1527:1563  Slot.getAddressSlot(IMPL_SLOT).value */\n      0x00\n      add\n      0x00\n      swap1\n      sload\n      swap1\n      0x0100\n      exp\n      swap1\n      div\n      0xffffffffffffffffffffffffffffffffffffffff\n      and\n        /* \"contract/proxy.sol\":1520:1563  return Slot.getAddressSlot(IMPL_SLOT).value */\n      swap1\n      pop\n        /* \"contract/proxy.sol\":1460:1571  function getImpl() public view returns (address) {... */\n      swap1\n      jump\t// out\n        /* \"contract/proxy.sol\":1698:2373  function delegate(address impl) private {... */\n    tag_13:\n        /* \"contract/proxy.sol\":1832:1846  calldatasize() */\n      calldatasize\n        /* \"contract/proxy.sol\":1829:1830  0 */\n      0x00\n        /* \"contract/proxy.sol\":1826:1827  0 */\n      0x00\n        /* \"contract/proxy.sol\":1813:1847  calldatacopy(0, 0, calldatasize()) */\n      calldatacopy\n        /* \"contract/proxy.sol\":1923:1924  0 */\n      0x00\n        /* \"contract/proxy.sol\":1920:1921  0 */\n      0x00\n        /* \"contract/proxy.sol\":1904:1918  calldatasize() */\n      calldatasize\n        /* \"contract/proxy.sol\":1901:1902  0 */\n      0x00\n        /* \"contract/proxy.sol\":1895:1899  impl */\n      dup5\n        /* \"contract/proxy.sol\":1888:1893  gas() */\n      gas\n        /* \"contract/proxy.sol\":1875:1925  delegatecall(gas(), impl, 0, calldatasize(), 0, 0) */\n      delegatecall\n        /* \"contract/proxy.sol\":2022:2038  returndatasize() */\n      returndatasize\n        /* \"contract/proxy.sol\":2019:2020  0 */\n      0x00\n        /* \"contract/proxy.sol\":2016:2017  0 */\n      0x00\n        /* \"contract/proxy.sol\":2001:2039  returndatacopy(0, 0, returndatasize()) */\n      returndatacopy\n        /* \"contract/proxy.sol\":2131:2137  result */\n      dup1\n        /* \"contract/proxy.sol\":2156:2157  0 */\n      0x00\n        /* \"contract/proxy.sol\":2151:2219  case 0 {... */\n      dup2\n      eq\n      tag_43\n      jumpi\n        /* \"contract/proxy.sol\":2323:2339  returndatasize() */\n      returndatasize\n        /* \"contract/proxy.sol\":2320:2321  0 */\n      0x00\n        /* \"contract/proxy.sol\":2313:2340  return(0, returndatasize()) */\n      return\n        /* \"contract/proxy.sol\":2151:2219  case 0 {... */\n    tag_43:\n        /* \"contract/proxy.sol\":2187:2203  returndatasize() */\n      returndatasize\n        /* \"contract/proxy.sol\":2184:2185  0 */\n      0x00\n        /* \"contract/proxy.sol\":2177:2204  revert(0, returndatasize()) */\n      revert\n        /* \"contract/proxy.sol\":820:1339  function setImpl(address _CA) external {... */\n    tag_18:\n        /* \"contract/proxy.sol\":1089:1092  _CA */\n      dup1\n        /* \"contract/proxy.sol\":1050:1080  Slot.getAddressSlot(IMPL_SLOT) */\n      tag_45\n        /* \"contract/proxy.sol\":412:413  1 */\n      0x01\n        /* \"contract/proxy.sol\":391:408  keccak256(\"IMPL\") */\n      0x486287226df0757af294903da9bc1edb84c92006afe00d704a2e6e2aea90d6b8\n        /* \"contract/proxy.sol\":386:409  uint(keccak256(\"IMPL\")) */\n      0x00\n      shr\n        /* \"contract/proxy.sol\":386:413  uint(keccak256(\"IMPL\")) - 1 */\n      tag_46\n      swap2\n      swap1\n      tag_39\n      jump\t// in\n    tag_46:\n        /* \"contract/proxy.sol\":378:414  bytes32(uint(keccak256(\"IMPL\")) - 1) */\n      0x00\n      shl\n        /* \"contract/proxy.sol\":1050:1069  Slot.getAddressSlot */\n      tag_40\n        /* \"contract/proxy.sol\":1050:1080  Slot.getAddressSlot(IMPL_SLOT) */\n      jump\t// in\n    tag_45:\n        /* \"contract/proxy.sol\":1050:1086  Slot.getAddressSlot(IMPL_SLOT).value */\n      0x00\n      add\n      0x00\n        /* \"contract/proxy.sol\":1050:1092  Slot.getAddressSlot(IMPL_SLOT).value = _CA */\n      0x0100\n      exp\n      dup2\n      sload\n      dup2\n      0xffffffffffffffffffffffffffffffffffffffff\n      mul\n      not\n      and\n      swap1\n      dup4\n      0xffffffffffffffffffffffffffffffffffffffff\n      and\n      mul\n      or\n      swap1\n      sstore\n      pop\n        /* \"contract/proxy.sol\":820:1339  function setImpl(address _CA) external {... */\n      pop\n      jump\t// out\n        /* \"contract/proxy.sol\":1579:1692  function getOwner() public view returns (address) {... */\n    tag_21:\n        /* \"contract/proxy.sol\":1620:1627  address */\n      0x00\n        /* \"contract/proxy.sol\":1647:1678  Slot.getAddressSlot(ADMIN_SLOT) */\n      tag_48\n        /* \"contract/proxy.sol\":680:681  1 */\n      0x01\n        /* \"contract/proxy.sol\":658:676  keccak256(\"ADMIN\") */\n      0xdf8b4c520ffe197c5343c6f5aec59570151ef9a492f2c624fd45ddde6135ec42\n        /* \"contract/proxy.sol\":653:677  uint(keccak256(\"ADMIN\")) */\n      0x00\n      shr\n        /* \"contract/proxy.sol\":653:681  uint(keccak256(\"ADMIN\")) - 1 */\n      tag_49\n      swap2\n      swap1\n      tag_39\n      jump\t// in\n    tag_49:\n        /* \"contract/proxy.sol\":645:682  bytes32(uint(keccak256(\"ADMIN\")) - 1) */\n      0x00\n      shl\n        /* \"contract/proxy.sol\":1647:1666  Slot.getAddressSlot */\n      tag_40\n        /* \"contract/proxy.sol\":1647:1678  Slot.getAddressSlot(ADMIN_SLOT) */\n      jump\t// in\n    tag_48:\n        /* \"contract/proxy.sol\":1647:1684  Slot.getAddressSlot(ADMIN_SLOT).value */\n      0x00\n      add\n      0x00\n      swap1\n      sload\n      swap1\n      0x0100\n      exp\n      swap1\n      div\n      0xffffffffffffffffffffffffffffffffffffffff\n      and\n        /* \"contract/proxy.sol\":1640:1684  return Slot.getAddressSlot(ADMIN_SLOT).value */\n      swap1\n      pop\n        /* \"contract/proxy.sol\":1579:1692  function getOwner() public view returns (address) {... */\n      swap1\n      jump\t// out\n        /* \"contract/proxy.sol\":608:682  bytes32 public constant ADMIN_SLOT = bytes32(uint(keccak256(\"ADMIN\")) - 1) */\n    tag_26:\n        /* \"contract/proxy.sol\":680:681  1 */\n      0x01\n        /* \"contract/proxy.sol\":658:676  keccak256(\"ADMIN\") */\n      0xdf8b4c520ffe197c5343c6f5aec59570151ef9a492f2c624fd45ddde6135ec42\n        /* \"contract/proxy.sol\":653:677  uint(keccak256(\"ADMIN\")) */\n      0x00\n      shr\n        /* \"contract/proxy.sol\":653:681  uint(keccak256(\"ADMIN\")) - 1 */\n      tag_50\n      swap2\n      swap1\n      tag_39\n      jump\t// in\n    tag_50:\n        /* \"contract/proxy.sol\":645:682  bytes32(uint(keccak256(\"ADMIN\")) - 1) */\n      0x00\n      shl\n        /* \"contract/proxy.sol\":608:682  bytes32 public constant ADMIN_SLOT = bytes32(uint(keccak256(\"ADMIN\")) - 1) */\n      dup2\n      jump\t// out\n        /* \"contract/proxy.sol\":342:414  bytes32 public constant IMPL_SLOT = bytes32(uint(keccak256(\"IMPL\")) - 1) */\n    tag_31:\n        /* \"contract/proxy.sol\":412:413  1 */\n      0x01\n        /* \"contract/proxy.sol\":391:408  keccak256(\"IMPL\") */\n      0x486287226df0757af294903da9bc1edb84c92006afe00d704a2e6e2aea90d6b8\n        /* \"contract/proxy.sol\":386:409  uint(keccak256(\"IMPL\")) */\n      0x00\n      shr\n        /* \"contract/proxy.sol\":386:413  uint(keccak256(\"IMPL\")) - 1 */\n      tag_51\n      swap2\n      swap1\n      tag_39\n      jump\t// in\n    tag_51:\n        /* \"contract/proxy.sol\":378:414  bytes32(uint(keccak256(\"IMPL\")) - 1) */\n      0x00\n      shl\n        /* \"contract/proxy.sol\":342:414  bytes32 public constant IMPL_SLOT = bytes32(uint(keccak256(\"IMPL\")) - 1) */\n      dup2\n      jump\t// out\n        /* \"contract/proxy.sol\":2872:3406  function getAddressSlot(bytes32 _slotAddress) ... */\n    tag_40:\n        /* \"contract/proxy.sol\":2951:2978  AddressSlot storage pointer */\n      0x00\n        /* \"contract/proxy.sol\":3340:3352  _slotAddress */\n      dup2\n        /* \"contract/proxy.sol\":3324:3352  pointer.slot := _slotAddress */\n      swap1\n      pop\n        /* \"contract/proxy.sol\":2872:3406  function getAddressSlot(bytes32 _slotAddress) ... */\n      swap2\n      swap1\n      pop\n      jump\t// out\n        /* \"#utility.yul\":88:205   */\n    tag_54:\n        /* \"#utility.yul\":197:198   */\n      0x00\n        /* \"#utility.yul\":194:195   */\n      0x00\n        /* \"#utility.yul\":187:199   */\n      revert\n        /* \"#utility.yul\":334:460   */\n    tag_56:\n        /* \"#utility.yul\":371:378   */\n      0x00\n        /* \"#utility.yul\":411:453   */\n      0xffffffffffffffffffffffffffffffffffffffff\n        /* \"#utility.yul\":404:409   */\n      dup3\n        /* \"#utility.yul\":400:454   */\n      and\n        /* \"#utility.yul\":389:454   */\n      swap1\n      pop\n        /* \"#utility.yul\":334:460   */\n      swap2\n      swap1\n      pop\n      jump\t// out\n        /* \"#utility.yul\":466:562   */\n    tag_57:\n        /* \"#utility.yul\":503:510   */\n      0x00\n        /* \"#utility.yul\":532:556   */\n      tag_71\n        /* \"#utility.yul\":550:555   */\n      dup3\n        /* \"#utility.yul\":532:556   */\n      tag_56\n      jump\t// in\n    tag_71:\n        /* \"#utility.yul\":521:556   */\n      swap1\n      pop\n        /* \"#utility.yul\":466:562   */\n      swap2\n      swap1\n      pop\n      jump\t// out\n        /* \"#utility.yul\":568:690   */\n    tag_58:\n        /* \"#utility.yul\":641:665   */\n      tag_73\n        /* \"#utility.yul\":659:664   */\n      dup2\n        /* \"#utility.yul\":641:665   */\n      tag_57\n      jump\t// in\n    tag_73:\n        /* \"#utility.yul\":634:639   */\n      dup2\n        /* \"#utility.yul\":631:666   */\n      eq\n        /* \"#utility.yul\":621:684   */\n      tag_74\n      jumpi\n        /* \"#utility.yul\":680:681   */\n      0x00\n        /* \"#utility.yul\":677:678   */\n      0x00\n        /* \"#utility.yul\":670:682   */\n      revert\n        /* \"#utility.yul\":621:684   */\n    tag_74:\n        /* \"#utility.yul\":568:690   */\n      pop\n      jump\t// out\n        /* \"#utility.yul\":696:835   */\n    tag_59:\n        /* \"#utility.yul\":742:747   */\n      0x00\n        /* \"#utility.yul\":780:786   */\n      dup2\n        /* \"#utility.yul\":767:787   */\n      calldataload\n        /* \"#utility.yul\":758:787   */\n      swap1\n      pop\n        /* \"#utility.yul\":796:829   */\n      tag_76\n        /* \"#utility.yul\":823:828   */\n      dup2\n        /* \"#utility.yul\":796:829   */\n      tag_58\n      jump\t// in\n    tag_76:\n        /* \"#utility.yul\":696:835   */\n      swap3\n      swap2\n      pop\n      pop\n      jump\t// out\n        /* \"#utility.yul\":841:1170   */\n    tag_17:\n        /* \"#utility.yul\":900:906   */\n      0x00\n        /* \"#utility.yul\":949:951   */\n      0x20\n        /* \"#utility.yul\":937:946   */\n      dup3\n        /* \"#utility.yul\":928:935   */\n      dup5\n        /* \"#utility.yul\":924:947   */\n      sub\n        /* \"#utility.yul\":920:952   */\n      slt\n        /* \"#utility.yul\":917:1036   */\n      iszero\n      tag_78\n      jumpi\n        /* \"#utility.yul\":955:1034   */\n      tag_79\n      tag_54\n      jump\t// in\n    tag_79:\n        /* \"#utility.yul\":917:1036   */\n    tag_78:\n        /* \"#utility.yul\":1075:1076   */\n      0x00\n        /* \"#utility.yul\":1100:1153   */\n      tag_80\n        /* \"#utility.yul\":1145:1152   */\n      dup5\n        /* \"#utility.yul\":1136:1142   */\n      dup3\n        /* \"#utility.yul\":1125:1134   */\n      dup6\n        /* \"#utility.yul\":1121:1143   */\n      add\n        /* \"#utility.yul\":1100:1153   */\n      tag_59\n      jump\t// in\n    tag_80:\n        /* \"#utility.yul\":1090:1153   */\n      swap2\n      pop\n        /* \"#utility.yul\":1046:1163   */\n      pop\n        /* \"#utility.yul\":841:1170   */\n      swap3\n      swap2\n      pop\n      pop\n      jump\t// out\n        /* \"#utility.yul\":1176:1294   */\n    tag_60:\n        /* \"#utility.yul\":1263:1287   */\n      tag_82\n        /* \"#utility.yul\":1281:1286   */\n      dup2\n        /* \"#utility.yul\":1263:1287   */\n      tag_57\n      jump\t// in\n    tag_82:\n        /* \"#utility.yul\":1258:1261   */\n      dup3\n        /* \"#utility.yul\":1251:1288   */\n      mstore\n        /* \"#utility.yul\":1176:1294   */\n      pop\n      pop\n      jump\t// out\n        /* \"#utility.yul\":1300:1522   */\n    tag_23:\n        /* \"#utility.yul\":1393:1397   */\n      0x00\n        /* \"#utility.yul\":1431:1433   */\n      0x20\n        /* \"#utility.yul\":1420:1429   */\n      dup3\n        /* \"#utility.yul\":1416:1434   */\n      add\n        /* \"#utility.yul\":1408:1434   */\n      swap1\n      pop\n        /* \"#utility.yul\":1444:1515   */\n      tag_84\n        /* \"#utility.yul\":1512:1513   */\n      0x00\n        /* \"#utility.yul\":1501:1510   */\n      dup4\n        /* \"#utility.yul\":1497:1514   */\n      add\n        /* \"#utility.yul\":1488:1494   */\n      dup5\n        /* \"#utility.yul\":1444:1515   */\n      tag_60\n      jump\t// in\n    tag_84:\n        /* \"#utility.yul\":1300:1522   */\n      swap3\n      swap2\n      pop\n      pop\n      jump\t// out\n        /* \"#utility.yul\":1528:1605   */\n    tag_61:\n        /* \"#utility.yul\":1565:1572   */\n      0x00\n        /* \"#utility.yul\":1594:1599   */\n      dup2\n        /* \"#utility.yul\":1583:1599   */\n      swap1\n      pop\n        /* \"#utility.yul\":1528:1605   */\n      swap2\n      swap1\n      pop\n      jump\t// out\n        /* \"#utility.yul\":1611:1729   */\n    tag_62:\n        /* \"#utility.yul\":1698:1722   */\n      tag_87\n        /* \"#utility.yul\":1716:1721   */\n      dup2\n        /* \"#utility.yul\":1698:1722   */\n      tag_61\n      jump\t// in\n    tag_87:\n        /* \"#utility.yul\":1693:1696   */\n      dup3\n        /* \"#utility.yul\":1686:1723   */\n      mstore\n        /* \"#utility.yul\":1611:1729   */\n      pop\n      pop\n      jump\t// out\n        /* \"#utility.yul\":1735:1957   */\n    tag_28:\n        /* \"#utility.yul\":1828:1832   */\n      0x00\n        /* \"#utility.yul\":1866:1868   */\n      0x20\n        /* \"#utility.yul\":1855:1864   */\n      dup3\n        /* \"#utility.yul\":1851:1869   */\n      add\n        /* \"#utility.yul\":1843:1869   */\n      swap1\n      pop\n        /* \"#utility.yul\":1879:1950   */\n      tag_89\n        /* \"#utility.yul\":1947:1948   */\n      0x00\n        /* \"#utility.yul\":1936:1945   */\n      dup4\n        /* \"#utility.yul\":1932:1949   */\n      add\n        /* \"#utility.yul\":1923:1929   */\n      dup5\n        /* \"#utility.yul\":1879:1950   */\n      tag_62\n      jump\t// in\n    tag_89:\n        /* \"#utility.yul\":1735:1957   */\n      swap3\n      swap2\n      pop\n      pop\n      jump\t// out\n        /* \"#utility.yul\":1963:2040   */\n    tag_63:\n        /* \"#utility.yul\":2000:2007   */\n      0x00\n        /* \"#utility.yul\":2029:2034   */\n      dup2\n        /* \"#utility.yul\":2018:2034   */\n      swap1\n      pop\n        /* \"#utility.yul\":1963:2040   */\n      swap2\n      swap1\n      pop\n      jump\t// out\n        /* \"#utility.yul\":2046:2226   */\n    tag_64:\n        /* \"#utility.yul\":2094:2171   */\n      0x4e487b7100000000000000000000000000000000000000000000000000000000\n        /* \"#utility.yul\":2091:2092   */\n      0x00\n        /* \"#utility.yul\":2084:2172   */\n      mstore\n        /* \"#utility.yul\":2191:2195   */\n      0x11\n        /* \"#utility.yul\":2188:2189   */\n      0x04\n        /* \"#utility.yul\":2181:2196   */\n      mstore\n        /* \"#utility.yul\":2215:2219   */\n      0x24\n        /* \"#utility.yul\":2212:2213   */\n      0x00\n        /* \"#utility.yul\":2205:2220   */\n      revert\n        /* \"#utility.yul\":2232:2426   */\n    tag_39:\n        /* \"#utility.yul\":2272:2276   */\n      0x00\n        /* \"#utility.yul\":2292:2312   */\n      tag_93\n        /* \"#utility.yul\":2310:2311   */\n      dup3\n        /* \"#utility.yul\":2292:2312   */\n      tag_63\n      jump\t// in\n    tag_93:\n        /* \"#utility.yul\":2287:2312   */\n      swap2\n      pop\n        /* \"#utility.yul\":2326:2346   */\n      tag_94\n        /* \"#utility.yul\":2344:2345   */\n      dup4\n        /* \"#utility.yul\":2326:2346   */\n      tag_63\n      jump\t// in\n    tag_94:\n        /* \"#utility.yul\":2321:2346   */\n      swap3\n      pop\n        /* \"#utility.yul\":2370:2371   */\n      dup3\n        /* \"#utility.yul\":2367:2368   */\n      dup3\n        /* \"#utility.yul\":2363:2372   */\n      sub\n        /* \"#utility.yul\":2355:2372   */\n      swap1\n      pop\n        /* \"#utility.yul\":2394:2395   */\n      dup2\n        /* \"#utility.yul\":2388:2392   */\n      dup2\n        /* \"#utility.yul\":2385:2396   */\n      gt\n        /* \"#utility.yul\":2382:2419   */\n      iszero\n      tag_95\n      jumpi\n        /* \"#utility.yul\":2399:2417   */\n      tag_96\n      tag_64\n      jump\t// in\n    tag_96:\n        /* \"#utility.yul\":2382:2419   */\n    tag_95:\n        /* \"#utility.yul\":2232:2426   */\n      swap3\n      swap2\n      pop\n      pop\n      jump\t// out\n\n    auxdata: 0xa2646970667358221220bae9c472ff7299b54c015f4c8f089a9b3f2e922acc1614a0d0eef014326e1ad464736f6c634300081e0033\n}\n",
				"bytecode": {
					"linkReferences": {},
					"object": "608060405234801561000f575f5ffd5b5061001f3361002460201b60201c565b610118565b8061006460017fdf8b4c520ffe197c5343c6f5aec59570151ef9a492f2c624fd45ddde6135ec425f1c61005791906100e5565b5f1b6100a660201b60201c565b5f015f6101000a81548173ffffffffffffffffffffffffffffffffffffffff021916908373ffffffffffffffffffffffffffffffffffffffff16021790555050565b5f819050919050565b5f819050919050565b7f4e487b71000000000000000000000000000000000000000000000000000000005f52601160045260245ffd5b5f6100ef826100af565b91506100fa836100af565b9250828203905081811115610112576101116100b8565b5b92915050565b61047f806101255f395ff3fe60806040526004361061004d575f3560e01c8063691bd2ae14610060578063893d20e8146100885780639c4b32be146100b2578063a0ab35aa146100dc578063dfb80831146101065761004e565b5b61005e610059610130565b610191565b005b34801561006b575f5ffd5b506100866004803603810190610081919061035c565b6101b0565b005b348015610093575f5ffd5b5061009c61022c565b6040516100a99190610396565b60405180910390f35b3480156100bd575f5ffd5b506100c661028d565b6040516100d391906103c7565b60405180910390f35b3480156100e7575f5ffd5b506100f06102c1565b6040516100fd91906103c7565b60405180910390f35b348015610111575f5ffd5b5061011a610130565b6040516101279190610396565b60405180910390f35b5f61016a60017f486287226df0757af294903da9bc1edb84c92006afe00d704a2e6e2aea90d6b85f1c6101639190610416565b5f1b6102f5565b5f015f9054906101000a900473ffffffffffffffffffffffffffffffffffffffff16905090565b365f5f375f5f365f845af43d5f5f3e805f81146101ac573d5ff35b3d5ffd5b806101ea60017f486287226df0757af294903da9bc1edb84c92006afe00d704a2e6e2aea90d6b85f1c6101e39190610416565b5f1b6102f5565b5f015f6101000a81548173ffffffffffffffffffffffffffffffffffffffff021916908373ffffffffffffffffffffffffffffffffffffffff16021790555050565b5f61026660017fdf8b4c520ffe197c5343c6f5aec59570151ef9a492f2c624fd45ddde6135ec425f1c61025f9190610416565b5f1b6102f5565b5f015f9054906101000a900473ffffffffffffffffffffffffffffffffffffffff16905090565b60017fdf8b4c520ffe197c5343c6f5aec59570151ef9a492f2c624fd45ddde6135ec425f1c6102bc9190610416565b5f1b81565b60017f486287226df0757af294903da9bc1edb84c92006afe00d704a2e6e2aea90d6b85f1c6102f09190610416565b5f1b81565b5f819050919050565b5f5ffd5b5f73ffffffffffffffffffffffffffffffffffffffff82169050919050565b5f61032b82610302565b9050919050565b61033b81610321565b8114610345575f5ffd5b50565b5f8135905061035681610332565b92915050565b5f60208284031215610371576103706102fe565b5b5f61037e84828501610348565b91505092915050565b61039081610321565b82525050565b5f6020820190506103a95f830184610387565b92915050565b5f819050919050565b6103c1816103af565b82525050565b5f6020820190506103da5f8301846103b8565b92915050565b5f819050919050565b7f4e487b71000000000000000000000000000000000000000000000000000000005f52601160045260245ffd5b5f610420826103e0565b915061042b836103e0565b9250828203905081811115610443576104426103e9565b5b9291505056fea2646970667358221220bae9c472ff7299b54c015f4c8f089a9b3f2e922acc1614a0d0eef014326e1ad464736f6c634300081e0033",
					"opcodes": "PUSH1 0x80 PUSH1 0x40 MSTORE CALLVALUE DUP1 ISZERO PUSH2 0xF JUMPI PUSH0 PUSH0 REVERT JUMPDEST POP PUSH2 0x1F CALLER PUSH2 0x24 PUSH1 0x20 SHL PUSH1 0x20 SHR JUMP JUMPDEST PUSH2 0x118 JUMP JUMPDEST DUP1 PUSH2 0x64 PUSH1 0x1 PUSH32 0xDF8B4C520FFE197C5343C6F5AEC59570151EF9A492F2C624FD45DDDE6135EC42 PUSH0 SHR PUSH2 0x57 SWAP2 SWAP1 PUSH2 0xE5 JUMP JUMPDEST PUSH0 SHL PUSH2 0xA6 PUSH1 0x20 SHL PUSH1 0x20 SHR JUMP JUMPDEST PUSH0 ADD PUSH0 PUSH2 0x100 EXP DUP2 SLOAD DUP2 PUSH20 0xFFFFFFFFFFFFFFFFFFFFFFFFFFFFFFFFFFFFFFFF MUL NOT AND SWAP1 DUP4 PUSH20 0xFFFFFFFFFFFFFFFFFFFFFFFFFFFFFFFFFFFFFFFF AND MUL OR SWAP1 SSTORE POP POP JUMP JUMPDEST PUSH0 DUP2 SWAP1 POP SWAP2 SWAP1 POP JUMP JUMPDEST PUSH0 DUP2 SWAP1 POP SWAP2 SWAP1 POP JUMP JUMPDEST PUSH32 0x4E487B7100000000000000000000000000000000000000000000000000000000 PUSH0 MSTORE PUSH1 0x11 PUSH1 0x4 MSTORE PUSH1 0x24 PUSH0 REVERT JUMPDEST PUSH0 PUSH2 0xEF DUP3 PUSH2 0xAF JUMP JUMPDEST SWAP2 POP PUSH2 0xFA DUP4 PUSH2 0xAF JUMP JUMPDEST SWAP3 POP DUP3 DUP3 SUB SWAP1 POP DUP2 DUP2 GT ISZERO PUSH2 0x112 JUMPI PUSH2 0x111 PUSH2 0xB8 JUMP JUMPDEST JUMPDEST SWAP3 SWAP2 POP POP JUMP JUMPDEST PUSH2 0x47F DUP1 PUSH2 0x125 PUSH0 CODECOPY PUSH0 RETURN INVALID PUSH1 0x80 PUSH1 0x40 MSTORE PUSH1 0x4 CALLDATASIZE LT PUSH2 0x4D JUMPI PUSH0 CALLDATALOAD PUSH1 0xE0 SHR DUP1 PUSH4 0x691BD2AE EQ PUSH2 0x60 JUMPI DUP1 PUSH4 0x893D20E8 EQ PUSH2 0x88 JUMPI DUP1 PUSH4 0x9C4B32BE EQ PUSH2 0xB2 JUMPI DUP1 PUSH4 0xA0AB35AA EQ PUSH2 0xDC JUMPI DUP1 PUSH4 0xDFB80831 EQ PUSH2 0x106 JUMPI PUSH2 0x4E JUMP JUMPDEST JUMPDEST PUSH2 0x5E PUSH2 0x59 PUSH2 0x130 JUMP JUMPDEST PUSH2 0x191 JUMP JUMPDEST STOP JUMPDEST CALLVALUE DUP1 ISZERO PUSH2 0x6B JUMPI PUSH0 PUSH0 REVERT JUMPDEST POP PUSH2 0x86 PUSH1 0x4 DUP1 CALLDATASIZE SUB DUP2 ADD SWAP1 PUSH2 0x81 SWAP2 SWAP1 PUSH2 0x35C JUMP JUMPDEST PUSH2 0x1B0 JUMP JUMPDEST STOP JUMPDEST CALLVALUE DUP1 ISZERO PUSH2 0x93 JUMPI PUSH0 PUSH0 REVERT JUMPDEST POP PUSH2 0x9C PUSH2 0x22C JUMP JUMPDEST PUSH1 0x40 MLOAD PUSH2 0xA9 SWAP2 SWAP1 PUSH2 0x396 JUMP JUMPDEST PUSH1 0x40 MLOAD DUP1 SWAP2 SUB SWAP1 RETURN JUMPDEST CALLVALUE DUP1 ISZERO PUSH2 0xBD JUMPI PUSH0 PUSH0 REVERT JUMPDEST POP PUSH2 0xC6 PUSH2 0x28D JUMP JUMPDEST PUSH1 0x40 MLOAD PUSH2 0xD3 SWAP2 SWAP1 PUSH2 0x3C7 JUMP JUMPDEST PUSH1 0x40 MLOAD DUP1 SWAP2 SUB SWAP1 RETURN JUMPDEST CALLVALUE DUP1 ISZERO PUSH2 0xE7 JUMPI PUSH0 PUSH0 REVERT JUMPDEST POP PUSH2 0xF0 PUSH2 0x2C1 JUMP JUMPDEST PUSH1 0x40 MLOAD PUSH2 0xFD SWAP2 SWAP1 PUSH2 0x3C7 JUMP JUMPDEST PUSH1 0x40 MLOAD DUP1 SWAP2 SUB SWAP1 RETURN JUMPDEST CALLVALUE DUP1 ISZERO PUSH2 0x111 JUMPI PUSH0 PUSH0 REVERT JUMPDEST POP PUSH2 0x11A PUSH2 0x130 JUMP JUMPDEST PUSH1 0x40 MLOAD PUSH2 0x127 SWAP2 SWAP1 PUSH2 0x396 JUMP JUMPDEST PUSH1 0x40 MLOAD DUP1 SWAP2 SUB SWAP1 RETURN JUMPDEST PUSH0 PUSH2 0x16A PUSH1 0x1 PUSH32 0x486287226DF0757AF294903DA9BC1EDB84C92006AFE00D704A2E6E2AEA90D6B8 PUSH0 SHR PUSH2 0x163 SWAP2 SWAP1 PUSH2 0x416 JUMP JUMPDEST PUSH0 SHL PUSH2 0x2F5 JUMP JUMPDEST PUSH0 ADD PUSH0 SWAP1 SLOAD SWAP1 PUSH2 0x100 EXP SWAP1 DIV PUSH20 0xFFFFFFFFFFFFFFFFFFFFFFFFFFFFFFFFFFFFFFFF AND SWAP1 POP SWAP1 JUMP JUMPDEST CALLDATASIZE PUSH0 PUSH0 CALLDATACOPY PUSH0 PUSH0 CALLDATASIZE PUSH0 DUP5 GAS DELEGATECALL RETURNDATASIZE PUSH0 PUSH0 RETURNDATACOPY DUP1 PUSH0 DUP2 EQ PUSH2 0x1AC JUMPI RETURNDATASIZE PUSH0 RETURN JUMPDEST RETURNDATASIZE PUSH0 REVERT JUMPDEST DUP1 PUSH2 0x1EA PUSH1 0x1 PUSH32 0x486287226DF0757AF294903DA9BC1EDB84C92006AFE00D704A2E6E2AEA90D6B8 PUSH0 SHR PUSH2 0x1E3 SWAP2 SWAP1 PUSH2 0x416 JUMP JUMPDEST PUSH0 SHL PUSH2 0x2F5 JUMP JUMPDEST PUSH0 ADD PUSH0 PUSH2 0x100 EXP DUP2 SLOAD DUP2 PUSH20 0xFFFFFFFFFFFFFFFFFFFFFFFFFFFFFFFFFFFFFFFF MUL NOT AND SWAP1 DUP4 PUSH20 0xFFFFFFFFFFFFFFFFFFFFFFFFFFFFFFFFFFFFFFFF AND MUL OR SWAP1 SSTORE POP POP JUMP JUMPDEST PUSH0 PUSH2 0x266 PUSH1 0x1 PUSH32 0xDF8B4C520FFE197C5343C6F5AEC59570151EF9A492F2C624FD45DDDE6135EC42 PUSH0 SHR PUSH2 0x25F SWAP2 SWAP1 PUSH2 0x416 JUMP JUMPDEST PUSH0 SHL PUSH2 0x2F5 JUMP JUMPDEST PUSH0 ADD PUSH0 SWAP1 SLOAD SWAP1 PUSH2 0x100 EXP SWAP1 DIV PUSH20 0xFFFFFFFFFFFFFFFFFFFFFFFFFFFFFFFFFFFFFFFF AND SWAP1 POP SWAP1 JUMP JUMPDEST PUSH1 0x1 PUSH32 0xDF8B4C520FFE197C5343C6F5AEC59570151EF9A492F2C624FD45DDDE6135EC42 PUSH0 SHR PUSH2 0x2BC SWAP2 SWAP1 PUSH2 0x416 JUMP JUMPDEST PUSH0 SHL DUP2 JUMP JUMPDEST PUSH1 0x1 PUSH32 0x486287226DF0757AF294903DA9BC1EDB84C92006AFE00D704A2E6E2AEA90D6B8 PUSH0 SHR PUSH2 0x2F0 SWAP2 SWAP1 PUSH2 0x416 JUMP JUMPDEST PUSH0 SHL DUP2 JUMP JUMPDEST PUSH0 DUP2 SWAP1 POP SWAP2 SWAP1 POP JUMP JUMPDEST PUSH0 PUSH0 REVERT JUMPDEST PUSH0 PUSH20 0xFFFFFFFFFFFFFFFFFFFFFFFFFFFFFFFFFFFFFFFF DUP3 AND SWAP1 POP SWAP2 SWAP1 POP JUMP JUMPDEST PUSH0 PUSH2 0x32B DUP3 PUSH2 0x302 JUMP JUMPDEST SWAP1 POP SWAP2 SWAP1 POP JUMP JUMPDEST PUSH2 0x33B DUP2 PUSH2 0x321 JUMP JUMPDEST DUP2 EQ PUSH2 0x345 JUMPI PUSH0 PUSH0 REVERT JUMPDEST POP JUMP JUMPDEST PUSH0 DUP2 CALLDATALOAD SWAP1 POP PUSH2 0x356 DUP2 PUSH2 0x332 JUMP JUMPDEST SWAP3 SWAP2 POP POP JUMP JUMPDEST PUSH0 PUSH1 0x20 DUP3 DUP5 SUB SLT ISZERO PUSH2 0x371 JUMPI PUSH2 0x370 PUSH2 0x2FE JUMP JUMPDEST JUMPDEST PUSH0 PUSH2 0x37E DUP5 DUP3 DUP6 ADD PUSH2 0x348 JUMP JUMPDEST SWAP2 POP POP SWAP3 SWAP2 POP POP JUMP JUMPDEST PUSH2 0x390 DUP2 PUSH2 0x321 JUMP JUMPDEST DUP3 MSTORE POP POP JUMP JUMPDEST PUSH0 PUSH1 0x20 DUP3 ADD SWAP1 POP PUSH2 0x3A9 PUSH0 DUP4 ADD DUP5 PUSH2 0x387 JUMP JUMPDEST SWAP3 SWAP2 POP POP JUMP JUMPDEST PUSH0 DUP2 SWAP1 POP SWAP2 SWAP1 POP JUMP JUMPDEST PUSH2 0x3C1 DUP2 PUSH2 0x3AF JUMP JUMPDEST DUP3 MSTORE POP POP JUMP JUMPDEST PUSH0 PUSH1 0x20 DUP3 ADD SWAP1 POP PUSH2 0x3DA PUSH0 DUP4 ADD DUP5 PUSH2 0x3B8 JUMP JUMPDEST SWAP3 SWAP2 POP POP JUMP JUMPDEST PUSH0 DUP2 SWAP1 POP SWAP2 SWAP1 POP JUMP JUMPDEST PUSH32 0x4E487B7100000000000000000000000000000000000000000000000000000000 PUSH0 MSTORE PUSH1 0x11 PUSH1 0x4 MSTORE PUSH1 0x24 PUSH0 REVERT JUMPDEST PUSH0 PUSH2 0x420 DUP3 PUSH2 0x3E0 JUMP JUMPDEST SWAP2 POP PUSH2 0x42B DUP4 PUSH2 0x3E0 JUMP JUMPDEST SWAP3 POP DUP3 DUP3 SUB SWAP1 POP DUP2 DUP2 GT ISZERO PUSH2 0x443 JUMPI PUSH2 0x442 PUSH2 0x3E9 JUMP JUMPDEST JUMPDEST SWAP3 SWAP2 POP POP JUMP INVALID LOG2 PUSH5 0x6970667358 0x22 SLT KECCAK256 0xBA 0xE9 0xC4 PUSH19 0xFF7299B54C015F4C8F089A9B3F2E922ACC1614 LOG0 0xD0 RETURNCONTRACT 0xF0 EQ ORIGIN PUSH15 0x1AD464736F6C634300081E00330000 "
				},
				"gasEstimates": {
					"creation": {
						"codeDepositCost": "230200",
						"executionCost": "infinite",
						"totalCost": "infinite"
					},
					"external": {
						"": "infinite",
						"ADMIN_SLOT()": "infinite",
						"IMPL_SLOT()": "infinite",
						"getImpl()": "infinite",
						"getOwner()": "infinite",
						"setImpl(address)": "infinite"
					},
					"internal": {
						"delegate(address)": "infinite",
						"setOwner(address)": "infinite"
					}
				},
				"methodIdentifiers": {
					"ADMIN_SLOT()": "9c4b32be",
					"IMPL_SLOT()": "a0ab35aa",
					"getImpl()": "dfb80831",
					"getOwner()": "893d20e8",
					"setImpl(address)": "691bd2ae"
				}
			},
			"storageLayout": {
				"storage": [],
				"types": null
			},
			"userdoc": {
				"kind": "user",
				"methods": {},
				"version": 1
			}
		}
	}
}