{
  "_format": "hh-sol-artifact-1",
  "contractName": "CoinNFT",
  "sourceName": "contracts/CoinNFT.sol",
  "abi": [
    {
      "inputs": [
        {
          "internalType": "string",
          "name": "name",
          "type": "string"
        },
        {
          "internalType": "string",
          "name": "symbol",
          "type": "string"
        }
      ],
      "stateMutability": "nonpayable",
      "type": "constructor"
    },
    {
      "inputs": [
        {
          "internalType": "address",
          "name": "spender",
          "type": "address"
        },
        {
          "internalType": "uint256",
          "name": "allowance",
          "type": "uint256"
        },
        {
          "internalType": "uint256",
          "name": "needed",
          "type": "uint256"
        }
      ],
      "name": "ERC20InsufficientAllowance",
      "type": "error"
    },
    {
      "inputs": [
        {
          "internalType": "address",
          "name": "sender",
          "type": "address"
        },
        {
          "internalType": "uint256",
          "name": "balance",
          "type": "uint256"
        },
        {
          "internalType": "uint256",
          "name": "needed",
          "type": "uint256"
        }
      ],
      "name": "ERC20InsufficientBalance",
      "type": "error"
    },
    {
      "inputs": [
        {
          "internalType": "address",
          "name": "approver",
          "type": "address"
        }
      ],
      "name": "ERC20InvalidApprover",
      "type": "error"
    },
    {
      "inputs": [
        {
          "internalType": "address",
          "name": "receiver",
          "type": "address"
        }
      ],
      "name": "ERC20InvalidReceiver",
      "type": "error"
    },
    {
      "inputs": [
        {
          "internalType": "address",
          "name": "sender",
          "type": "address"
        }
      ],
      "name": "ERC20InvalidSender",
      "type": "error"
    },
    {
      "inputs": [
        {
          "internalType": "address",
          "name": "spender",
          "type": "address"
        }
      ],
      "name": "ERC20InvalidSpender",
      "type": "error"
    },
    {
      "anonymous": false,
      "inputs": [
        {
          "indexed": true,
          "internalType": "address",
          "name": "owner",
          "type": "address"
        },
        {
          "indexed": true,
          "internalType": "address",
          "name": "spender",
          "type": "address"
        },
        {
          "indexed": false,
          "internalType": "uint256",
          "name": "value",
          "type": "uint256"
        }
      ],
      "name": "Approval",
      "type": "event"
    },
    {
      "anonymous": false,
      "inputs": [
        {
          "indexed": false,
          "internalType": "address",
          "name": "owner",
          "type": "address"
        },
        {
          "indexed": false,
          "internalType": "string",
          "name": "name",
          "type": "string"
        },
        {
          "indexed": false,
          "internalType": "uint256",
          "name": "price",
          "type": "uint256"
        },
        {
          "indexed": false,
          "internalType": "string",
          "name": "url",
          "type": "string"
        },
        {
          "indexed": false,
          "internalType": "string",
          "name": "trade",
          "type": "string"
        }
      ],
      "name": "NFTEvents",
      "type": "event"
    },
    {
      "anonymous": false,
      "inputs": [
        {
          "indexed": true,
          "internalType": "address",
          "name": "from",
          "type": "address"
        },
        {
          "indexed": true,
          "internalType": "address",
          "name": "to",
          "type": "address"
        },
        {
          "indexed": false,
          "internalType": "uint256",
          "name": "value",
          "type": "uint256"
        }
      ],
      "name": "Transfer",
      "type": "event"
    },
    {
      "inputs": [
        {
          "internalType": "address",
          "name": "owner",
          "type": "address"
        },
        {
          "internalType": "address",
          "name": "spender",
          "type": "address"
        }
      ],
      "name": "allowance",
      "outputs": [
        {
          "internalType": "uint256",
          "name": "",
          "type": "uint256"
        }
      ],
      "stateMutability": "view",
      "type": "function"
    },
    {
      "inputs": [
        {
          "internalType": "address",
          "name": "spender",
          "type": "address"
        },
        {
          "internalType": "uint256",
          "name": "value",
          "type": "uint256"
        }
      ],
      "name": "approve",
      "outputs": [
        {
          "internalType": "bool",
          "name": "",
          "type": "bool"
        }
      ],
      "stateMutability": "nonpayable",
      "type": "function"
    },
    {
      "inputs": [
        {
          "internalType": "address",
          "name": "account",
          "type": "address"
        }
      ],
      "name": "balanceOf",
      "outputs": [
        {
          "internalType": "uint256",
          "name": "",
          "type": "uint256"
        }
      ],
      "stateMutability": "view",
      "type": "function"
    },
    {
      "inputs": [
        {
          "internalType": "uint256",
          "name": "index",
          "type": "uint256"
        },
        {
          "internalType": "uint256",
          "name": "price",
          "type": "uint256"
        }
      ],
      "name": "buyNFT",
      "outputs": [],
      "stateMutability": "payable",
      "type": "function"
    },
    {
      "inputs": [
        {
          "internalType": "uint256",
          "name": "tokenamt",
          "type": "uint256"
        }
      ],
      "name": "buyToken",
      "outputs": [],
      "stateMutability": "payable",
      "type": "function"
    },
    {
      "inputs": [],
      "name": "decimals",
      "outputs": [
        {
          "internalType": "uint8",
          "name": "",
          "type": "uint8"
        }
      ],
      "stateMutability": "view",
      "type": "function"
    },
    {
      "inputs": [
        {
          "internalType": "uint256",
          "name": "index",
          "type": "uint256"
        }
      ],
      "name": "getCoinindex",
      "outputs": [
        {
          "internalType": "address",
          "name": "",
          "type": "address"
        },
        {
          "internalType": "string",
          "name": "",
          "type": "string"
        },
        {
          "internalType": "uint256",
          "name": "",
          "type": "uint256"
        },
        {
          "internalType": "string",
          "name": "",
          "type": "string"
        }
      ],
      "stateMutability": "view",
      "type": "function"
    },
    {
      "inputs": [],
      "name": "getCoins",
      "outputs": [
        {
          "components": [
            {
              "internalType": "address",
              "name": "owner",
              "type": "address"
            },
            {
              "internalType": "string",
              "name": "name",
              "type": "string"
            },
            {
              "internalType": "uint256",
              "name": "price",
              "type": "uint256"
            },
            {
              "internalType": "string",
              "name": "url",
              "type": "string"
            }
          ],
          "internalType": "struct CoinNFT.CoinStruct[]",
          "name": "",
          "type": "tuple[]"
        }
      ],
      "stateMutability": "view",
      "type": "function"
    },
    {
      "inputs": [],
      "name": "getuserCoins",
      "outputs": [
        {
          "components": [
            {
              "internalType": "string",
              "name": "name",
              "type": "string"
            },
            {
              "internalType": "string",
              "name": "url",
              "type": "string"
            }
          ],
          "internalType": "struct CoinNFT.userCoin[]",
          "name": "",
          "type": "tuple[]"
        }
      ],
      "stateMutability": "view",
      "type": "function"
    },
    {
      "inputs": [],
      "name": "getuserTokens",
      "outputs": [
        {
          "internalType": "uint256",
          "name": "",
          "type": "uint256"
        }
      ],
      "stateMutability": "view",
      "type": "function"
    },
    {
      "inputs": [],
      "name": "name",
      "outputs": [
        {
          "internalType": "string",
          "name": "",
          "type": "string"
        }
      ],
      "stateMutability": "view",
      "type": "function"
    },
    {
      "inputs": [
        {
          "internalType": "string",
          "name": "name",
          "type": "string"
        },
        {
          "internalType": "string",
          "name": "url",
          "type": "string"
        },
        {
          "internalType": "uint256",
          "name": "price",
          "type": "uint256"
        }
      ],
      "name": "sellNFT",
      "outputs": [],
      "stateMutability": "nonpayable",
      "type": "function"
    },
    {
      "inputs": [],
      "name": "symbol",
      "outputs": [
        {
          "internalType": "string",
          "name": "",
          "type": "string"
        }
      ],
      "stateMutability": "view",
      "type": "function"
    },
    {
      "inputs": [],
      "name": "totalSupply",
      "outputs": [
        {
          "internalType": "uint256",
          "name": "",
          "type": "uint256"
        }
      ],
      "stateMutability": "view",
      "type": "function"
    },
    {
      "inputs": [
        {
          "internalType": "address",
          "name": "to",
          "type": "address"
        },
        {
          "internalType": "uint256",
          "name": "value",
          "type": "uint256"
        }
      ],
      "name": "transfer",
      "outputs": [
        {
          "internalType": "bool",
          "name": "",
          "type": "bool"
        }
      ],
      "stateMutability": "nonpayable",
      "type": "function"
    },
    {
      "inputs": [
        {
          "internalType": "address",
          "name": "from",
          "type": "address"
        },
        {
          "internalType": "address",
          "name": "to",
          "type": "address"
        },
        {
          "internalType": "uint256",
          "name": "value",
          "type": "uint256"
        }
      ],
      "name": "transferFrom",
      "outputs": [
        {
          "internalType": "bool",
          "name": "",
          "type": "bool"
        }
      ],
      "stateMutability": "nonpayable",
      "type": "function"
    }
  ],
  "bytecode": "0x60806040526305f5e10060065534801561001857600080fd5b50604051612f1e380380612f1e833981810160405281019061003a91906101da565b8181816003908161004b9190610473565b50806004908161005b9190610473565b5050505050610545565b6000604051905090565b600080fd5b600080fd5b600080fd5b600080fd5b6000601f19601f8301169050919050565b7f4e487b7100000000000000000000000000000000000000000000000000000000600052604160045260246000fd5b6100cc82610083565b810181811067ffffffffffffffff821117156100eb576100ea610094565b5b80604052505050565b60006100fe610065565b905061010a82826100c3565b919050565b600067ffffffffffffffff82111561012a57610129610094565b5b61013382610083565b9050602081019050919050565b60005b8381101561015e578082015181840152602081019050610143565b60008484015250505050565b600061017d6101788461010f565b6100f4565b9050828152602081018484840111156101995761019861007e565b5b6101a4848285610140565b509392505050565b600082601f8301126101c1576101c0610079565b5b81516101d184826020860161016a565b91505092915050565b600080604083850312156101f1576101f061006f565b5b600083015167ffffffffffffffff81111561020f5761020e610074565b5b61021b858286016101ac565b925050602083015167ffffffffffffffff81111561023c5761023b610074565b5b610248858286016101ac565b9150509250929050565b600081519050919050565b7f4e487b7100000000000000000000000000000000000000000000000000000000600052602260045260246000fd5b600060028204905060018216806102a457607f821691505b6020821081036102b7576102b661025d565b5b50919050565b60008190508160005260206000209050919050565b60006020601f8301049050919050565b600082821b905092915050565b60006008830261031f7fffffffffffffffffffffffffffffffffffffffffffffffffffffffffffffffff826102e2565b61032986836102e2565b95508019841693508086168417925050509392505050565b6000819050919050565b6000819050919050565b600061037061036b61036684610341565b61034b565b610341565b9050919050565b6000819050919050565b61038a83610355565b61039e61039682610377565b8484546102ef565b825550505050565b600090565b6103b36103a6565b6103be818484610381565b505050565b5b818110156103e2576103d76000826103ab565b6001810190506103c4565b5050565b601f821115610427576103f8816102bd565b610401846102d2565b81016020851015610410578190505b61042461041c856102d2565b8301826103c3565b50505b505050565b600082821c905092915050565b600061044a6000198460080261042c565b1980831691505092915050565b60006104638383610439565b9150826002028217905092915050565b61047c82610252565b67ffffffffffffffff81111561049557610494610094565b5b61049f825461028c565b6104aa8282856103e6565b600060209050601f8311600181146104dd57600084156104cb578287015190505b6104d58582610457565b86555061053d565b601f1984166104eb866102bd565b60005b82811015610513578489015182556001820191506020850194506020810190506104ee565b86831015610530578489015161052c601f891682610439565b8355505b6001600288020188555050505b505050505050565b6129ca806105546000396000f3fe6080604052600436106100f35760003560e01c8063313ce5671161008a578063a9059cbb11610059578063a9059cbb14610327578063dd62b51514610364578063dd62ed3e1461038f578063e9f73f79146103cc576100f3565b8063313ce567146102545780635864861f1461027f57806370a08231146102bf57806395d89b41146102fc576100f3565b80631d85bf03116100c65780631d85bf03146101b65780631f1f311c146101d257806323b872dd146101fb5780632d296bf114610238576100f3565b806306fdde03146100f8578063095ea7b31461012357806313c390ef1461016057806318160ddd1461018b575b600080fd5b34801561010457600080fd5b5061010d6103f7565b60405161011a9190611a1b565b60405180910390f35b34801561012f57600080fd5b5061014a60048036038101906101459190611ae5565b610489565b6040516101579190611b40565b60405180910390f35b34801561016c57600080fd5b506101756104ac565b6040516101829190611cef565b60405180910390f35b34801561019757600080fd5b506101a061068f565b6040516101ad9190611d20565b60405180910390f35b6101d060048036038101906101cb9190611d3b565b610699565b005b3480156101de57600080fd5b506101f960048036038101906101f49190611eb0565b610b6f565b005b34801561020757600080fd5b50610222600480360381019061021d9190611f3b565b610ccf565b60405161022f9190611b40565b60405180910390f35b610252600480360381019061024d9190611f8e565b610cfe565b005b34801561026057600080fd5b50610269610d98565b6040516102769190611fd7565b60405180910390f35b34801561028b57600080fd5b506102a660048036038101906102a19190611f8e565b610da1565b6040516102b69493929190612001565b60405180910390f35b3480156102cb57600080fd5b506102e660048036038101906102e19190612054565b610f82565b6040516102f39190611d20565b60405180910390f35b34801561030857600080fd5b50610311610fca565b60405161031e9190611a1b565b60405180910390f35b34801561033357600080fd5b5061034e60048036038101906103499190611ae5565b61105c565b60405161035b9190611b40565b60405180910390f35b34801561037057600080fd5b5061037961107f565b6040516103869190612187565b60405180910390f35b34801561039b57600080fd5b506103b660048036038101906103b191906121a9565b61123f565b6040516103c39190611d20565b60405180910390f35b3480156103d857600080fd5b506103e16112c6565b6040516103ee9190611d20565b60405180910390f35b60606003805461040690612218565b80601f016020809104026020016040519081016040528092919081815260200182805461043290612218565b801561047f5780601f106104545761010080835404028352916020019161047f565b820191906000526020600020905b81548152906001019060200180831161046257829003601f168201915b5050505050905090565b60008061049461130d565b90506104a1818585611315565b600191505092915050565b60606007805480602002602001604051908101604052809291908181526020016000905b8282101561068657838290600052602060002090600402016040518060800160405290816000820160009054906101000a900473ffffffffffffffffffffffffffffffffffffffff1673ffffffffffffffffffffffffffffffffffffffff1673ffffffffffffffffffffffffffffffffffffffff16815260200160018201805461055990612218565b80601f016020809104026020016040519081016040528092919081815260200182805461058590612218565b80156105d25780601f106105a7576101008083540402835291602001916105d2565b820191906000526020600020905b8154815290600101906020018083116105b557829003601f168201915b50505050508152602001600282015481526020016003820180546105f590612218565b80601f016020809104026020016040519081016040528092919081815260200182805461062190612218565b801561066e5780601f106106435761010080835404028352916020019161066e565b820191906000526020600020905b81548152906001019060200180831161065157829003601f168201915b505050505081525050815260200190600101906104d0565b50505050905090565b6000600254905090565b600782815481106106ad576106ac612249565b5b9060005260206000209060040201600201546106c833610f82565b116106d257600080fd5b60006040518060400160405280600381526020017f6275790000000000000000000000000000000000000000000000000000000000815250905060006007848154811061072257610721612249565b5b906000526020600020906004020160000160009054906101000a900473ffffffffffffffffffffffffffffffffffffffff16905060006007858154811061076c5761076b612249565b5b9060005260206000209060040201600101805461078890612218565b80601f01602080910402602001604051908101604052809291908181526020018280546107b490612218565b80156108015780601f106107d657610100808354040283529160200191610801565b820191906000526020600020905b8154815290600101906020018083116107e457829003601f168201915b5050505050905060006007868154811061081e5761081d612249565b5b9060005260206000209060040201600301805461083a90612218565b80601f016020809104026020016040519081016040528092919081815260200182805461086690612218565b80156108b35780601f10610888576101008083540402835291602001916108b3565b820191906000526020600020905b81548152906001019060200180831161089657829003601f168201915b50505050509050600860003373ffffffffffffffffffffffffffffffffffffffff1673ffffffffffffffffffffffffffffffffffffffff1681526020019081526020016000206040518060400160405280848152602001838152509080600181540180825580915050600190039060005260206000209060020201600090919091909150600082015181600001908161094c9190612424565b5060208201518160010190816109629190612424565b50505084600560003373ffffffffffffffffffffffffffffffffffffffff1673ffffffffffffffffffffffffffffffffffffffff16815260200190815260200160002060008282546109b49190612525565b92505081905550600760016007805490506109cf9190612525565b815481106109e0576109df612249565b5b906000526020600020906004020160078781548110610a0257610a01612249565b5b90600052602060002090600402016000820160009054906101000a900473ffffffffffffffffffffffffffffffffffffffff168160000160006101000a81548173ffffffffffffffffffffffffffffffffffffffff021916908373ffffffffffffffffffffffffffffffffffffffff16021790555060018201816001019081610a8b919061256f565b506002820154816002015560038201816003019081610aaa919061256f565b509050506007805480610ac057610abf612657565b5b6001900381819060005260206000209060040201600080820160006101000a81549073ffffffffffffffffffffffffffffffffffffffff0219169055600182016000610b0c919061192e565b6002820160009055600382016000610b24919061192e565b505090557f61270c040d8007dacaaa711f1cd207d409898b220cf51c30ffc6f00803a67fb23383878488604051610b5f959493929190612686565b60405180910390a1505050505050565b60006040518060400160405280600481526020017f73656c6c000000000000000000000000000000000000000000000000000000008152509050600760405180608001604052803373ffffffffffffffffffffffffffffffffffffffff16815260200186815260200184815260200185815250908060018154018082558091505060019003906000526020600020906004020160009091909190915060008201518160000160006101000a81548173ffffffffffffffffffffffffffffffffffffffff021916908373ffffffffffffffffffffffffffffffffffffffff1602179055506020820151816001019081610c679190612424565b50604082015181600201556060820151816003019081610c879190612424565b5050507f61270c040d8007dacaaa711f1cd207d409898b220cf51c30ffc6f00803a67fb23385848685604051610cc1959493929190612686565b60405180910390a150505050565b600080610cda61130d565b9050610ce7858285611327565b610cf28585856113bc565b60019150509392505050565b60065481610d0c919061271d565b3414610d1757600080fd5b610d3f33610d23610d98565b600a610d2f9190612881565b83610d3a91906128cc565b6114b0565b80600560003373ffffffffffffffffffffffffffffffffffffffff1673ffffffffffffffffffffffffffffffffffffffff1681526020019081526020016000206000828254610d8e919061290e565b9250508190555050565b60006012905090565b6000606060006060600060078681548110610dbf57610dbe612249565b5b90600052602060002090600402016040518060800160405290816000820160009054906101000a900473ffffffffffffffffffffffffffffffffffffffff1673ffffffffffffffffffffffffffffffffffffffff1673ffffffffffffffffffffffffffffffffffffffff168152602001600182018054610e3e90612218565b80601f0160208091040260200160405190810160405280929190818152602001828054610e6a90612218565b8015610eb75780601f10610e8c57610100808354040283529160200191610eb7565b820191906000526020600020905b815481529060010190602001808311610e9a57829003601f168201915b5050505050815260200160028201548152602001600382018054610eda90612218565b80601f0160208091040260200160405190810160405280929190818152602001828054610f0690612218565b8015610f535780601f10610f2857610100808354040283529160200191610f53565b820191906000526020600020905b815481529060010190602001808311610f3657829003601f168201915b505050505081525050905080600001518160200151826040015183606001519450945094509450509193509193565b60008060008373ffffffffffffffffffffffffffffffffffffffff1673ffffffffffffffffffffffffffffffffffffffff168152602001908152602001600020549050919050565b606060048054610fd990612218565b80601f016020809104026020016040519081016040528092919081815260200182805461100590612218565b80156110525780601f1061102757610100808354040283529160200191611052565b820191906000526020600020905b81548152906001019060200180831161103557829003601f168201915b5050505050905090565b60008061106761130d565b90506110748185856113bc565b600191505092915050565b6060600860003373ffffffffffffffffffffffffffffffffffffffff1673ffffffffffffffffffffffffffffffffffffffff168152602001908152602001600020805480602002602001604051908101604052809291908181526020016000905b82821015611236578382906000526020600020906002020160405180604001604052908160008201805461111390612218565b80601f016020809104026020016040519081016040528092919081815260200182805461113f90612218565b801561118c5780601f106111615761010080835404028352916020019161118c565b820191906000526020600020905b81548152906001019060200180831161116f57829003601f168201915b505050505081526020016001820180546111a590612218565b80601f01602080910402602001604051908101604052809291908181526020018280546111d190612218565b801561121e5780601f106111f35761010080835404028352916020019161121e565b820191906000526020600020905b81548152906001019060200180831161120157829003601f168201915b505050505081525050815260200190600101906110e0565b50505050905090565b6000600160008473ffffffffffffffffffffffffffffffffffffffff1673ffffffffffffffffffffffffffffffffffffffff16815260200190815260200160002060008373ffffffffffffffffffffffffffffffffffffffff1673ffffffffffffffffffffffffffffffffffffffff16815260200190815260200160002054905092915050565b6000600560003373ffffffffffffffffffffffffffffffffffffffff1673ffffffffffffffffffffffffffffffffffffffff16815260200190815260200160002054905090565b600033905090565b6113228383836001611532565b505050565b6000611333848461123f565b90507fffffffffffffffffffffffffffffffffffffffffffffffffffffffffffffffff8110156113b657818110156113a6578281836040517ffb8f41b200000000000000000000000000000000000000000000000000000000815260040161139d93929190612942565b60405180910390fd5b6113b584848484036000611532565b5b50505050565b600073ffffffffffffffffffffffffffffffffffffffff168373ffffffffffffffffffffffffffffffffffffffff160361142e5760006040517f96c6fd1e0000000000000000000000000000000000000000000000000000000081526004016114259190612979565b60405180910390fd5b600073ffffffffffffffffffffffffffffffffffffffff168273ffffffffffffffffffffffffffffffffffffffff16036114a05760006040517fec442f050000000000000000000000000000000000000000000000000000000081526004016114979190612979565b60405180910390fd5b6114ab838383611709565b505050565b600073ffffffffffffffffffffffffffffffffffffffff168273ffffffffffffffffffffffffffffffffffffffff16036115225760006040517fec442f050000000000000000000000000000000000000000000000000000000081526004016115199190612979565b60405180910390fd5b61152e60008383611709565b5050565b600073ffffffffffffffffffffffffffffffffffffffff168473ffffffffffffffffffffffffffffffffffffffff16036115a45760006040517fe602df0500000000000000000000000000000000000000000000000000000000815260040161159b9190612979565b60405180910390fd5b600073ffffffffffffffffffffffffffffffffffffffff168373ffffffffffffffffffffffffffffffffffffffff16036116165760006040517f94280d6200000000000000000000000000000000000000000000000000000000815260040161160d9190612979565b60405180910390fd5b81600160008673ffffffffffffffffffffffffffffffffffffffff1673ffffffffffffffffffffffffffffffffffffffff16815260200190815260200160002060008573ffffffffffffffffffffffffffffffffffffffff1673ffffffffffffffffffffffffffffffffffffffff168152602001908152602001600020819055508015611703578273ffffffffffffffffffffffffffffffffffffffff168473ffffffffffffffffffffffffffffffffffffffff167f8c5be1e5ebec7d5bd14f71427d1e84f3dd0314c0f7b2291e5b200ac8c7c3b925846040516116fa9190611d20565b60405180910390a35b50505050565b600073ffffffffffffffffffffffffffffffffffffffff168373ffffffffffffffffffffffffffffffffffffffff160361175b57806002600082825461174f919061290e565b9250508190555061182e565b60008060008573ffffffffffffffffffffffffffffffffffffffff1673ffffffffffffffffffffffffffffffffffffffff168152602001908152602001600020549050818110156117e7578381836040517fe450d38c0000000000000000000000000000000000000000000000000000000081526004016117de93929190612942565b60405180910390fd5b8181036000808673ffffffffffffffffffffffffffffffffffffffff1673ffffffffffffffffffffffffffffffffffffffff16815260200190815260200160002081905550505b600073ffffffffffffffffffffffffffffffffffffffff168273ffffffffffffffffffffffffffffffffffffffff160361187757806002600082825403925050819055506118c4565b806000808473ffffffffffffffffffffffffffffffffffffffff1673ffffffffffffffffffffffffffffffffffffffff168152602001908152602001600020600082825401925050819055505b8173ffffffffffffffffffffffffffffffffffffffff168373ffffffffffffffffffffffffffffffffffffffff167fddf252ad1be2c89b69c2b068fc378daa952ba7f163c4a11628f55a4df523b3ef836040516119219190611d20565b60405180910390a3505050565b50805461193a90612218565b6000825580601f1061194c575061196b565b601f01602090049060005260206000209081019061196a919061196e565b5b50565b5b8082111561198757600081600090555060010161196f565b5090565b600081519050919050565b600082825260208201905092915050565b60005b838110156119c55780820151818401526020810190506119aa565b60008484015250505050565b6000601f19601f8301169050919050565b60006119ed8261198b565b6119f78185611996565b9350611a078185602086016119a7565b611a10816119d1565b840191505092915050565b60006020820190508181036000830152611a3581846119e2565b905092915050565b6000604051905090565b600080fd5b600080fd5b600073ffffffffffffffffffffffffffffffffffffffff82169050919050565b6000611a7c82611a51565b9050919050565b611a8c81611a71565b8114611a9757600080fd5b50565b600081359050611aa981611a83565b92915050565b6000819050919050565b611ac281611aaf565b8114611acd57600080fd5b50565b600081359050611adf81611ab9565b92915050565b60008060408385031215611afc57611afb611a47565b5b6000611b0a85828601611a9a565b9250506020611b1b85828601611ad0565b9150509250929050565b60008115159050919050565b611b3a81611b25565b82525050565b6000602082019050611b556000830184611b31565b92915050565b600081519050919050565b600082825260208201905092915050565b6000819050602082019050919050565b611b9081611a71565b82525050565b600082825260208201905092915050565b6000611bb28261198b565b611bbc8185611b96565b9350611bcc8185602086016119a7565b611bd5816119d1565b840191505092915050565b611be981611aaf565b82525050565b6000608083016000830151611c076000860182611b87565b5060208301518482036020860152611c1f8282611ba7565b9150506040830151611c346040860182611be0565b5060608301518482036060860152611c4c8282611ba7565b9150508091505092915050565b6000611c658383611bef565b905092915050565b6000602082019050919050565b6000611c8582611b5b565b611c8f8185611b66565b935083602082028501611ca185611b77565b8060005b85811015611cdd5784840389528151611cbe8582611c59565b9450611cc983611c6d565b925060208a01995050600181019050611ca5565b50829750879550505050505092915050565b60006020820190508181036000830152611d098184611c7a565b905092915050565b611d1a81611aaf565b82525050565b6000602082019050611d356000830184611d11565b92915050565b60008060408385031215611d5257611d51611a47565b5b6000611d6085828601611ad0565b9250506020611d7185828601611ad0565b9150509250929050565b600080fd5b600080fd5b7f4e487b7100000000000000000000000000000000000000000000000000000000600052604160045260246000fd5b611dbd826119d1565b810181811067ffffffffffffffff82111715611ddc57611ddb611d85565b5b80604052505050565b6000611def611a3d565b9050611dfb8282611db4565b919050565b600067ffffffffffffffff821115611e1b57611e1a611d85565b5b611e24826119d1565b9050602081019050919050565b82818337600083830152505050565b6000611e53611e4e84611e00565b611de5565b905082815260208101848484011115611e6f57611e6e611d80565b5b611e7a848285611e31565b509392505050565b600082601f830112611e9757611e96611d7b565b5b8135611ea7848260208601611e40565b91505092915050565b600080600060608486031215611ec957611ec8611a47565b5b600084013567ffffffffffffffff811115611ee757611ee6611a4c565b5b611ef386828701611e82565b935050602084013567ffffffffffffffff811115611f1457611f13611a4c565b5b611f2086828701611e82565b9250506040611f3186828701611ad0565b9150509250925092565b600080600060608486031215611f5457611f53611a47565b5b6000611f6286828701611a9a565b9350506020611f7386828701611a9a565b9250506040611f8486828701611ad0565b9150509250925092565b600060208284031215611fa457611fa3611a47565b5b6000611fb284828501611ad0565b91505092915050565b600060ff82169050919050565b611fd181611fbb565b82525050565b6000602082019050611fec6000830184611fc8565b92915050565b611ffb81611a71565b82525050565b60006080820190506120166000830187611ff2565b818103602083015261202881866119e2565b90506120376040830185611d11565b818103606083015261204981846119e2565b905095945050505050565b60006020828403121561206a57612069611a47565b5b600061207884828501611a9a565b91505092915050565b600081519050919050565b600082825260208201905092915050565b6000819050602082019050919050565b600060408301600083015184820360008601526120ca8282611ba7565b915050602083015184820360208601526120e48282611ba7565b9150508091505092915050565b60006120fd83836120ad565b905092915050565b6000602082019050919050565b600061211d82612081565b612127818561208c565b9350836020820285016121398561209d565b8060005b85811015612175578484038952815161215685826120f1565b945061216183612105565b925060208a0199505060018101905061213d565b50829750879550505050505092915050565b600060208201905081810360008301526121a18184612112565b905092915050565b600080604083850312156121c0576121bf611a47565b5b60006121ce85828601611a9a565b92505060206121df85828601611a9a565b9150509250929050565b7f4e487b7100000000000000000000000000000000000000000000000000000000600052602260045260246000fd5b6000600282049050600182168061223057607f821691505b602082108103612243576122426121e9565b5b50919050565b7f4e487b7100000000000000000000000000000000000000000000000000000000600052603260045260246000fd5b60008190508160005260206000209050919050565b60006020601f8301049050919050565b600082821b905092915050565b6000600883026122da7fffffffffffffffffffffffffffffffffffffffffffffffffffffffffffffffff8261229d565b6122e4868361229d565b95508019841693508086168417925050509392505050565b6000819050919050565b600061232161231c61231784611aaf565b6122fc565b611aaf565b9050919050565b6000819050919050565b61233b83612306565b61234f61234782612328565b8484546122aa565b825550505050565b600090565b612364612357565b61236f818484612332565b505050565b5b818110156123935761238860008261235c565b600181019050612375565b5050565b601f8211156123d8576123a981612278565b6123b28461228d565b810160208510156123c1578190505b6123d56123cd8561228d565b830182612374565b50505b505050565b600082821c905092915050565b60006123fb600019846008026123dd565b1980831691505092915050565b600061241483836123ea565b9150826002028217905092915050565b61242d8261198b565b67ffffffffffffffff81111561244657612445611d85565b5b6124508254612218565b61245b828285612397565b600060209050601f83116001811461248e576000841561247c578287015190505b6124868582612408565b8655506124ee565b601f19841661249c86612278565b60005b828110156124c45784890151825560018201915060208501945060208101905061249f565b868310156124e157848901516124dd601f8916826123ea565b8355505b6001600288020188555050505b505050505050565b7f4e487b7100000000000000000000000000000000000000000000000000000000600052601160045260246000fd5b600061253082611aaf565b915061253b83611aaf565b9250828203905081811115612553576125526124f6565b5b92915050565b60008154905061256881612218565b9050919050565b81810361257d575050612655565b61258682612559565b67ffffffffffffffff81111561259f5761259e611d85565b5b6125a98254612218565b6125b4828285612397565b6000601f8311600181146125e357600084156125d1578287015490505b6125db8582612408565b86555061264e565b601f1984166125f187612278565b96506125fc86612278565b60005b82811015612624578489015482556001820191506001850194506020810190506125ff565b86831015612641578489015461263d601f8916826123ea565b8355505b6001600288020188555050505b5050505050505b565b7f4e487b7100000000000000000000000000000000000000000000000000000000600052603160045260246000fd5b600060a08201905061269b6000830188611ff2565b81810360208301526126ad81876119e2565b90506126bc6040830186611d11565b81810360608301526126ce81856119e2565b905081810360808301526126e281846119e2565b90509695505050505050565b7f4e487b7100000000000000000000000000000000000000000000000000000000600052601260045260246000fd5b600061272882611aaf565b915061273383611aaf565b925082612743576127426126ee565b5b828204905092915050565b60008160011c9050919050565b6000808291508390505b60018511156127a557808604811115612781576127806124f6565b5b60018516156127905780820291505b808102905061279e8561274e565b9450612765565b94509492505050565b6000826127be576001905061287a565b816127cc576000905061287a565b81600181146127e257600281146127ec5761281b565b600191505061287a565b60ff8411156127fe576127fd6124f6565b5b8360020a915084821115612815576128146124f6565b5b5061287a565b5060208310610133831016604e8410600b84101617156128505782820a90508381111561284b5761284a6124f6565b5b61287a565b61285d848484600161275b565b92509050818404811115612874576128736124f6565b5b81810290505b9392505050565b600061288c82611aaf565b915061289783611fbb565b92506128c47fffffffffffffffffffffffffffffffffffffffffffffffffffffffffffffffff84846127ae565b905092915050565b60006128d782611aaf565b91506128e283611aaf565b92508282026128f081611aaf565b91508282048414831517612907576129066124f6565b5b5092915050565b600061291982611aaf565b915061292483611aaf565b925082820190508082111561293c5761293b6124f6565b5b92915050565b60006060820190506129576000830186611ff2565b6129646020830185611d11565b6129716040830184611d11565b949350505050565b600060208201905061298e6000830184611ff2565b9291505056fea2646970667358221220c911716f0c743abce093171dc08a9cc5ff960878f3feb64e045c0221159d673e64736f6c634300081e0033",
  "linkReferences": {},
  "deployedLinkReferences": {}
}