{
  "_format": "hh-sol-artifact-1",
  "contractName": "BingNFT",
  "sourceName": "contracts/BingNFt.sol",
  "abi": [
    {
      "inputs": [],
      "stateMutability": "nonpayable",
      "type": "constructor"
    },
    {
      "inputs": [
        {
          "internalType": "address",
          "name": "sender",
          "type": "address"
        },
        {
          "internalType": "uint256",
          "name": "balance",
          "type": "uint256"
        },
        {
          "internalType": "uint256",
          "name": "needed",
          "type": "uint256"
        },
        {
          "internalType": "uint256",
          "name": "tokenId",
          "type": "uint256"
        }
      ],
      "name": "ERC1155InsufficientBalance",
      "type": "error"
    },
    {
      "inputs": [
        {
          "internalType": "address",
          "name": "approver",
          "type": "address"
        }
      ],
      "name": "ERC1155InvalidApprover",
      "type": "error"
    },
    {
      "inputs": [
        {
          "internalType": "uint256",
          "name": "idsLength",
          "type": "uint256"
        },
        {
          "internalType": "uint256",
          "name": "valuesLength",
          "type": "uint256"
        }
      ],
      "name": "ERC1155InvalidArrayLength",
      "type": "error"
    },
    {
      "inputs": [
        {
          "internalType": "address",
          "name": "operator",
          "type": "address"
        }
      ],
      "name": "ERC1155InvalidOperator",
      "type": "error"
    },
    {
      "inputs": [
        {
          "internalType": "address",
          "name": "receiver",
          "type": "address"
        }
      ],
      "name": "ERC1155InvalidReceiver",
      "type": "error"
    },
    {
      "inputs": [
        {
          "internalType": "address",
          "name": "sender",
          "type": "address"
        }
      ],
      "name": "ERC1155InvalidSender",
      "type": "error"
    },
    {
      "inputs": [
        {
          "internalType": "address",
          "name": "operator",
          "type": "address"
        },
        {
          "internalType": "address",
          "name": "owner",
          "type": "address"
        }
      ],
      "name": "ERC1155MissingApprovalForAll",
      "type": "error"
    },
    {
      "inputs": [
        {
          "internalType": "address",
          "name": "owner",
          "type": "address"
        }
      ],
      "name": "OwnableInvalidOwner",
      "type": "error"
    },
    {
      "inputs": [
        {
          "internalType": "address",
          "name": "account",
          "type": "address"
        }
      ],
      "name": "OwnableUnauthorizedAccount",
      "type": "error"
    },
    {
      "anonymous": false,
      "inputs": [
        {
          "indexed": true,
          "internalType": "address",
          "name": "account",
          "type": "address"
        },
        {
          "indexed": true,
          "internalType": "address",
          "name": "operator",
          "type": "address"
        },
        {
          "indexed": false,
          "internalType": "bool",
          "name": "approved",
          "type": "bool"
        }
      ],
      "name": "ApprovalForAll",
      "type": "event"
    },
    {
      "anonymous": false,
      "inputs": [
        {
          "indexed": true,
          "internalType": "address",
          "name": "previousOwner",
          "type": "address"
        },
        {
          "indexed": true,
          "internalType": "address",
          "name": "newOwner",
          "type": "address"
        }
      ],
      "name": "OwnershipTransferred",
      "type": "event"
    },
    {
      "anonymous": false,
      "inputs": [
        {
          "indexed": true,
          "internalType": "address",
          "name": "operator",
          "type": "address"
        },
        {
          "indexed": true,
          "internalType": "address",
          "name": "from",
          "type": "address"
        },
        {
          "indexed": true,
          "internalType": "address",
          "name": "to",
          "type": "address"
        },
        {
          "indexed": false,
          "internalType": "uint256[]",
          "name": "ids",
          "type": "uint256[]"
        },
        {
          "indexed": false,
          "internalType": "uint256[]",
          "name": "values",
          "type": "uint256[]"
        }
      ],
      "name": "TransferBatch",
      "type": "event"
    },
    {
      "anonymous": false,
      "inputs": [
        {
          "indexed": true,
          "internalType": "address",
          "name": "operator",
          "type": "address"
        },
        {
          "indexed": true,
          "internalType": "address",
          "name": "from",
          "type": "address"
        },
        {
          "indexed": true,
          "internalType": "address",
          "name": "to",
          "type": "address"
        },
        {
          "indexed": false,
          "internalType": "uint256",
          "name": "id",
          "type": "uint256"
        },
        {
          "indexed": false,
          "internalType": "uint256",
          "name": "value",
          "type": "uint256"
        }
      ],
      "name": "TransferSingle",
      "type": "event"
    },
    {
      "anonymous": false,
      "inputs": [
        {
          "indexed": false,
          "internalType": "string",
          "name": "value",
          "type": "string"
        },
        {
          "indexed": true,
          "internalType": "uint256",
          "name": "id",
          "type": "uint256"
        }
      ],
      "name": "URI",
      "type": "event"
    },
    {
      "inputs": [
        {
          "internalType": "uint256",
          "name": "nftid",
          "type": "uint256"
        }
      ],
      "name": "BuyNFT",
      "outputs": [],
      "stateMutability": "payable",
      "type": "function"
    },
    {
      "inputs": [
        {
          "internalType": "uint256",
          "name": "nftid",
          "type": "uint256"
        },
        {
          "internalType": "uint256",
          "name": "token",
          "type": "uint256"
        },
        {
          "internalType": "uint256",
          "name": "price",
          "type": "uint256"
        }
      ],
      "name": "SellNFT",
      "outputs": [],
      "stateMutability": "nonpayable",
      "type": "function"
    },
    {
      "inputs": [
        {
          "internalType": "address",
          "name": "account",
          "type": "address"
        },
        {
          "internalType": "uint256",
          "name": "id",
          "type": "uint256"
        }
      ],
      "name": "balanceOf",
      "outputs": [
        {
          "internalType": "uint256",
          "name": "",
          "type": "uint256"
        }
      ],
      "stateMutability": "view",
      "type": "function"
    },
    {
      "inputs": [
        {
          "internalType": "address[]",
          "name": "accounts",
          "type": "address[]"
        },
        {
          "internalType": "uint256[]",
          "name": "ids",
          "type": "uint256[]"
        }
      ],
      "name": "balanceOfBatch",
      "outputs": [
        {
          "internalType": "uint256[]",
          "name": "",
          "type": "uint256[]"
        }
      ],
      "stateMutability": "view",
      "type": "function"
    },
    {
      "inputs": [
        {
          "internalType": "uint256",
          "name": "nftid",
          "type": "uint256"
        }
      ],
      "name": "cancelSale",
      "outputs": [],
      "stateMutability": "nonpayable",
      "type": "function"
    },
    {
      "inputs": [
        {
          "internalType": "address",
          "name": "user",
          "type": "address"
        }
      ],
      "name": "getAllTokenBalances",
      "outputs": [
        {
          "internalType": "uint256[]",
          "name": "tokenIds",
          "type": "uint256[]"
        },
        {
          "internalType": "uint256[]",
          "name": "balances",
          "type": "uint256[]"
        }
      ],
      "stateMutability": "view",
      "type": "function"
    },
    {
      "inputs": [
        {
          "internalType": "address",
          "name": "user",
          "type": "address"
        },
        {
          "internalType": "uint256",
          "name": "tknId",
          "type": "uint256"
        }
      ],
      "name": "getCurrentBalance",
      "outputs": [
        {
          "internalType": "uint256",
          "name": "",
          "type": "uint256"
        }
      ],
      "stateMutability": "view",
      "type": "function"
    },
    {
      "inputs": [
        {
          "internalType": "address",
          "name": "user",
          "type": "address"
        }
      ],
      "name": "getMintedTokens",
      "outputs": [
        {
          "internalType": "uint256[]",
          "name": "tokenIds",
          "type": "uint256[]"
        },
        {
          "internalType": "uint256[]",
          "name": "amounts",
          "type": "uint256[]"
        }
      ],
      "stateMutability": "view",
      "type": "function"
    },
    {
      "inputs": [
        {
          "internalType": "uint256",
          "name": "index",
          "type": "uint256"
        }
      ],
      "name": "getOwnerTokenAtIndex",
      "outputs": [
        {
          "components": [
            {
              "internalType": "uint256",
              "name": "tokenid",
              "type": "uint256"
            },
            {
              "internalType": "uint256",
              "name": "tokens",
              "type": "uint256"
            }
          ],
          "internalType": "struct BingNFT.Ownertokens",
          "name": "",
          "type": "tuple"
        }
      ],
      "stateMutability": "view",
      "type": "function"
    },
    {
      "inputs": [],
      "name": "getOwnerTokenCount",
      "outputs": [
        {
          "internalType": "uint256",
          "name": "",
          "type": "uint256"
        }
      ],
      "stateMutability": "view",
      "type": "function"
    },
    {
      "inputs": [
        {
          "internalType": "uint256",
          "name": "item",
          "type": "uint256"
        }
      ],
      "name": "getall",
      "outputs": [
        {
          "components": [
            {
              "internalType": "address",
              "name": "seller",
              "type": "address"
            },
            {
              "internalType": "uint256",
              "name": "token",
              "type": "uint256"
            },
            {
              "internalType": "uint256",
              "name": "price",
              "type": "uint256"
            }
          ],
          "internalType": "struct BingNFT.Sellstake",
          "name": "",
          "type": "tuple"
        }
      ],
      "stateMutability": "view",
      "type": "function"
    },
    {
      "inputs": [
        {
          "internalType": "address",
          "name": "account",
          "type": "address"
        },
        {
          "internalType": "address",
          "name": "operator",
          "type": "address"
        }
      ],
      "name": "isApprovedForAll",
      "outputs": [
        {
          "internalType": "bool",
          "name": "",
          "type": "bool"
        }
      ],
      "stateMutability": "view",
      "type": "function"
    },
    {
      "inputs": [
        {
          "internalType": "uint256",
          "name": "",
          "type": "uint256"
        }
      ],
      "name": "items",
      "outputs": [
        {
          "internalType": "address",
          "name": "seller",
          "type": "address"
        },
        {
          "internalType": "uint256",
          "name": "token",
          "type": "uint256"
        },
        {
          "internalType": "uint256",
          "name": "price",
          "type": "uint256"
        }
      ],
      "stateMutability": "view",
      "type": "function"
    },
    {
      "inputs": [
        {
          "internalType": "uint256",
          "name": "",
          "type": "uint256"
        }
      ],
      "name": "listNFTids",
      "outputs": [
        {
          "internalType": "uint256",
          "name": "",
          "type": "uint256"
        }
      ],
      "stateMutability": "view",
      "type": "function"
    },
    {
      "inputs": [],
      "name": "owner",
      "outputs": [
        {
          "internalType": "address",
          "name": "",
          "type": "address"
        }
      ],
      "stateMutability": "view",
      "type": "function"
    },
    {
      "inputs": [],
      "name": "ownerToken",
      "outputs": [
        {
          "components": [
            {
              "internalType": "uint256",
              "name": "tokenid",
              "type": "uint256"
            },
            {
              "internalType": "uint256",
              "name": "tokens",
              "type": "uint256"
            }
          ],
          "internalType": "struct BingNFT.Ownertokens[]",
          "name": "",
          "type": "tuple[]"
        }
      ],
      "stateMutability": "view",
      "type": "function"
    },
    {
      "inputs": [],
      "name": "renounceOwnership",
      "outputs": [],
      "stateMutability": "nonpayable",
      "type": "function"
    },
    {
      "inputs": [
        {
          "internalType": "address",
          "name": "from",
          "type": "address"
        },
        {
          "internalType": "address",
          "name": "to",
          "type": "address"
        },
        {
          "internalType": "uint256[]",
          "name": "ids",
          "type": "uint256[]"
        },
        {
          "internalType": "uint256[]",
          "name": "values",
          "type": "uint256[]"
        },
        {
          "internalType": "bytes",
          "name": "data",
          "type": "bytes"
        }
      ],
      "name": "safeBatchTransferFrom",
      "outputs": [],
      "stateMutability": "nonpayable",
      "type": "function"
    },
    {
      "inputs": [
        {
          "internalType": "address",
          "name": "from",
          "type": "address"
        },
        {
          "internalType": "address",
          "name": "to",
          "type": "address"
        },
        {
          "internalType": "uint256",
          "name": "id",
          "type": "uint256"
        },
        {
          "internalType": "uint256",
          "name": "value",
          "type": "uint256"
        },
        {
          "internalType": "bytes",
          "name": "data",
          "type": "bytes"
        }
      ],
      "name": "safeTransferFrom",
      "outputs": [],
      "stateMutability": "nonpayable",
      "type": "function"
    },
    {
      "inputs": [
        {
          "internalType": "address",
          "name": "operator",
          "type": "address"
        },
        {
          "internalType": "bool",
          "name": "approved",
          "type": "bool"
        }
      ],
      "name": "setApprovalForAll",
      "outputs": [],
      "stateMutability": "nonpayable",
      "type": "function"
    },
    {
      "inputs": [
        {
          "internalType": "string",
          "name": "newuri",
          "type": "string"
        }
      ],
      "name": "settokenURI",
      "outputs": [
        {
          "internalType": "uint256",
          "name": "",
          "type": "uint256"
        }
      ],
      "stateMutability": "nonpayable",
      "type": "function"
    },
    {
      "inputs": [
        {
          "internalType": "bytes4",
          "name": "interfaceId",
          "type": "bytes4"
        }
      ],
      "name": "supportsInterface",
      "outputs": [
        {
          "internalType": "bool",
          "name": "",
          "type": "bool"
        }
      ],
      "stateMutability": "view",
      "type": "function"
    },
    {
      "inputs": [
        {
          "internalType": "address",
          "name": "newOwner",
          "type": "address"
        }
      ],
      "name": "transferOwnership",
      "outputs": [],
      "stateMutability": "nonpayable",
      "type": "function"
    },
    {
      "inputs": [
        {
          "internalType": "uint256",
          "name": "tokenid",
          "type": "uint256"
        }
      ],
      "name": "uri",
      "outputs": [
        {
          "internalType": "string",
          "name": "",
          "type": "string"
        }
      ],
      "stateMutability": "view",
      "type": "function"
    }
  ],
  "bytecode": "0x6080604052604051806060016040528060288152602001614d75602891396009908161002b9190610485565b5034801561003857600080fd5b5033600980546100479061029e565b80601f01602080910402602001604051908101604052809291908181526020018280546100739061029e565b80156100c05780601f10610095576101008083540402835291602001916100c0565b820191906000526020600020905b8154815290600101906020018083116100a357829003601f168201915b50505050506100d48161015c60201b60201c565b50600073ffffffffffffffffffffffffffffffffffffffff168173ffffffffffffffffffffffffffffffffffffffff16036101475760006040517f1e4fbdf700000000000000000000000000000000000000000000000000000000815260040161013e9190610598565b60405180910390fd5b6101568161016f60201b60201c565b506105b3565b806002908161016b9190610485565b5050565b6000600360009054906101000a900473ffffffffffffffffffffffffffffffffffffffff16905081600360006101000a81548173ffffffffffffffffffffffffffffffffffffffff021916908373ffffffffffffffffffffffffffffffffffffffff1602179055508173ffffffffffffffffffffffffffffffffffffffff168173ffffffffffffffffffffffffffffffffffffffff167f8be0079c531659141344cd1fd0a4f28419497f9722a3daafe3b4186f6b6457e060405160405180910390a35050565b600081519050919050565b7f4e487b7100000000000000000000000000000000000000000000000000000000600052604160045260246000fd5b7f4e487b7100000000000000000000000000000000000000000000000000000000600052602260045260246000fd5b600060028204905060018216806102b657607f821691505b6020821081036102c9576102c861026f565b5b50919050565b60008190508160005260206000209050919050565b60006020601f8301049050919050565b600082821b905092915050565b6000600883026103317fffffffffffffffffffffffffffffffffffffffffffffffffffffffffffffffff826102f4565b61033b86836102f4565b95508019841693508086168417925050509392505050565b6000819050919050565b6000819050919050565b600061038261037d61037884610353565b61035d565b610353565b9050919050565b6000819050919050565b61039c83610367565b6103b06103a882610389565b848454610301565b825550505050565b600090565b6103c56103b8565b6103d0818484610393565b505050565b5b818110156103f4576103e96000826103bd565b6001810190506103d6565b5050565b601f8211156104395761040a816102cf565b610413846102e4565b81016020851015610422578190505b61043661042e856102e4565b8301826103d5565b50505b505050565b600082821c905092915050565b600061045c6000198460080261043e565b1980831691505092915050565b6000610475838361044b565b9150826002028217905092915050565b61048e82610235565b67ffffffffffffffff8111156104a7576104a6610240565b5b6104b1825461029e565b6104bc8282856103f8565b600060209050601f8311600181146104ef57600084156104dd578287015190505b6104e78582610469565b86555061054f565b601f1984166104fd866102cf565b60005b8281101561052557848901518255600182019150602085019450602081019050610500565b86831015610542578489015161053e601f89168261044b565b8355505b6001600288020188555050505b505050505050565b600073ffffffffffffffffffffffffffffffffffffffff82169050919050565b600061058282610557565b9050919050565b61059281610577565b82525050565b60006020820190506105ad6000830184610589565b92915050565b6147b3806105c26000396000f3fe60806040526004361061014a5760003560e01c806375388a0f116100b6578063cee4fcbb1161006f578063cee4fcbb146104f6578063d244cb5d14610533578063e126eb091461055c578063e985e9c514610587578063f242432a146105c4578063f2fde38b146105ed5761014a565b806375388a0f146103e15780638da5cb5b1461041e578063a22cb46514610449578063a37365e014610472578063bd94b0051461048e578063bfb231d2146104b75761014a565b8063434a49a111610108578063434a49a1146102a95780634e1273f4146102e75780636537188314610324578063681bec6c1461034f5780636d7cdad01461038d578063715018a6146103ca5761014a565b8062fdd58e1461014f57806301ffc9a71461018c5780630e89341c146101c95780631c3fcc601461020657806323a77641146102435780632eb2c2d614610280575b600080fd5b34801561015b57600080fd5b50610176600480360381019061017191906130bf565b610616565b604051610183919061310e565b60405180910390f35b34801561019857600080fd5b506101b360048036038101906101ae9190613181565b610670565b6040516101c091906131c9565b60405180910390f35b3480156101d557600080fd5b506101f060048036038101906101eb91906131e4565b610752565b6040516101fd91906132a1565b60405180910390f35b34801561021257600080fd5b5061022d600480360381019061022891906131e4565b61083e565b60405161023a9190613323565b60405180910390f35b34801561024f57600080fd5b5061026a60048036038101906102659190613473565b6108d5565b604051610277919061310e565b60405180910390f35b34801561028c57600080fd5b506102a760048036038101906102a29190613625565b6109cf565b005b3480156102b557600080fd5b506102d060048036038101906102cb91906136f4565b610a77565b6040516102de9291906137d0565b60405180910390f35b3480156102f357600080fd5b5061030e600480360381019061030991906138ca565b610c5b565b60405161031b9190613942565b60405180910390f35b34801561033057600080fd5b50610339610d64565b6040516103469190613a42565b60405180910390f35b34801561035b57600080fd5b50610376600480360381019061037191906136f4565b610e14565b6040516103849291906137d0565b60405180910390f35b34801561039957600080fd5b506103b460048036038101906103af91906131e4565b611001565b6040516103c1919061310e565b60405180910390f35b3480156103d657600080fd5b506103df611025565b005b3480156103ed57600080fd5b50610408600480360381019061040391906130bf565b611039565b604051610415919061310e565b60405180910390f35b34801561042a57600080fd5b5061043361104d565b6040516104409190613a73565b60405180910390f35b34801561045557600080fd5b50610470600480360381019061046b9190613aba565b611077565b005b61048c600480360381019061048791906131e4565b61108d565b005b34801561049a57600080fd5b506104b560048036038101906104b091906131e4565b6114e9565b005b3480156104c357600080fd5b506104de60048036038101906104d991906131e4565b6118b4565b6040516104ed93929190613afa565b60405180910390f35b34801561050257600080fd5b5061051d600480360381019061051891906131e4565b6118fe565b60405161052a9190613b60565b60405180910390f35b34801561053f57600080fd5b5061055a60048036038101906105559190613b7b565b611a0f565b005b34801561056857600080fd5b50610571611db4565b60405161057e919061310e565b60405180910390f35b34801561059357600080fd5b506105ae60048036038101906105a99190613bce565b611dfe565b6040516105bb91906131c9565b60405180910390f35b3480156105d057600080fd5b506105eb60048036038101906105e69190613c0e565b611e92565b005b3480156105f957600080fd5b50610614600480360381019061060f91906136f4565b611f3a565b005b600080600083815260200190815260200160002060008473ffffffffffffffffffffffffffffffffffffffff1673ffffffffffffffffffffffffffffffffffffffff16815260200190815260200160002054905092915050565b60007fd9b67a26000000000000000000000000000000000000000000000000000000007bffffffffffffffffffffffffffffffffffffffffffffffffffffffff1916827bffffffffffffffffffffffffffffffffffffffffffffffffffffffff1916148061073b57507f0e89341c000000000000000000000000000000000000000000000000000000007bffffffffffffffffffffffffffffffffffffffffffffffffffffffff1916827bffffffffffffffffffffffffffffffffffffffffffffffffffffffff1916145b8061074b575061074a82611fc0565b5b9050919050565b6060600060066000848152602001908152602001600020805461077490613cd4565b80601f01602080910402602001604051908101604052809291908181526020018280546107a090613cd4565b80156107ed5780601f106107c2576101008083540402835291602001916107ed565b820191906000526020600020905b8154815290600101906020018083116107d057829003601f168201915b505050505090506000815111156108075780915050610839565b60006108128461202a565b9050806040516020016108259190613dd9565b604051602081830303815290604052925050505b919050565b610846612fc6565b600460008381526020019081526020016000206040518060600160405290816000820160009054906101000a900473ffffffffffffffffffffffffffffffffffffffff1673ffffffffffffffffffffffffffffffffffffffff1673ffffffffffffffffffffffffffffffffffffffff168152602001600182015481526020016002820154815250509050919050565b60008060085490506108f933826064604051806020016040528060008152506120f8565b826006600083815260200190815260200160002090816109199190613fb2565b50600560003373ffffffffffffffffffffffffffffffffffffffff1673ffffffffffffffffffffffffffffffffffffffff16815260200190815260200160002060405180604001604052808381526020016064815250908060018154018082558091505060019003906000526020600020906002020160009091909190915060008201518160000155602082015181600101555050600860008154809291906109c1906140b3565b919050555080915050919050565b60006109d9612191565b90508073ffffffffffffffffffffffffffffffffffffffff168673ffffffffffffffffffffffffffffffffffffffff1614158015610a1e5750610a1c8682611dfe565b155b15610a625780866040517fe237d922000000000000000000000000000000000000000000000000000000008152600401610a599291906140fb565b60405180910390fd5b610a6f8686868686612199565b505050505050565b6060806000600560008573ffffffffffffffffffffffffffffffffffffffff1673ffffffffffffffffffffffffffffffffffffffff168152602001908152602001600020805480602002602001604051908101604052809291908181526020016000905b82821015610b2157838290600052602060002090600202016040518060400160405290816000820154815260200160018201548152505081526020019060010190610adb565b505050509050805167ffffffffffffffff811115610b4257610b41613348565b5b604051908082528060200260200182016040528015610b705781602001602082028036833780820191505090505b509250805167ffffffffffffffff811115610b8e57610b8d613348565b5b604051908082528060200260200182016040528015610bbc5781602001602082028036833780820191505090505b50915060005b8151811015610c5457818181518110610bde57610bdd614124565b5b602002602001015160000151848281518110610bfd57610bfc614124565b5b602002602001018181525050818181518110610c1c57610c1b614124565b5b602002602001015160200151838281518110610c3b57610c3a614124565b5b6020026020010181815250508080600101915050610bc2565b5050915091565b60608151835114610ca757815183516040517f5b059991000000000000000000000000000000000000000000000000000000008152600401610c9e929190614153565b60405180910390fd5b6000835167ffffffffffffffff811115610cc457610cc3613348565b5b604051908082528060200260200182016040528015610cf25781602001602082028036833780820191505090505b50905060005b8451811015610d5957610d2f610d17828761229190919063ffffffff16565b610d2a83876122a590919063ffffffff16565b610616565b828281518110610d4257610d41614124565b5b602002602001018181525050806001019050610cf8565b508091505092915050565b6060600560003373ffffffffffffffffffffffffffffffffffffffff1673ffffffffffffffffffffffffffffffffffffffff168152602001908152602001600020805480602002602001604051908101604052809291908181526020016000905b82821015610e0b57838290600052602060002090600202016040518060400160405290816000820154815260200160018201548152505081526020019060010190610dc5565b50505050905090565b6060806000600560008573ffffffffffffffffffffffffffffffffffffffff1673ffffffffffffffffffffffffffffffffffffffff168152602001908152602001600020805480602002602001604051908101604052809291908181526020016000905b82821015610ebe57838290600052602060002090600202016040518060400160405290816000820154815260200160018201548152505081526020019060010190610e78565b505050509050805167ffffffffffffffff811115610edf57610ede613348565b5b604051908082528060200260200182016040528015610f0d5781602001602082028036833780820191505090505b509250805167ffffffffffffffff811115610f2b57610f2a613348565b5b604051908082528060200260200182016040528015610f595781602001602082028036833780820191505090505b50915060005b8151811015610ffa57818181518110610f7b57610f7a614124565b5b602002602001015160000151848281518110610f9a57610f99614124565b5b602002602001018181525050610fce85838381518110610fbd57610fbc614124565b5b602002602001015160000151610616565b838281518110610fe157610fe0614124565b5b6020026020010181815250508080600101915050610f5f565b5050915091565b6007818154811061101157600080fd5b906000526020600020016000915090505481565b61102d6122b9565b6110376000612340565b565b60006110458383610616565b905092915050565b6000600360009054906101000a900473ffffffffffffffffffffffffffffffffffffffff16905090565b611089611082612191565b8383612406565b5050565b6000600460008381526020019081526020016000206040518060600160405290816000820160009054906101000a900473ffffffffffffffffffffffffffffffffffffffff1673ffffffffffffffffffffffffffffffffffffffff1673ffffffffffffffffffffffffffffffffffffffff1681526020016001820154815260200160028201548152505090503481604001511461115f576040517f08c379a0000000000000000000000000000000000000000000000000000000008152600401611156906141c8565b60405180910390fd5b806000015173ffffffffffffffffffffffffffffffffffffffff163373ffffffffffffffffffffffffffffffffffffffff16036111d1576040517f08c379a00000000000000000000000000000000000000000000000000000000081526004016111c890614234565b60405180910390fd5b600073ffffffffffffffffffffffffffffffffffffffff16816000015173ffffffffffffffffffffffffffffffffffffffff1603611244576040517f08c379a000000000000000000000000000000000000000000000000000000000815260040161123b906142a0565b60405180910390fd5b611264303384846020015160405180602001604052806000815250612576565b806000015173ffffffffffffffffffffffffffffffffffffffff166108fc349081150290604051600060405180830381858888f193505050501580156112ae573d6000803e3d6000fd5b506000805b600560003373ffffffffffffffffffffffffffffffffffffffff1673ffffffffffffffffffffffffffffffffffffffff168152602001908152602001600020805490508110156113f95783600560003373ffffffffffffffffffffffffffffffffffffffff1673ffffffffffffffffffffffffffffffffffffffff168152602001908152602001600020828154811061134f5761134e614124565b5b906000526020600020906002020160000154036113ec578260200151600560003373ffffffffffffffffffffffffffffffffffffffff1673ffffffffffffffffffffffffffffffffffffffff16815260200190815260200160002082815481106113bc576113bb614124565b5b906000526020600020906002020160010160008282546113dc91906142c0565b92505081905550600191506113f9565b80806001019150506112b3565b508061149757600560003373ffffffffffffffffffffffffffffffffffffffff1673ffffffffffffffffffffffffffffffffffffffff168152602001908152602001600020604051806040016040528085815260200184602001518152509080600181540180825580915050600190039060005260206000209060020201600090919091909150600082015181600001556020820151816001015550505b60046000848152602001908152602001600020600080820160006101000a81549073ffffffffffffffffffffffffffffffffffffffff0219169055600182016000905560028201600090555050505050565b6000600460008381526020019081526020016000206040518060600160405290816000820160009054906101000a900473ffffffffffffffffffffffffffffffffffffffff1673ffffffffffffffffffffffffffffffffffffffff1673ffffffffffffffffffffffffffffffffffffffff1681526020016001820154815260200160028201548152505090503373ffffffffffffffffffffffffffffffffffffffff16816000015173ffffffffffffffffffffffffffffffffffffffff16146115e7576040517f08c379a00000000000000000000000000000000000000000000000000000000081526004016115de90614340565b60405180910390fd5b600073ffffffffffffffffffffffffffffffffffffffff16816000015173ffffffffffffffffffffffffffffffffffffffff160361165a576040517f08c379a0000000000000000000000000000000000000000000000000000000008152600401611651906142a0565b60405180910390fd5b61167a303384846020015160405180602001604052806000815250612576565b6000805b600560003373ffffffffffffffffffffffffffffffffffffffff1673ffffffffffffffffffffffffffffffffffffffff168152602001908152602001600020805490508110156117c45783600560003373ffffffffffffffffffffffffffffffffffffffff1673ffffffffffffffffffffffffffffffffffffffff168152602001908152602001600020828154811061171a57611719614124565b5b906000526020600020906002020160000154036117b7578260200151600560003373ffffffffffffffffffffffffffffffffffffffff1673ffffffffffffffffffffffffffffffffffffffff168152602001908152602001600020828154811061178757611786614124565b5b906000526020600020906002020160010160008282546117a791906142c0565b92505081905550600191506117c4565b808060010191505061167e565b508061186257600560003373ffffffffffffffffffffffffffffffffffffffff1673ffffffffffffffffffffffffffffffffffffffff168152602001908152602001600020604051806040016040528085815260200184602001518152509080600181540180825580915050600190039060005260206000209060020201600090919091909150600082015181600001556020820151816001015550505b60046000848152602001908152602001600020600080820160006101000a81549073ffffffffffffffffffffffffffffffffffffffff0219169055600182016000905560028201600090555050505050565b60046020528060005260406000206000915090508060000160009054906101000a900473ffffffffffffffffffffffffffffffffffffffff16908060010154908060020154905083565b611906612ffd565b600560003373ffffffffffffffffffffffffffffffffffffffff1673ffffffffffffffffffffffffffffffffffffffff16815260200190815260200160002080549050821061198a576040517f08c379a0000000000000000000000000000000000000000000000000000000008152600401611981906143ac565b60405180910390fd5b600560003373ffffffffffffffffffffffffffffffffffffffff1673ffffffffffffffffffffffffffffffffffffffff16815260200190815260200160002082815481106119db576119da614124565b5b9060005260206000209060020201604051806040016040529081600082015481526020016001820154815250509050919050565b81611a1a3385610616565b1015611a5b576040517f08c379a0000000000000000000000000000000000000000000000000000000008152600401611a5290614418565b60405180910390fd5b60008111611a9e576040517f08c379a0000000000000000000000000000000000000000000000000000000008152600401611a9590614484565b60405180910390fd5b600073ffffffffffffffffffffffffffffffffffffffff166004600085815260200190815260200160002060000160009054906101000a900473ffffffffffffffffffffffffffffffffffffffff1673ffffffffffffffffffffffffffffffffffffffff1614611b43576040517f08c379a0000000000000000000000000000000000000000000000000000000008152600401611b3a906144f0565b60405180910390fd5b60008211611b86576040517f08c379a0000000000000000000000000000000000000000000000000000000008152600401611b7d9061455c565b60405180910390fd5b611ba23330858560405180602001604052806000815250612576565b60005b600560003373ffffffffffffffffffffffffffffffffffffffff1673ffffffffffffffffffffffffffffffffffffffff16815260200190815260200160002080549050811015611ce35783600560003373ffffffffffffffffffffffffffffffffffffffff1673ffffffffffffffffffffffffffffffffffffffff1681526020019081526020016000208281548110611c4157611c40614124565b5b90600052602060002090600202016000015403611cd65782600560003373ffffffffffffffffffffffffffffffffffffffff1673ffffffffffffffffffffffffffffffffffffffff1681526020019081526020016000208281548110611caa57611ca9614124565b5b90600052602060002090600202016001016000828254611cca919061457c565b92505081905550611ce3565b8080600101915050611ba5565b5060405180606001604052803373ffffffffffffffffffffffffffffffffffffffff168152602001838152602001828152506004600085815260200190815260200160002060008201518160000160006101000a81548173ffffffffffffffffffffffffffffffffffffffff021916908373ffffffffffffffffffffffffffffffffffffffff16021790555060208201518160010155604082015181600201559050506007839080600181540180825580915050600190039060005260206000200160009091909190915055505050565b6000600560003373ffffffffffffffffffffffffffffffffffffffff1673ffffffffffffffffffffffffffffffffffffffff16815260200190815260200160002080549050905090565b6000600160008473ffffffffffffffffffffffffffffffffffffffff1673ffffffffffffffffffffffffffffffffffffffff16815260200190815260200160002060008373ffffffffffffffffffffffffffffffffffffffff1673ffffffffffffffffffffffffffffffffffffffff16815260200190815260200160002060009054906101000a900460ff16905092915050565b6000611e9c612191565b90508073ffffffffffffffffffffffffffffffffffffffff168673ffffffffffffffffffffffffffffffffffffffff1614158015611ee15750611edf8682611dfe565b155b15611f255780866040517fe237d922000000000000000000000000000000000000000000000000000000008152600401611f1c9291906140fb565b60405180910390fd5b611f328686868686612576565b505050505050565b611f426122b9565b600073ffffffffffffffffffffffffffffffffffffffff168173ffffffffffffffffffffffffffffffffffffffff1603611fb45760006040517f1e4fbdf7000000000000000000000000000000000000000000000000000000008152600401611fab9190613a73565b60405180910390fd5b611fbd81612340565b50565b60007f01ffc9a7000000000000000000000000000000000000000000000000000000007bffffffffffffffffffffffffffffffffffffffffffffffffffffffff1916827bffffffffffffffffffffffffffffffffffffffffffffffffffffffff1916149050919050565b60606000600161203984612681565b01905060008167ffffffffffffffff81111561205857612057613348565b5b6040519080825280601f01601f19166020018201604052801561208a5781602001600182028036833780820191505090505b509050600082602001820190505b6001156120ed578080600190039150507f3031323334353637383961626364656600000000000000000000000000000000600a86061a8153600a85816120e1576120e06145b0565b5b04945060008503612098575b819350505050919050565b600073ffffffffffffffffffffffffffffffffffffffff168473ffffffffffffffffffffffffffffffffffffffff160361216a5760006040517f57f447ce0000000000000000000000000000000000000000000000000000000081526004016121619190613a73565b60405180910390fd5b60008061217785856127d4565b91509150612189600087848487612804565b505050505050565b600033905090565b600073ffffffffffffffffffffffffffffffffffffffff168473ffffffffffffffffffffffffffffffffffffffff160361220b5760006040517f57f447ce0000000000000000000000000000000000000000000000000000000081526004016122029190613a73565b60405180910390fd5b600073ffffffffffffffffffffffffffffffffffffffff168573ffffffffffffffffffffffffffffffffffffffff160361227d5760006040517f01a835140000000000000000000000000000000000000000000000000000000081526004016122749190613a73565b60405180910390fd5b61228a8585858585612804565b5050505050565b600060208202602084010151905092915050565b600060208202602084010151905092915050565b6122c1612191565b73ffffffffffffffffffffffffffffffffffffffff166122df61104d565b73ffffffffffffffffffffffffffffffffffffffff161461233e57612302612191565b6040517f118cdaa70000000000000000000000000000000000000000000000000000000081526004016123359190613a73565b60405180910390fd5b565b6000600360009054906101000a900473ffffffffffffffffffffffffffffffffffffffff16905081600360006101000a81548173ffffffffffffffffffffffffffffffffffffffff021916908373ffffffffffffffffffffffffffffffffffffffff1602179055508173ffffffffffffffffffffffffffffffffffffffff168173ffffffffffffffffffffffffffffffffffffffff167f8be0079c531659141344cd1fd0a4f28419497f9722a3daafe3b4186f6b6457e060405160405180910390a35050565b600073ffffffffffffffffffffffffffffffffffffffff168273ffffffffffffffffffffffffffffffffffffffff16036124785760006040517fced3e10000000000000000000000000000000000000000000000000000000000815260040161246f9190613a73565b60405180910390fd5b80600160008573ffffffffffffffffffffffffffffffffffffffff1673ffffffffffffffffffffffffffffffffffffffff16815260200190815260200160002060008473ffffffffffffffffffffffffffffffffffffffff1673ffffffffffffffffffffffffffffffffffffffff16815260200190815260200160002060006101000a81548160ff0219169083151502179055508173ffffffffffffffffffffffffffffffffffffffff168373ffffffffffffffffffffffffffffffffffffffff167f17307eab39ab6107e8899845ad3d59bd9653f200f220920489ca2b5937696c318360405161256991906131c9565b60405180910390a3505050565b600073ffffffffffffffffffffffffffffffffffffffff168473ffffffffffffffffffffffffffffffffffffffff16036125e85760006040517f57f447ce0000000000000000000000000000000000000000000000000000000081526004016125df9190613a73565b60405180910390fd5b600073ffffffffffffffffffffffffffffffffffffffff168573ffffffffffffffffffffffffffffffffffffffff160361265a5760006040517f01a835140000000000000000000000000000000000000000000000000000000081526004016126519190613a73565b60405180910390fd5b60008061266785856127d4565b915091506126788787848487612804565b50505050505050565b600080600090507a184f03e93ff9f4daa797ed6e38ed64bf6a1f01000000000000000083106126df577a184f03e93ff9f4daa797ed6e38ed64bf6a1f01000000000000000083816126d5576126d46145b0565b5b0492506040810190505b6d04ee2d6d415b85acef8100000000831061271c576d04ee2d6d415b85acef81000000008381612712576127116145b0565b5b0492506020810190505b662386f26fc10000831061274b57662386f26fc100008381612741576127406145b0565b5b0492506010810190505b6305f5e1008310612774576305f5e100838161276a576127696145b0565b5b0492506008810190505b612710831061279957612710838161278f5761278e6145b0565b5b0492506004810190505b606483106127bc57606483816127b2576127b16145b0565b5b0492506002810190505b600a83106127cb576001810190505b80915050919050565b60608060405191506001825283602083015260408201905060018152826020820152604081016040529250929050565b612810858585856128b6565b600073ffffffffffffffffffffffffffffffffffffffff168473ffffffffffffffffffffffffffffffffffffffff16146128af57600061284e612191565b9050600184510361289e57600061286f6000866122a590919063ffffffff16565b905060006128876000866122a590919063ffffffff16565b9050612897838989858589612c5e565b50506128ad565b6128ac818787878787612e12565b5b505b5050505050565b805182511461290057815181516040517f5b0599910000000000000000000000000000000000000000000000000000000081526004016128f7929190614153565b60405180910390fd5b600061290a612191565b905060005b8351811015612b1957600061292d82866122a590919063ffffffff16565b9050600061294483866122a590919063ffffffff16565b9050600073ffffffffffffffffffffffffffffffffffffffff168873ffffffffffffffffffffffffffffffffffffffff1614612a7157600080600084815260200190815260200160002060008a73ffffffffffffffffffffffffffffffffffffffff1673ffffffffffffffffffffffffffffffffffffffff16815260200190815260200160002054905081811015612a1957888183856040517f03dee4c5000000000000000000000000000000000000000000000000000000008152600401612a1094939291906145df565b60405180910390fd5b81810360008085815260200190815260200160002060008b73ffffffffffffffffffffffffffffffffffffffff1673ffffffffffffffffffffffffffffffffffffffff16815260200190815260200160002081905550505b600073ffffffffffffffffffffffffffffffffffffffff168773ffffffffffffffffffffffffffffffffffffffff1614612b0c578060008084815260200190815260200160002060008973ffffffffffffffffffffffffffffffffffffffff1673ffffffffffffffffffffffffffffffffffffffff1681526020019081526020016000206000828254612b0491906142c0565b925050819055505b505080600101905061290f565b506001835103612bd8576000612b396000856122a590919063ffffffff16565b90506000612b516000856122a590919063ffffffff16565b90508573ffffffffffffffffffffffffffffffffffffffff168773ffffffffffffffffffffffffffffffffffffffff168473ffffffffffffffffffffffffffffffffffffffff167fc3d58168c5ae7397731d063d5bbf3d657854427343f4c083240f7aacaa2d0f628585604051612bc9929190614153565b60405180910390a45050612c57565b8373ffffffffffffffffffffffffffffffffffffffff168573ffffffffffffffffffffffffffffffffffffffff168273ffffffffffffffffffffffffffffffffffffffff167f4a39dc06d4c0dbc64b70af90fd698a233a518aa5d07e595d983b8c0526c8f7fb8686604051612c4e9291906137d0565b60405180910390a45b5050505050565b60008473ffffffffffffffffffffffffffffffffffffffff163b1115612e0a578373ffffffffffffffffffffffffffffffffffffffff1663f23a6e6187878686866040518663ffffffff1660e01b8152600401612cbf959493929190614679565b6020604051808303816000875af1925050508015612cfb57506040513d601f19601f82011682018060405250810190612cf891906146e8565b60015b612d7f573d8060008114612d2b576040519150601f19603f3d011682016040523d82523d6000602084013e612d30565b606091505b506000815103612d7757846040517f57f447ce000000000000000000000000000000000000000000000000000000008152600401612d6e9190613a73565b60405180910390fd5b805181602001fd5b63f23a6e6160e01b7bffffffffffffffffffffffffffffffffffffffffffffffffffffffff1916817bffffffffffffffffffffffffffffffffffffffffffffffffffffffff191614612e0857846040517f57f447ce000000000000000000000000000000000000000000000000000000008152600401612dff9190613a73565b60405180910390fd5b505b505050505050565b60008473ffffffffffffffffffffffffffffffffffffffff163b1115612fbe578373ffffffffffffffffffffffffffffffffffffffff1663bc197c8187878686866040518663ffffffff1660e01b8152600401612e73959493929190614715565b6020604051808303816000875af1925050508015612eaf57506040513d601f19601f82011682018060405250810190612eac91906146e8565b60015b612f33573d8060008114612edf576040519150601f19603f3d011682016040523d82523d6000602084013e612ee4565b606091505b506000815103612f2b57846040517f57f447ce000000000000000000000000000000000000000000000000000000008152600401612f229190613a73565b60405180910390fd5b805181602001fd5b63bc197c8160e01b7bffffffffffffffffffffffffffffffffffffffffffffffffffffffff1916817bffffffffffffffffffffffffffffffffffffffffffffffffffffffff191614612fbc57846040517f57f447ce000000000000000000000000000000000000000000000000000000008152600401612fb39190613a73565b60405180910390fd5b505b505050505050565b6040518060600160405280600073ffffffffffffffffffffffffffffffffffffffff16815260200160008152602001600081525090565b604051806040016040528060008152602001600081525090565b6000604051905090565b600080fd5b600080fd5b600073ffffffffffffffffffffffffffffffffffffffff82169050919050565b60006130568261302b565b9050919050565b6130668161304b565b811461307157600080fd5b50565b6000813590506130838161305d565b92915050565b6000819050919050565b61309c81613089565b81146130a757600080fd5b50565b6000813590506130b981613093565b92915050565b600080604083850312156130d6576130d5613021565b5b60006130e485828601613074565b92505060206130f5858286016130aa565b9150509250929050565b61310881613089565b82525050565b600060208201905061312360008301846130ff565b92915050565b60007fffffffff0000000000000000000000000000000000000000000000000000000082169050919050565b61315e81613129565b811461316957600080fd5b50565b60008135905061317b81613155565b92915050565b60006020828403121561319757613196613021565b5b60006131a58482850161316c565b91505092915050565b60008115159050919050565b6131c3816131ae565b82525050565b60006020820190506131de60008301846131ba565b92915050565b6000602082840312156131fa576131f9613021565b5b6000613208848285016130aa565b91505092915050565b600081519050919050565b600082825260208201905092915050565b60005b8381101561324b578082015181840152602081019050613230565b60008484015250505050565b6000601f19601f8301169050919050565b600061327382613211565b61327d818561321c565b935061328d81856020860161322d565b61329681613257565b840191505092915050565b600060208201905081810360008301526132bb8184613268565b905092915050565b6132cc8161304b565b82525050565b6132db81613089565b82525050565b6060820160008201516132f760008501826132c3565b50602082015161330a60208501826132d2565b50604082015161331d60408501826132d2565b50505050565b600060608201905061333860008301846132e1565b92915050565b600080fd5b600080fd5b7f4e487b7100000000000000000000000000000000000000000000000000000000600052604160045260246000fd5b61338082613257565b810181811067ffffffffffffffff8211171561339f5761339e613348565b5b80604052505050565b60006133b2613017565b90506133be8282613377565b919050565b600067ffffffffffffffff8211156133de576133dd613348565b5b6133e782613257565b9050602081019050919050565b82818337600083830152505050565b6000613416613411846133c3565b6133a8565b90508281526020810184848401111561343257613431613343565b5b61343d8482856133f4565b509392505050565b600082601f83011261345a5761345961333e565b5b813561346a848260208601613403565b91505092915050565b60006020828403121561348957613488613021565b5b600082013567ffffffffffffffff8111156134a7576134a6613026565b5b6134b384828501613445565b91505092915050565b600067ffffffffffffffff8211156134d7576134d6613348565b5b602082029050602081019050919050565b600080fd5b60006135006134fb846134bc565b6133a8565b90508083825260208201905060208402830185811115613523576135226134e8565b5b835b8181101561354c578061353888826130aa565b845260208401935050602081019050613525565b5050509392505050565b600082601f83011261356b5761356a61333e565b5b813561357b8482602086016134ed565b91505092915050565b600067ffffffffffffffff82111561359f5761359e613348565b5b6135a882613257565b9050602081019050919050565b60006135c86135c384613584565b6133a8565b9050828152602081018484840111156135e4576135e3613343565b5b6135ef8482856133f4565b509392505050565b600082601f83011261360c5761360b61333e565b5b813561361c8482602086016135b5565b91505092915050565b600080600080600060a0868803121561364157613640613021565b5b600061364f88828901613074565b955050602061366088828901613074565b945050604086013567ffffffffffffffff81111561368157613680613026565b5b61368d88828901613556565b935050606086013567ffffffffffffffff8111156136ae576136ad613026565b5b6136ba88828901613556565b925050608086013567ffffffffffffffff8111156136db576136da613026565b5b6136e7888289016135f7565b9150509295509295909350565b60006020828403121561370a57613709613021565b5b600061371884828501613074565b91505092915050565b600081519050919050565b600082825260208201905092915050565b6000819050602082019050919050565b600061375983836132d2565b60208301905092915050565b6000602082019050919050565b600061377d82613721565b613787818561372c565b93506137928361373d565b8060005b838110156137c35781516137aa888261374d565b97506137b583613765565b925050600181019050613796565b5085935050505092915050565b600060408201905081810360008301526137ea8185613772565b905081810360208301526137fe8184613772565b90509392505050565b600067ffffffffffffffff82111561382257613821613348565b5b602082029050602081019050919050565b600061384661384184613807565b6133a8565b90508083825260208201905060208402830185811115613869576138686134e8565b5b835b81811015613892578061387e8882613074565b84526020840193505060208101905061386b565b5050509392505050565b600082601f8301126138b1576138b061333e565b5b81356138c1848260208601613833565b91505092915050565b600080604083850312156138e1576138e0613021565b5b600083013567ffffffffffffffff8111156138ff576138fe613026565b5b61390b8582860161389c565b925050602083013567ffffffffffffffff81111561392c5761392b613026565b5b61393885828601613556565b9150509250929050565b6000602082019050818103600083015261395c8184613772565b905092915050565b600081519050919050565b600082825260208201905092915050565b6000819050602082019050919050565b6040820160008201516139a660008501826132d2565b5060208201516139b960208501826132d2565b50505050565b60006139cb8383613990565b60408301905092915050565b6000602082019050919050565b60006139ef82613964565b6139f9818561396f565b9350613a0483613980565b8060005b83811015613a35578151613a1c88826139bf565b9750613a27836139d7565b925050600181019050613a08565b5085935050505092915050565b60006020820190508181036000830152613a5c81846139e4565b905092915050565b613a6d8161304b565b82525050565b6000602082019050613a886000830184613a64565b92915050565b613a97816131ae565b8114613aa257600080fd5b50565b600081359050613ab481613a8e565b92915050565b60008060408385031215613ad157613ad0613021565b5b6000613adf85828601613074565b9250506020613af085828601613aa5565b9150509250929050565b6000606082019050613b0f6000830186613a64565b613b1c60208301856130ff565b613b2960408301846130ff565b949350505050565b604082016000820151613b4760008501826132d2565b506020820151613b5a60208501826132d2565b50505050565b6000604082019050613b756000830184613b31565b92915050565b600080600060608486031215613b9457613b93613021565b5b6000613ba2868287016130aa565b9350506020613bb3868287016130aa565b9250506040613bc4868287016130aa565b9150509250925092565b60008060408385031215613be557613be4613021565b5b6000613bf385828601613074565b9250506020613c0485828601613074565b9150509250929050565b600080600080600060a08688031215613c2a57613c29613021565b5b6000613c3888828901613074565b9550506020613c4988828901613074565b9450506040613c5a888289016130aa565b9350506060613c6b888289016130aa565b925050608086013567ffffffffffffffff811115613c8c57613c8b613026565b5b613c98888289016135f7565b9150509295509295909350565b7f4e487b7100000000000000000000000000000000000000000000000000000000600052602260045260246000fd5b60006002820490506001821680613cec57607f821691505b602082108103613cff57613cfe613ca5565b5b50919050565b600081905092915050565b7f68747470733a2f2f6d7970726f6a6563742e636f6d2f6d657461646174612f00600082015250565b6000613d46601f83613d05565b9150613d5182613d10565b601f82019050919050565b6000613d6782613211565b613d718185613d05565b9350613d8181856020860161322d565b80840191505092915050565b7f2e6a736f6e000000000000000000000000000000000000000000000000000000600082015250565b6000613dc3600583613d05565b9150613dce82613d8d565b600582019050919050565b6000613de482613d39565b9150613df08284613d5c565b9150613dfb82613db6565b915081905092915050565b60008190508160005260206000209050919050565b60006020601f8301049050919050565b600082821b905092915050565b600060088302613e687fffffffffffffffffffffffffffffffffffffffffffffffffffffffffffffffff82613e2b565b613e728683613e2b565b95508019841693508086168417925050509392505050565b6000819050919050565b6000613eaf613eaa613ea584613089565b613e8a565b613089565b9050919050565b6000819050919050565b613ec983613e94565b613edd613ed582613eb6565b848454613e38565b825550505050565b600090565b613ef2613ee5565b613efd818484613ec0565b505050565b5b81811015613f2157613f16600082613eea565b600181019050613f03565b5050565b601f821115613f6657613f3781613e06565b613f4084613e1b565b81016020851015613f4f578190505b613f63613f5b85613e1b565b830182613f02565b50505b505050565b600082821c905092915050565b6000613f8960001984600802613f6b565b1980831691505092915050565b6000613fa28383613f78565b9150826002028217905092915050565b613fbb82613211565b67ffffffffffffffff811115613fd457613fd3613348565b5b613fde8254613cd4565b613fe9828285613f25565b600060209050601f83116001811461401c576000841561400a578287015190505b6140148582613f96565b86555061407c565b601f19841661402a86613e06565b60005b828110156140525784890151825560018201915060208501945060208101905061402d565b8683101561406f578489015161406b601f891682613f78565b8355505b6001600288020188555050505b505050505050565b7f4e487b7100000000000000000000000000000000000000000000000000000000600052601160045260246000fd5b60006140be82613089565b91507fffffffffffffffffffffffffffffffffffffffffffffffffffffffffffffffff82036140f0576140ef614084565b5b600182019050919050565b60006040820190506141106000830185613a64565b61411d6020830184613a64565b9392505050565b7f4e487b7100000000000000000000000000000000000000000000000000000000600052603260045260246000fd5b600060408201905061416860008301856130ff565b61417560208301846130ff565b9392505050565b7f496e636f72726563742070726963650000000000000000000000000000000000600082015250565b60006141b2600f8361321c565b91506141bd8261417c565b602082019050919050565b600060208201905081810360008301526141e1816141a5565b9050919050565b7f43616e6e6f742062757920796f7572206f776e204e4654000000000000000000600082015250565b600061421e60178361321c565b9150614229826141e8565b602082019050919050565b6000602082019050818103600083015261424d81614211565b9050919050565b7f4e4654206e6f7420666f722073616c6500000000000000000000000000000000600082015250565b600061428a60108361321c565b915061429582614254565b602082019050919050565b600060208201905081810360008301526142b98161427d565b9050919050565b60006142cb82613089565b91506142d683613089565b92508282019050808211156142ee576142ed614084565b5b92915050565b7f4f6e6c792073656c6c65722063616e2063616e63656c00000000000000000000600082015250565b600061432a60168361321c565b9150614335826142f4565b602082019050919050565b600060208201905081810360008301526143598161431d565b9050919050565b7f496e646578206f7574206f6620626f756e647300000000000000000000000000600082015250565b600061439660138361321c565b91506143a182614360565b602082019050919050565b600060208201905081810360008301526143c581614389565b9050919050565b7f496e73756666696369656e7420746f6b656e7300000000000000000000000000600082015250565b600061440260138361321c565b915061440d826143cc565b602082019050919050565b60006020820190508181036000830152614431816143f5565b9050919050565b7f5072696365206d7573742062652067726561746572207468616e203000000000600082015250565b600061446e601c8361321c565b915061447982614438565b602082019050919050565b6000602082019050818103600083015261449d81614461565b9050919050565b7f4e465420616c726561647920666f722073616c65000000000000000000000000600082015250565b60006144da60148361321c565b91506144e5826144a4565b602082019050919050565b60006020820190508181036000830152614509816144cd565b9050919050565b7f4d7573742073656c6c206174206c65617374203120746f6b656e000000000000600082015250565b6000614546601a8361321c565b915061455182614510565b602082019050919050565b6000602082019050818103600083015261457581614539565b9050919050565b600061458782613089565b915061459283613089565b92508282039050818111156145aa576145a9614084565b5b92915050565b7f4e487b7100000000000000000000000000000000000000000000000000000000600052601260045260246000fd5b60006080820190506145f46000830187613a64565b61460160208301866130ff565b61460e60408301856130ff565b61461b60608301846130ff565b95945050505050565b600081519050919050565b600082825260208201905092915050565b600061464b82614624565b614655818561462f565b935061466581856020860161322d565b61466e81613257565b840191505092915050565b600060a08201905061468e6000830188613a64565b61469b6020830187613a64565b6146a860408301866130ff565b6146b560608301856130ff565b81810360808301526146c78184614640565b90509695505050505050565b6000815190506146e281613155565b92915050565b6000602082840312156146fe576146fd613021565b5b600061470c848285016146d3565b91505092915050565b600060a08201905061472a6000830188613a64565b6147376020830187613a64565b81810360408301526147498186613772565b9050818103606083015261475d8185613772565b905081810360808301526147718184614640565b9050969550505050505056fea26469706673582212207976f9481efc0dbc07150d293bd4ad3df51aa42a1acbc37afb7d90eedf900ba064736f6c634300081e003368747470733a2f2f6d7970726f6a6563742e636f6d2f6d657461646174612f7b69647d2e6a736f6e",
  "linkReferences": {},
  "deployedLinkReferences": {}
}