{
  "_format": "hh-sol-artifact-1",
  "contractName": "Digimon",
  "sourceName": "contracts/Digimon.sol",
  "abi": [
    {
      "inputs": [
        {
          "internalType": "string",
          "name": "name",
          "type": "string"
        },
        {
          "internalType": "string",
          "name": "symbol",
          "type": "string"
        }
      ],
      "stateMutability": "nonpayable",
      "type": "constructor"
    },
    {
      "inputs": [
        {
          "internalType": "address",
          "name": "spender",
          "type": "address"
        },
        {
          "internalType": "uint256",
          "name": "allowance",
          "type": "uint256"
        },
        {
          "internalType": "uint256",
          "name": "needed",
          "type": "uint256"
        }
      ],
      "name": "ERC20InsufficientAllowance",
      "type": "error"
    },
    {
      "inputs": [
        {
          "internalType": "address",
          "name": "sender",
          "type": "address"
        },
        {
          "internalType": "uint256",
          "name": "balance",
          "type": "uint256"
        },
        {
          "internalType": "uint256",
          "name": "needed",
          "type": "uint256"
        }
      ],
      "name": "ERC20InsufficientBalance",
      "type": "error"
    },
    {
      "inputs": [
        {
          "internalType": "address",
          "name": "approver",
          "type": "address"
        }
      ],
      "name": "ERC20InvalidApprover",
      "type": "error"
    },
    {
      "inputs": [
        {
          "internalType": "address",
          "name": "receiver",
          "type": "address"
        }
      ],
      "name": "ERC20InvalidReceiver",
      "type": "error"
    },
    {
      "inputs": [
        {
          "internalType": "address",
          "name": "sender",
          "type": "address"
        }
      ],
      "name": "ERC20InvalidSender",
      "type": "error"
    },
    {
      "inputs": [
        {
          "internalType": "address",
          "name": "spender",
          "type": "address"
        }
      ],
      "name": "ERC20InvalidSpender",
      "type": "error"
    },
    {
      "anonymous": false,
      "inputs": [
        {
          "indexed": true,
          "internalType": "address",
          "name": "owner",
          "type": "address"
        },
        {
          "indexed": true,
          "internalType": "address",
          "name": "spender",
          "type": "address"
        },
        {
          "indexed": false,
          "internalType": "uint256",
          "name": "value",
          "type": "uint256"
        }
      ],
      "name": "Approval",
      "type": "event"
    },
    {
      "anonymous": false,
      "inputs": [
        {
          "indexed": true,
          "internalType": "address",
          "name": "buyer",
          "type": "address"
        },
        {
          "indexed": false,
          "internalType": "string",
          "name": "name",
          "type": "string"
        },
        {
          "indexed": false,
          "internalType": "string",
          "name": "url",
          "type": "string"
        }
      ],
      "name": "DigimonEvent",
      "type": "event"
    },
    {
      "anonymous": false,
      "inputs": [
        {
          "indexed": true,
          "internalType": "address",
          "name": "from",
          "type": "address"
        },
        {
          "indexed": true,
          "internalType": "address",
          "name": "to",
          "type": "address"
        },
        {
          "indexed": false,
          "internalType": "uint256",
          "name": "value",
          "type": "uint256"
        }
      ],
      "name": "Transfer",
      "type": "event"
    },
    {
      "inputs": [
        {
          "internalType": "address",
          "name": "owner",
          "type": "address"
        },
        {
          "internalType": "address",
          "name": "spender",
          "type": "address"
        }
      ],
      "name": "allowance",
      "outputs": [
        {
          "internalType": "uint256",
          "name": "",
          "type": "uint256"
        }
      ],
      "stateMutability": "view",
      "type": "function"
    },
    {
      "inputs": [
        {
          "internalType": "address",
          "name": "spender",
          "type": "address"
        },
        {
          "internalType": "uint256",
          "name": "value",
          "type": "uint256"
        }
      ],
      "name": "approve",
      "outputs": [
        {
          "internalType": "bool",
          "name": "",
          "type": "bool"
        }
      ],
      "stateMutability": "nonpayable",
      "type": "function"
    },
    {
      "inputs": [
        {
          "internalType": "address",
          "name": "account",
          "type": "address"
        }
      ],
      "name": "balanceOf",
      "outputs": [
        {
          "internalType": "uint256",
          "name": "",
          "type": "uint256"
        }
      ],
      "stateMutability": "view",
      "type": "function"
    },
    {
      "inputs": [],
      "name": "buyDigimon",
      "outputs": [],
      "stateMutability": "nonpayable",
      "type": "function"
    },
    {
      "inputs": [],
      "name": "decimals",
      "outputs": [
        {
          "internalType": "uint8",
          "name": "",
          "type": "uint8"
        }
      ],
      "stateMutability": "view",
      "type": "function"
    },
    {
      "inputs": [],
      "name": "getDigimons",
      "outputs": [
        {
          "components": [
            {
              "internalType": "string",
              "name": "name",
              "type": "string"
            },
            {
              "internalType": "string",
              "name": "url",
              "type": "string"
            }
          ],
          "internalType": "struct Digimon.Dig[]",
          "name": "",
          "type": "tuple[]"
        }
      ],
      "stateMutability": "view",
      "type": "function"
    },
    {
      "inputs": [],
      "name": "getMyDigimons",
      "outputs": [
        {
          "components": [
            {
              "internalType": "string",
              "name": "name",
              "type": "string"
            },
            {
              "internalType": "string",
              "name": "url",
              "type": "string"
            }
          ],
          "internalType": "struct Digimon.Dig[]",
          "name": "",
          "type": "tuple[]"
        }
      ],
      "stateMutability": "view",
      "type": "function"
    },
    {
      "inputs": [],
      "name": "name",
      "outputs": [
        {
          "internalType": "string",
          "name": "",
          "type": "string"
        }
      ],
      "stateMutability": "view",
      "type": "function"
    },
    {
      "inputs": [],
      "name": "symbol",
      "outputs": [
        {
          "internalType": "string",
          "name": "",
          "type": "string"
        }
      ],
      "stateMutability": "view",
      "type": "function"
    },
    {
      "inputs": [],
      "name": "totalSupply",
      "outputs": [
        {
          "internalType": "uint256",
          "name": "",
          "type": "uint256"
        }
      ],
      "stateMutability": "view",
      "type": "function"
    },
    {
      "inputs": [
        {
          "internalType": "address",
          "name": "to",
          "type": "address"
        },
        {
          "internalType": "uint256",
          "name": "value",
          "type": "uint256"
        }
      ],
      "name": "transfer",
      "outputs": [
        {
          "internalType": "bool",
          "name": "",
          "type": "bool"
        }
      ],
      "stateMutability": "nonpayable",
      "type": "function"
    },
    {
      "inputs": [
        {
          "internalType": "address",
          "name": "from",
          "type": "address"
        },
        {
          "internalType": "address",
          "name": "to",
          "type": "address"
        },
        {
          "internalType": "uint256",
          "name": "value",
          "type": "uint256"
        }
      ],
      "name": "transferFrom",
      "outputs": [
        {
          "internalType": "bool",
          "name": "",
          "type": "bool"
        }
      ],
      "stateMutability": "nonpayable",
      "type": "function"
    }
  ],
  "bytecode": "0x608060405234801561001057600080fd5b506040516127dc3803806127dc833981810160405281019061003291906106ee565b818181600390816100439190610987565b5080600490816100539190610987565b50505061008b336100686102c360201b60201c565b600a6100749190610bc8565b60646100809190610c13565b6102cc60201b60201c565b600560405180604001604052806040518060400160405280600981526020017f666c616472616d6f6e0000000000000000000000000000000000000000000000815250815260200160405180606001604052806031815260200161274e603191398152509080600181540180825580915050600190039060005260206000209060020201600090919091909150600082015181600001908161012d9190610987565b5060208201518160010190816101439190610987565b505050600560405180604001604052806040518060400160405280600881526020017f78697175656d6f6e00000000000000000000000000000000000000000000000081525081526020016040518060600160405280603081526020016127ac60309139815250908060018154018082558091505060019003906000526020600020906002020160009091909190915060008201518160000190816101e89190610987565b5060208201518160010190816101fe9190610987565b505050600560405180604001604052806040518060400160405280600481526020017f566d6f6e0000000000000000000000000000000000000000000000000000000081525081526020016040518060600160405280602d815260200161277f602d9139815250908060018154018082558091505060019003906000526020600020906002020160009091909190915060008201518160000190816102a39190610987565b5060208201518160010190816102b99190610987565b5050505050610d46565b60006012905090565b600073ffffffffffffffffffffffffffffffffffffffff168273ffffffffffffffffffffffffffffffffffffffff160361033e5760006040517fec442f050000000000000000000000000000000000000000000000000000000081526004016103359190610c96565b60405180910390fd5b6103506000838361035460201b60201c565b5050565b600073ffffffffffffffffffffffffffffffffffffffff168373ffffffffffffffffffffffffffffffffffffffff16036103a657806002600082825461039a9190610cb1565b92505081905550610479565b60008060008573ffffffffffffffffffffffffffffffffffffffff1673ffffffffffffffffffffffffffffffffffffffff16815260200190815260200160002054905081811015610432578381836040517fe450d38c00000000000000000000000000000000000000000000000000000000815260040161042993929190610cf4565b60405180910390fd5b8181036000808673ffffffffffffffffffffffffffffffffffffffff1673ffffffffffffffffffffffffffffffffffffffff16815260200190815260200160002081905550505b600073ffffffffffffffffffffffffffffffffffffffff168273ffffffffffffffffffffffffffffffffffffffff16036104c2578060026000828254039250508190555061050f565b806000808473ffffffffffffffffffffffffffffffffffffffff1673ffffffffffffffffffffffffffffffffffffffff168152602001908152602001600020600082825401925050819055505b8173ffffffffffffffffffffffffffffffffffffffff168373ffffffffffffffffffffffffffffffffffffffff167fddf252ad1be2c89b69c2b068fc378daa952ba7f163c4a11628f55a4df523b3ef8360405161056c9190610d2b565b60405180910390a3505050565b6000604051905090565b600080fd5b600080fd5b600080fd5b600080fd5b6000601f19601f8301169050919050565b7f4e487b7100000000000000000000000000000000000000000000000000000000600052604160045260246000fd5b6105e082610597565b810181811067ffffffffffffffff821117156105ff576105fe6105a8565b5b80604052505050565b6000610612610579565b905061061e82826105d7565b919050565b600067ffffffffffffffff82111561063e5761063d6105a8565b5b61064782610597565b9050602081019050919050565b60005b83811015610672578082015181840152602081019050610657565b60008484015250505050565b600061069161068c84610623565b610608565b9050828152602081018484840111156106ad576106ac610592565b5b6106b8848285610654565b509392505050565b600082601f8301126106d5576106d461058d565b5b81516106e584826020860161067e565b91505092915050565b6000806040838503121561070557610704610583565b5b600083015167ffffffffffffffff81111561072357610722610588565b5b61072f858286016106c0565b925050602083015167ffffffffffffffff8111156107505761074f610588565b5b61075c858286016106c0565b9150509250929050565b600081519050919050565b7f4e487b7100000000000000000000000000000000000000000000000000000000600052602260045260246000fd5b600060028204905060018216806107b857607f821691505b6020821081036107cb576107ca610771565b5b50919050565b60008190508160005260206000209050919050565b60006020601f8301049050919050565b600082821b905092915050565b6000600883026108337fffffffffffffffffffffffffffffffffffffffffffffffffffffffffffffffff826107f6565b61083d86836107f6565b95508019841693508086168417925050509392505050565b6000819050919050565b6000819050919050565b600061088461087f61087a84610855565b61085f565b610855565b9050919050565b6000819050919050565b61089e83610869565b6108b26108aa8261088b565b848454610803565b825550505050565b600090565b6108c76108ba565b6108d2818484610895565b505050565b5b818110156108f6576108eb6000826108bf565b6001810190506108d8565b5050565b601f82111561093b5761090c816107d1565b610915846107e6565b81016020851015610924578190505b610938610930856107e6565b8301826108d7565b50505b505050565b600082821c905092915050565b600061095e60001984600802610940565b1980831691505092915050565b6000610977838361094d565b9150826002028217905092915050565b61099082610766565b67ffffffffffffffff8111156109a9576109a86105a8565b5b6109b382546107a0565b6109be8282856108fa565b600060209050601f8311600181146109f157600084156109df578287015190505b6109e9858261096b565b865550610a51565b601f1984166109ff866107d1565b60005b82811015610a2757848901518255600182019150602085019450602081019050610a02565b86831015610a445784890151610a40601f89168261094d565b8355505b6001600288020188555050505b505050505050565b7f4e487b7100000000000000000000000000000000000000000000000000000000600052601160045260246000fd5b60008160011c9050919050565b6000808291508390505b6001851115610adf57808604811115610abb57610aba610a59565b5b6001851615610aca5780820291505b8081029050610ad885610a88565b9450610a9f565b94509492505050565b600082610af85760019050610bb4565b81610b065760009050610bb4565b8160018114610b1c5760028114610b2657610b55565b6001915050610bb4565b60ff841115610b3857610b37610a59565b5b8360020a915084821115610b4f57610b4e610a59565b5b50610bb4565b5060208310610133831016604e8410600b8410161715610b8a5782820a905083811115610b8557610b84610a59565b5b610bb4565b610b978484846001610a95565b92509050818404811115610bae57610bad610a59565b5b81810290505b9392505050565b600060ff82169050919050565b6000610bd382610855565b9150610bde83610bbb565b9250610c0b7fffffffffffffffffffffffffffffffffffffffffffffffffffffffffffffffff8484610ae8565b905092915050565b6000610c1e82610855565b9150610c2983610855565b9250828202610c3781610855565b91508282048414831517610c4e57610c4d610a59565b5b5092915050565b600073ffffffffffffffffffffffffffffffffffffffff82169050919050565b6000610c8082610c55565b9050919050565b610c9081610c75565b82525050565b6000602082019050610cab6000830184610c87565b92915050565b6000610cbc82610855565b9150610cc783610855565b9250828201905080821115610cdf57610cde610a59565b5b92915050565b610cee81610855565b82525050565b6000606082019050610d096000830186610c87565b610d166020830185610ce5565b610d236040830184610ce5565b949350505050565b6000602082019050610d406000830184610ce5565b92915050565b6119f980610d556000396000f3fe608060405234801561001057600080fd5b50600436106100b45760003560e01c8063313ce56711610071578063313ce5671461017d57806370a082311461019b57806395d89b41146101cb578063a9059cbb146101e9578063b1a0df7714610219578063dd62ed3e14610237576100b4565b806306fdde03146100b9578063095ea7b3146100d75780630e3f83a91461010757806318160ddd1461011157806322646d5e1461012f57806323b872dd1461014d575b600080fd5b6100c1610267565b6040516100ce919061111b565b60405180910390f35b6100f160048036038101906100ec91906111d6565b6102f9565b6040516100fe9190611231565b60405180910390f35b61010f61031c565b005b6101196105a0565b604051610126919061125b565b60405180910390f35b6101376105aa565b60405161014491906113c6565b60405180910390f35b610167600480360381019061016291906113e8565b61076a565b6040516101749190611231565b60405180910390f35b610185610799565b6040516101929190611457565b60405180910390f35b6101b560048036038101906101b09190611472565b6107a2565b6040516101c2919061125b565b60405180910390f35b6101d36107ea565b6040516101e0919061111b565b60405180910390f35b61020360048036038101906101fe91906111d6565b61087c565b6040516102109190611231565b60405180910390f35b61022161089f565b60405161022e91906113c6565b60405180910390f35b610251600480360381019061024c919061149f565b610a22565b60405161025e919061125b565b60405180910390f35b6060600380546102769061150e565b80601f01602080910402602001604051908101604052809291908181526020018280546102a29061150e565b80156102ef5780601f106102c4576101008083540402835291602001916102ef565b820191906000526020600020905b8154815290600101906020018083116102d257829003601f168201915b5050505050905090565b600080610304610aa9565b9050610311818585610ab1565b600191505092915050565b678ac7230489e8000061032e336107a2565b1161033857600080fd5b61034c336000678ac7230489e80000610ac3565b6000610356610ce8565b905060006005828154811061036e5761036d61153f565b5b90600052602060002090600202016040518060400160405290816000820180546103979061150e565b80601f01602080910402602001604051908101604052809291908181526020018280546103c39061150e565b80156104105780601f106103e557610100808354040283529160200191610410565b820191906000526020600020905b8154815290600101906020018083116103f357829003601f168201915b505050505081526020016001820180546104299061150e565b80601f01602080910402602001604051908101604052809291908181526020018280546104559061150e565b80156104a25780601f10610477576101008083540402835291602001916104a2565b820191906000526020600020905b81548152906001019060200180831161048557829003601f168201915b5050505050815250509050600660003373ffffffffffffffffffffffffffffffffffffffff1673ffffffffffffffffffffffffffffffffffffffff168152602001908152602001600020819080600181540180825580915050600190039060005260206000209060020201600090919091909150600082015181600001908161052b9190611749565b5060208201518160010190816105419190611749565b5050503373ffffffffffffffffffffffffffffffffffffffff167f9f06c99ea3457ea479dfcf40c3fd3aaf8f912d73529f2da19f35e2bc62e9aaed8260000151836020015160405161059492919061181b565b60405180910390a25050565b6000600254905090565b6060600660003373ffffffffffffffffffffffffffffffffffffffff1673ffffffffffffffffffffffffffffffffffffffff168152602001908152602001600020805480602002602001604051908101604052809291908181526020016000905b82821015610761578382906000526020600020906002020160405180604001604052908160008201805461063e9061150e565b80601f016020809104026020016040519081016040528092919081815260200182805461066a9061150e565b80156106b75780601f1061068c576101008083540402835291602001916106b7565b820191906000526020600020905b81548152906001019060200180831161069a57829003601f168201915b505050505081526020016001820180546106d09061150e565b80601f01602080910402602001604051908101604052809291908181526020018280546106fc9061150e565b80156107495780601f1061071e57610100808354040283529160200191610749565b820191906000526020600020905b81548152906001019060200180831161072c57829003601f168201915b5050505050815250508152602001906001019061060b565b50505050905090565b600080610775610aa9565b9050610782858285610d2b565b61078d858585610dc0565b60019150509392505050565b60006012905090565b60008060008373ffffffffffffffffffffffffffffffffffffffff1673ffffffffffffffffffffffffffffffffffffffff168152602001908152602001600020549050919050565b6060600480546107f99061150e565b80601f01602080910402602001604051908101604052809291908181526020018280546108259061150e565b80156108725780601f1061084757610100808354040283529160200191610872565b820191906000526020600020905b81548152906001019060200180831161085557829003601f168201915b5050505050905090565b600080610887610aa9565b9050610894818585610dc0565b600191505092915050565b60606005805480602002602001604051908101604052809291908181526020016000905b82821015610a1957838290600052602060002090600202016040518060400160405290816000820180546108f69061150e565b80601f01602080910402602001604051908101604052809291908181526020018280546109229061150e565b801561096f5780601f106109445761010080835404028352916020019161096f565b820191906000526020600020905b81548152906001019060200180831161095257829003601f168201915b505050505081526020016001820180546109889061150e565b80601f01602080910402602001604051908101604052809291908181526020018280546109b49061150e565b8015610a015780601f106109d657610100808354040283529160200191610a01565b820191906000526020600020905b8154815290600101906020018083116109e457829003601f168201915b505050505081525050815260200190600101906108c3565b50505050905090565b6000600160008473ffffffffffffffffffffffffffffffffffffffff1673ffffffffffffffffffffffffffffffffffffffff16815260200190815260200160002060008373ffffffffffffffffffffffffffffffffffffffff1673ffffffffffffffffffffffffffffffffffffffff16815260200190815260200160002054905092915050565b600033905090565b610abe8383836001610eb4565b505050565b600073ffffffffffffffffffffffffffffffffffffffff168373ffffffffffffffffffffffffffffffffffffffff1603610b15578060026000828254610b099190611881565b92505081905550610be8565b60008060008573ffffffffffffffffffffffffffffffffffffffff1673ffffffffffffffffffffffffffffffffffffffff16815260200190815260200160002054905081811015610ba1578381836040517fe450d38c000000000000000000000000000000000000000000000000000000008152600401610b98939291906118c4565b60405180910390fd5b8181036000808673ffffffffffffffffffffffffffffffffffffffff1673ffffffffffffffffffffffffffffffffffffffff16815260200190815260200160002081905550505b600073ffffffffffffffffffffffffffffffffffffffff168273ffffffffffffffffffffffffffffffffffffffff1603610c315780600260008282540392505081905550610c7e565b806000808473ffffffffffffffffffffffffffffffffffffffff1673ffffffffffffffffffffffffffffffffffffffff168152602001908152602001600020600082825401925050819055505b8173ffffffffffffffffffffffffffffffffffffffff168373ffffffffffffffffffffffffffffffffffffffff167fddf252ad1be2c89b69c2b068fc378daa952ba7f163c4a11628f55a4df523b3ef83604051610cdb919061125b565b60405180910390a3505050565b60006005805490504244604051602001610d0392919061191c565b6040516020818303038152906040528051906020012060001c610d269190611977565b905090565b6000610d378484610a22565b90507fffffffffffffffffffffffffffffffffffffffffffffffffffffffffffffffff811015610dba5781811015610daa578281836040517ffb8f41b2000000000000000000000000000000000000000000000000000000008152600401610da1939291906118c4565b60405180910390fd5b610db984848484036000610eb4565b5b50505050565b600073ffffffffffffffffffffffffffffffffffffffff168373ffffffffffffffffffffffffffffffffffffffff1603610e325760006040517f96c6fd1e000000000000000000000000000000000000000000000000000000008152600401610e2991906119a8565b60405180910390fd5b600073ffffffffffffffffffffffffffffffffffffffff168273ffffffffffffffffffffffffffffffffffffffff1603610ea45760006040517fec442f05000000000000000000000000000000000000000000000000000000008152600401610e9b91906119a8565b60405180910390fd5b610eaf838383610ac3565b505050565b600073ffffffffffffffffffffffffffffffffffffffff168473ffffffffffffffffffffffffffffffffffffffff1603610f265760006040517fe602df05000000000000000000000000000000000000000000000000000000008152600401610f1d91906119a8565b60405180910390fd5b600073ffffffffffffffffffffffffffffffffffffffff168373ffffffffffffffffffffffffffffffffffffffff1603610f985760006040517f94280d62000000000000000000000000000000000000000000000000000000008152600401610f8f91906119a8565b60405180910390fd5b81600160008673ffffffffffffffffffffffffffffffffffffffff1673ffffffffffffffffffffffffffffffffffffffff16815260200190815260200160002060008573ffffffffffffffffffffffffffffffffffffffff1673ffffffffffffffffffffffffffffffffffffffff168152602001908152602001600020819055508015611085578273ffffffffffffffffffffffffffffffffffffffff168473ffffffffffffffffffffffffffffffffffffffff167f8c5be1e5ebec7d5bd14f71427d1e84f3dd0314c0f7b2291e5b200ac8c7c3b9258460405161107c919061125b565b60405180910390a35b50505050565b600081519050919050565b600082825260208201905092915050565b60005b838110156110c55780820151818401526020810190506110aa565b60008484015250505050565b6000601f19601f8301169050919050565b60006110ed8261108b565b6110f78185611096565b93506111078185602086016110a7565b611110816110d1565b840191505092915050565b6000602082019050818103600083015261113581846110e2565b905092915050565b600080fd5b600073ffffffffffffffffffffffffffffffffffffffff82169050919050565b600061116d82611142565b9050919050565b61117d81611162565b811461118857600080fd5b50565b60008135905061119a81611174565b92915050565b6000819050919050565b6111b3816111a0565b81146111be57600080fd5b50565b6000813590506111d0816111aa565b92915050565b600080604083850312156111ed576111ec61113d565b5b60006111fb8582860161118b565b925050602061120c858286016111c1565b9150509250929050565b60008115159050919050565b61122b81611216565b82525050565b60006020820190506112466000830184611222565b92915050565b611255816111a0565b82525050565b6000602082019050611270600083018461124c565b92915050565b600081519050919050565b600082825260208201905092915050565b6000819050602082019050919050565b600082825260208201905092915050565b60006112be8261108b565b6112c881856112a2565b93506112d88185602086016110a7565b6112e1816110d1565b840191505092915050565b6000604083016000830151848203600086015261130982826112b3565b9150506020830151848203602086015261132382826112b3565b9150508091505092915050565b600061133c83836112ec565b905092915050565b6000602082019050919050565b600061135c82611276565b6113668185611281565b93508360208202850161137885611292565b8060005b858110156113b457848403895281516113958582611330565b94506113a083611344565b925060208a0199505060018101905061137c565b50829750879550505050505092915050565b600060208201905081810360008301526113e08184611351565b905092915050565b6000806000606084860312156114015761140061113d565b5b600061140f8682870161118b565b93505060206114208682870161118b565b9250506040611431868287016111c1565b9150509250925092565b600060ff82169050919050565b6114518161143b565b82525050565b600060208201905061146c6000830184611448565b92915050565b6000602082840312156114885761148761113d565b5b60006114968482850161118b565b91505092915050565b600080604083850312156114b6576114b561113d565b5b60006114c48582860161118b565b92505060206114d58582860161118b565b9150509250929050565b7f4e487b7100000000000000000000000000000000000000000000000000000000600052602260045260246000fd5b6000600282049050600182168061152657607f821691505b602082108103611539576115386114df565b5b50919050565b7f4e487b7100000000000000000000000000000000000000000000000000000000600052603260045260246000fd5b7f4e487b7100000000000000000000000000000000000000000000000000000000600052604160045260246000fd5b60008190508160005260206000209050919050565b60006020601f8301049050919050565b600082821b905092915050565b6000600883026115ff7fffffffffffffffffffffffffffffffffffffffffffffffffffffffffffffffff826115c2565b61160986836115c2565b95508019841693508086168417925050509392505050565b6000819050919050565b600061164661164161163c846111a0565b611621565b6111a0565b9050919050565b6000819050919050565b6116608361162b565b61167461166c8261164d565b8484546115cf565b825550505050565b600090565b61168961167c565b611694818484611657565b505050565b5b818110156116b8576116ad600082611681565b60018101905061169a565b5050565b601f8211156116fd576116ce8161159d565b6116d7846115b2565b810160208510156116e6578190505b6116fa6116f2856115b2565b830182611699565b50505b505050565b600082821c905092915050565b600061172060001984600802611702565b1980831691505092915050565b6000611739838361170f565b9150826002028217905092915050565b6117528261108b565b67ffffffffffffffff81111561176b5761176a61156e565b5b611775825461150e565b6117808282856116bc565b600060209050601f8311600181146117b357600084156117a1578287015190505b6117ab858261172d565b865550611813565b601f1984166117c18661159d565b60005b828110156117e9578489015182556001820191506020850194506020810190506117c4565b868310156118065784890151611802601f89168261170f565b8355505b6001600288020188555050505b505050505050565b6000604082019050818103600083015261183581856110e2565b9050818103602083015261184981846110e2565b90509392505050565b7f4e487b7100000000000000000000000000000000000000000000000000000000600052601160045260246000fd5b600061188c826111a0565b9150611897836111a0565b92508282019050808211156118af576118ae611852565b5b92915050565b6118be81611162565b82525050565b60006060820190506118d960008301866118b5565b6118e6602083018561124c565b6118f3604083018461124c565b949350505050565b6000819050919050565b611916611911826111a0565b6118fb565b82525050565b60006119288285611905565b6020820191506119388284611905565b6020820191508190509392505050565b7f4e487b7100000000000000000000000000000000000000000000000000000000600052601260045260246000fd5b6000611982826111a0565b915061198d836111a0565b92508261199d5761199c611948565b5b828206905092915050565b60006020820190506119bd60008301846118b5565b9291505056fea2646970667358221220db5256253e3e5f8593ac2491ebca6ae7719740ea6dd7352040b7e042d293816164736f6c634300081e003368747470733a2f2f646967696d6f6e2e6e65742f63696d616765732f646967696d6f6e2f666c616472616d6f6e2e6a706768747470733a2f2f646967696d6f6e2e6e65742f63696d616765732f646967696d6f6e2f762d6d6f6e2e6a706768747470733a2f2f646967696d6f6e2e6e65742f63696d616765732f646967696d6f6e2f78697175656d6f6e2e6a7067",
  "linkReferences": {},
  "deployedLinkReferences": {}
}