{
  "_format": "hh-sol-artifact-1",
  "contractName": "MetaBingNFT",
  "sourceName": "contracts/MetaBingNFT.sol",
  "abi": [
    {
      "inputs": [
        {
          "internalType": "address",
          "name": "_bingNFTAddress",
          "type": "address"
        }
      ],
      "stateMutability": "nonpayable",
      "type": "constructor"
    },
    {
      "anonymous": false,
      "inputs": [
        {
          "indexed": true,
          "internalType": "address",
          "name": "user",
          "type": "address"
        },
        {
          "indexed": false,
          "internalType": "uint256",
          "name": "tokenId",
          "type": "uint256"
        },
        {
          "indexed": false,
          "internalType": "uint256",
          "name": "amount",
          "type": "uint256"
        },
        {
          "indexed": false,
          "internalType": "string",
          "name": "metadata",
          "type": "string"
        }
      ],
      "name": "NFTMinted",
      "type": "event"
    },
    {
      "inputs": [
        {
          "internalType": "uint256",
          "name": "nftid",
          "type": "uint256"
        },
        {
          "internalType": "address",
          "name": "sender",
          "type": "address"
        }
      ],
      "name": "BuyNft",
      "outputs": [],
      "stateMutability": "payable",
      "type": "function"
    },
    {
      "inputs": [
        {
          "internalType": "uint256",
          "name": "nftid",
          "type": "uint256"
        },
        {
          "internalType": "uint256",
          "name": "token",
          "type": "uint256"
        },
        {
          "internalType": "uint256",
          "name": "price",
          "type": "uint256"
        },
        {
          "internalType": "address",
          "name": "sender",
          "type": "address"
        }
      ],
      "name": "SellNFT",
      "outputs": [],
      "stateMutability": "nonpayable",
      "type": "function"
    },
    {
      "inputs": [],
      "name": "bingNFT",
      "outputs": [
        {
          "internalType": "contract BingNFT",
          "name": "",
          "type": "address"
        }
      ],
      "stateMutability": "view",
      "type": "function"
    },
    {
      "inputs": [
        {
          "internalType": "uint256",
          "name": "nftid",
          "type": "uint256"
        },
        {
          "internalType": "address",
          "name": "sender",
          "type": "address"
        }
      ],
      "name": "cancelSale",
      "outputs": [],
      "stateMutability": "nonpayable",
      "type": "function"
    },
    {
      "inputs": [
        {
          "internalType": "address",
          "name": "user",
          "type": "address"
        }
      ],
      "name": "getAllTokenBalances",
      "outputs": [
        {
          "internalType": "uint256[]",
          "name": "tokenIds",
          "type": "uint256[]"
        },
        {
          "internalType": "uint256[]",
          "name": "balances",
          "type": "uint256[]"
        }
      ],
      "stateMutability": "view",
      "type": "function"
    },
    {
      "inputs": [],
      "name": "getContractInfo",
      "outputs": [
        {
          "internalType": "address",
          "name": "nftContract",
          "type": "address"
        },
        {
          "internalType": "address",
          "name": "contractOwner",
          "type": "address"
        }
      ],
      "stateMutability": "view",
      "type": "function"
    },
    {
      "inputs": [
        {
          "internalType": "address",
          "name": "user",
          "type": "address"
        },
        {
          "internalType": "uint256",
          "name": "tknId",
          "type": "uint256"
        }
      ],
      "name": "getCurrentBalance",
      "outputs": [
        {
          "internalType": "uint256",
          "name": "",
          "type": "uint256"
        }
      ],
      "stateMutability": "view",
      "type": "function"
    },
    {
      "inputs": [
        {
          "internalType": "address",
          "name": "user",
          "type": "address"
        }
      ],
      "name": "getMintedTokens",
      "outputs": [
        {
          "internalType": "uint256[]",
          "name": "tokenIds",
          "type": "uint256[]"
        },
        {
          "internalType": "uint256[]",
          "name": "amounts",
          "type": "uint256[]"
        }
      ],
      "stateMutability": "view",
      "type": "function"
    },
    {
      "inputs": [
        {
          "internalType": "address",
          "name": "user",
          "type": "address"
        },
        {
          "internalType": "uint256",
          "name": "index",
          "type": "uint256"
        }
      ],
      "name": "getOwnerTokenAtIndex",
      "outputs": [
        {
          "components": [
            {
              "internalType": "uint256",
              "name": "tokenid",
              "type": "uint256"
            },
            {
              "internalType": "uint256",
              "name": "tokens",
              "type": "uint256"
            }
          ],
          "internalType": "struct BingNFT.Ownertokens",
          "name": "",
          "type": "tuple"
        }
      ],
      "stateMutability": "view",
      "type": "function"
    },
    {
      "inputs": [
        {
          "internalType": "address",
          "name": "user",
          "type": "address"
        }
      ],
      "name": "getOwnerTokenCount",
      "outputs": [
        {
          "internalType": "uint256",
          "name": "",
          "type": "uint256"
        }
      ],
      "stateMutability": "view",
      "type": "function"
    },
    {
      "inputs": [
        {
          "internalType": "uint256",
          "name": "item",
          "type": "uint256"
        }
      ],
      "name": "getall",
      "outputs": [
        {
          "components": [
            {
              "internalType": "address",
              "name": "seller",
              "type": "address"
            },
            {
              "internalType": "uint256",
              "name": "token",
              "type": "uint256"
            },
            {
              "internalType": "uint256",
              "name": "price",
              "type": "uint256"
            }
          ],
          "internalType": "struct BingNFT.Sellstake",
          "name": "",
          "type": "tuple"
        }
      ],
      "stateMutability": "view",
      "type": "function"
    },
    {
      "inputs": [],
      "name": "owner",
      "outputs": [
        {
          "internalType": "address",
          "name": "",
          "type": "address"
        }
      ],
      "stateMutability": "view",
      "type": "function"
    },
    {
      "inputs": [
        {
          "internalType": "address",
          "name": "user",
          "type": "address"
        }
      ],
      "name": "ownerToken",
      "outputs": [
        {
          "components": [
            {
              "internalType": "uint256",
              "name": "tokenid",
              "type": "uint256"
            },
            {
              "internalType": "uint256",
              "name": "tokens",
              "type": "uint256"
            }
          ],
          "internalType": "struct BingNFT.Ownertokens[]",
          "name": "",
          "type": "tuple[]"
        }
      ],
      "stateMutability": "view",
      "type": "function"
    },
    {
      "inputs": [
        {
          "internalType": "string",
          "name": "newURI",
          "type": "string"
        },
        {
          "internalType": "address",
          "name": "sender",
          "type": "address"
        }
      ],
      "name": "setTokenURI",
      "outputs": [],
      "stateMutability": "nonpayable",
      "type": "function"
    },
    {
      "inputs": [
        {
          "internalType": "string",
          "name": "newuri",
          "type": "string"
        },
        {
          "internalType": "address",
          "name": "sender",
          "type": "address"
        }
      ],
      "name": "settokenURI",
      "outputs": [],
      "stateMutability": "nonpayable",
      "type": "function"
    },
    {
      "inputs": [
        {
          "internalType": "address",
          "name": "newOwner",
          "type": "address"
        }
      ],
      "name": "transferOwnership",
      "outputs": [],
      "stateMutability": "nonpayable",
      "type": "function"
    },
    {
      "inputs": [
        {
          "internalType": "uint256",
          "name": "tokenid",
          "type": "uint256"
        }
      ],
      "name": "uri",
      "outputs": [
        {
          "internalType": "string",
          "name": "",
          "type": "string"
        }
      ],
      "stateMutability": "view",
      "type": "function"
    }
  ],
  "bytecode": "0x608060405234801561001057600080fd5b50604051611e7b380380611e7b8339818101604052810190610032919061011c565b806000806101000a81548173ffffffffffffffffffffffffffffffffffffffff021916908373ffffffffffffffffffffffffffffffffffffffff16021790555033600160006101000a81548173ffffffffffffffffffffffffffffffffffffffff021916908373ffffffffffffffffffffffffffffffffffffffff16021790555050610149565b600080fd5b600073ffffffffffffffffffffffffffffffffffffffff82169050919050565b60006100e9826100be565b9050919050565b6100f9816100de565b811461010457600080fd5b50565b600081519050610116816100f0565b92915050565b600060208284031215610132576101316100b9565b5b600061014084828501610107565b91505092915050565b611d23806101586000396000f3fe6080604052600436106100fe5760003560e01c8063813d2ad811610095578063cc0a48d411610064578063cc0a48d414610370578063cdd65c0b14610399578063d50bcc71146103b5578063f2fde38b146103f2578063fe1c3aef1461041b576100fe565b8063813d2ad8146102b6578063823d7af5146102df5780638da5cb5b146103085780639145d13314610333576100fe565b8063434a49a1116100d1578063434a49a1146101d1578063681bec6c1461020f57806375388a0f1461024d5780637cc1f8671461028a576100fe565b80630294c785146101035780630e89341c1461012e5780631c3fcc601461016b578063346332e1146101a8575b600080fd5b34801561010f57600080fd5b50610118610458565b6040516101259190610f6a565b60405180910390f35b34801561013a57600080fd5b5061015560048036038101906101509190610fcf565b61047c565b604051610162919061108c565b60405180910390f35b34801561017757600080fd5b50610192600480360381019061018d9190610fcf565b610524565b60405161019f9190611120565b60405180910390f35b3480156101b457600080fd5b506101cf60048036038101906101ca9190611167565b6105cd565b005b3480156101dd57600080fd5b506101f860048036038101906101f391906111ce565b610664565b6040516102069291906112aa565b60405180910390f35b34801561021b57600080fd5b50610236600480360381019061023191906111ce565b61070f565b6040516102449291906112aa565b60405180910390f35b34801561025957600080fd5b50610274600480360381019061026f91906112e1565b6107ba565b6040516102819190611330565b60405180910390f35b34801561029657600080fd5b5061029f610861565b6040516102ad92919061135a565b60405180910390f35b3480156102c257600080fd5b506102dd60048036038101906102d89190611383565b6108b0565b005b3480156102eb57600080fd5b50610306600480360381019061030191906114f8565b610941565b005b34801561031457600080fd5b5061031d610a74565b60405161032a9190611554565b60405180910390f35b34801561033f57600080fd5b5061035a600480360381019061035591906112e1565b610a9a565b604051610367919061159e565b60405180910390f35b34801561037c57600080fd5b50610397600480360381019061039291906114f8565b610b45565b005b6103b360048036038101906103ae9190611383565b610be8565b005b3480156103c157600080fd5b506103dc60048036038101906103d791906111ce565b610c7a565b6040516103e99190611330565b60405180910390f35b3480156103fe57600080fd5b50610419600480360381019061041491906111ce565b610d1e565b005b34801561042757600080fd5b50610442600480360381019061043d91906111ce565b610df2565b60405161044f9190611697565b60405180910390f35b60008054906101000a900473ffffffffffffffffffffffffffffffffffffffff1681565b606060008054906101000a900473ffffffffffffffffffffffffffffffffffffffff1673ffffffffffffffffffffffffffffffffffffffff16630e89341c836040518263ffffffff1660e01b81526004016104d79190611330565b600060405180830381865afa1580156104f4573d6000803e3d6000fd5b505050506040513d6000823e3d601f19601f8201168201806040525081019061051d9190611729565b9050919050565b61052c610e9a565b60008054906101000a900473ffffffffffffffffffffffffffffffffffffffff1673ffffffffffffffffffffffffffffffffffffffff16631c3fcc60836040518263ffffffff1660e01b81526004016105859190611330565b606060405180830381865afa1580156105a2573d6000803e3d6000fd5b505050506040513d601f19601f820116820180604052508101906105c69190611805565b9050919050565b60008054906101000a900473ffffffffffffffffffffffffffffffffffffffff1673ffffffffffffffffffffffffffffffffffffffff1663d80a08da828686866040518563ffffffff1660e01b815260040161062c9493929190611832565b600060405180830381600087803b15801561064657600080fd5b505af115801561065a573d6000803e3d6000fd5b5050505050505050565b60608060008054906101000a900473ffffffffffffffffffffffffffffffffffffffff1673ffffffffffffffffffffffffffffffffffffffff1663434a49a1846040518263ffffffff1660e01b81526004016106c09190611554565b600060405180830381865afa1580156106dd573d6000803e3d6000fd5b505050506040513d6000823e3d601f19601f82011682018060405250810190610706919061193f565b91509150915091565b60608060008054906101000a900473ffffffffffffffffffffffffffffffffffffffff1673ffffffffffffffffffffffffffffffffffffffff1663681bec6c846040518263ffffffff1660e01b815260040161076b9190611554565b600060405180830381865afa158015610788573d6000803e3d6000fd5b505050506040513d6000823e3d601f19601f820116820180604052508101906107b1919061193f565b91509150915091565b60008060009054906101000a900473ffffffffffffffffffffffffffffffffffffffff1673ffffffffffffffffffffffffffffffffffffffff166375388a0f84846040518363ffffffff1660e01b81526004016108189291906119b7565b602060405180830381865afa158015610835573d6000803e3d6000fd5b505050506040513d601f19601f8201168201806040525081019061085991906119e0565b905092915050565b60008060008054906101000a900473ffffffffffffffffffffffffffffffffffffffff16600160009054906101000a900473ffffffffffffffffffffffffffffffffffffffff16915091509091565b60008054906101000a900473ffffffffffffffffffffffffffffffffffffffff1673ffffffffffffffffffffffffffffffffffffffff1663813d2ad883836040518363ffffffff1660e01b815260040161090b929190611a0d565b600060405180830381600087803b15801561092557600080fd5b505af1158015610939573d6000803e3d6000fd5b505050505050565b600160009054906101000a900473ffffffffffffffffffffffffffffffffffffffff1673ffffffffffffffffffffffffffffffffffffffff163373ffffffffffffffffffffffffffffffffffffffff16146109d1576040517f08c379a00000000000000000000000000000000000000000000000000000000081526004016109c890611a82565b60405180910390fd5b60008054906101000a900473ffffffffffffffffffffffffffffffffffffffff1673ffffffffffffffffffffffffffffffffffffffff1663cc0a48d483836040518363ffffffff1660e01b8152600401610a2c929190611aa2565b6020604051808303816000875af1158015610a4b573d6000803e3d6000fd5b505050506040513d601f19601f82011682018060405250810190610a6f91906119e0565b505050565b600160009054906101000a900473ffffffffffffffffffffffffffffffffffffffff1681565b610aa2610ed1565b60008054906101000a900473ffffffffffffffffffffffffffffffffffffffff1673ffffffffffffffffffffffffffffffffffffffff16639145d13384846040518363ffffffff1660e01b8152600401610afd9291906119b7565b6040805180830381865afa158015610b19573d6000803e3d6000fd5b505050506040513d601f19601f82011682018060405250810190610b3d9190611b22565b905092915050565b60008054906101000a900473ffffffffffffffffffffffffffffffffffffffff1673ffffffffffffffffffffffffffffffffffffffff1663cc0a48d483836040518363ffffffff1660e01b8152600401610ba0929190611aa2565b6020604051808303816000875af1158015610bbf573d6000803e3d6000fd5b505050506040513d601f19601f82011682018060405250810190610be391906119e0565b505050565b60008054906101000a900473ffffffffffffffffffffffffffffffffffffffff1673ffffffffffffffffffffffffffffffffffffffff1663079fc0f03484846040518463ffffffff1660e01b8152600401610c44929190611a0d565b6000604051808303818588803b158015610c5d57600080fd5b505af1158015610c71573d6000803e3d6000fd5b50505050505050565b60008060009054906101000a900473ffffffffffffffffffffffffffffffffffffffff1673ffffffffffffffffffffffffffffffffffffffff1663d50bcc71836040518263ffffffff1660e01b8152600401610cd69190611554565b602060405180830381865afa158015610cf3573d6000803e3d6000fd5b505050506040513d601f19601f82011682018060405250810190610d1791906119e0565b9050919050565b600160009054906101000a900473ffffffffffffffffffffffffffffffffffffffff1673ffffffffffffffffffffffffffffffffffffffff163373ffffffffffffffffffffffffffffffffffffffff1614610dae576040517f08c379a0000000000000000000000000000000000000000000000000000000008152600401610da590611bc1565b60405180910390fd5b80600160006101000a81548173ffffffffffffffffffffffffffffffffffffffff021916908373ffffffffffffffffffffffffffffffffffffffff16021790555050565b606060008054906101000a900473ffffffffffffffffffffffffffffffffffffffff1673ffffffffffffffffffffffffffffffffffffffff1663fe1c3aef836040518263ffffffff1660e01b8152600401610e4d9190611554565b600060405180830381865afa158015610e6a573d6000803e3d6000fd5b505050506040513d6000823e3d601f19601f82011682018060405250810190610e939190611ca4565b9050919050565b6040518060600160405280600073ffffffffffffffffffffffffffffffffffffffff16815260200160008152602001600081525090565b604051806040016040528060008152602001600081525090565b600073ffffffffffffffffffffffffffffffffffffffff82169050919050565b6000819050919050565b6000610f30610f2b610f2684610eeb565b610f0b565b610eeb565b9050919050565b6000610f4282610f15565b9050919050565b6000610f5482610f37565b9050919050565b610f6481610f49565b82525050565b6000602082019050610f7f6000830184610f5b565b92915050565b6000604051905090565b600080fd5b600080fd5b6000819050919050565b610fac81610f99565b8114610fb757600080fd5b50565b600081359050610fc981610fa3565b92915050565b600060208284031215610fe557610fe4610f8f565b5b6000610ff384828501610fba565b91505092915050565b600081519050919050565b600082825260208201905092915050565b60005b8381101561103657808201518184015260208101905061101b565b60008484015250505050565b6000601f19601f8301169050919050565b600061105e82610ffc565b6110688185611007565b9350611078818560208601611018565b61108181611042565b840191505092915050565b600060208201905081810360008301526110a68184611053565b905092915050565b60006110b982610eeb565b9050919050565b6110c9816110ae565b82525050565b6110d881610f99565b82525050565b6060820160008201516110f460008501826110c0565b50602082015161110760208501826110cf565b50604082015161111a60408501826110cf565b50505050565b600060608201905061113560008301846110de565b92915050565b611144816110ae565b811461114f57600080fd5b50565b6000813590506111618161113b565b92915050565b6000806000806080858703121561118157611180610f8f565b5b600061118f87828801610fba565b94505060206111a087828801610fba565b93505060406111b187828801610fba565b92505060606111c287828801611152565b91505092959194509250565b6000602082840312156111e4576111e3610f8f565b5b60006111f284828501611152565b91505092915050565b600081519050919050565b600082825260208201905092915050565b6000819050602082019050919050565b600061123383836110cf565b60208301905092915050565b6000602082019050919050565b6000611257826111fb565b6112618185611206565b935061126c83611217565b8060005b8381101561129d5781516112848882611227565b975061128f8361123f565b925050600181019050611270565b5085935050505092915050565b600060408201905081810360008301526112c4818561124c565b905081810360208301526112d8818461124c565b90509392505050565b600080604083850312156112f8576112f7610f8f565b5b600061130685828601611152565b925050602061131785828601610fba565b9150509250929050565b61132a81610f99565b82525050565b60006020820190506113456000830184611321565b92915050565b611354816110ae565b82525050565b600060408201905061136f600083018561134b565b61137c602083018461134b565b9392505050565b6000806040838503121561139a57611399610f8f565b5b60006113a885828601610fba565b92505060206113b985828601611152565b9150509250929050565b600080fd5b600080fd5b7f4e487b7100000000000000000000000000000000000000000000000000000000600052604160045260246000fd5b61140582611042565b810181811067ffffffffffffffff82111715611424576114236113cd565b5b80604052505050565b6000611437610f85565b905061144382826113fc565b919050565b600067ffffffffffffffff821115611463576114626113cd565b5b61146c82611042565b9050602081019050919050565b82818337600083830152505050565b600061149b61149684611448565b61142d565b9050828152602081018484840111156114b7576114b66113c8565b5b6114c2848285611479565b509392505050565b600082601f8301126114df576114de6113c3565b5b81356114ef848260208601611488565b91505092915050565b6000806040838503121561150f5761150e610f8f565b5b600083013567ffffffffffffffff81111561152d5761152c610f94565b5b611539858286016114ca565b925050602061154a85828601611152565b9150509250929050565b6000602082019050611569600083018461134b565b92915050565b60408201600082015161158560008501826110cf565b50602082015161159860208501826110cf565b50505050565b60006040820190506115b3600083018461156f565b92915050565b600081519050919050565b600082825260208201905092915050565b6000819050602082019050919050565b6040820160008201516115fb60008501826110cf565b50602082015161160e60208501826110cf565b50505050565b600061162083836115e5565b60408301905092915050565b6000602082019050919050565b6000611644826115b9565b61164e81856115c4565b9350611659836115d5565b8060005b8381101561168a5781516116718882611614565b975061167c8361162c565b92505060018101905061165d565b5085935050505092915050565b600060208201905081810360008301526116b18184611639565b905092915050565b60006116cc6116c784611448565b61142d565b9050828152602081018484840111156116e8576116e76113c8565b5b6116f3848285611018565b509392505050565b600082601f8301126117105761170f6113c3565b5b81516117208482602086016116b9565b91505092915050565b60006020828403121561173f5761173e610f8f565b5b600082015167ffffffffffffffff81111561175d5761175c610f94565b5b611769848285016116fb565b91505092915050565b600080fd5b6000815190506117868161113b565b92915050565b60008151905061179b81610fa3565b92915050565b6000606082840312156117b7576117b6611772565b5b6117c1606061142d565b905060006117d184828501611777565b60008301525060206117e58482850161178c565b60208301525060406117f98482850161178c565b60408301525092915050565b60006060828403121561181b5761181a610f8f565b5b6000611829848285016117a1565b91505092915050565b6000608082019050611847600083018761134b565b6118546020830186611321565b6118616040830185611321565b61186e6060830184611321565b95945050505050565b600067ffffffffffffffff821115611892576118916113cd565b5b602082029050602081019050919050565b600080fd5b60006118bb6118b684611877565b61142d565b905080838252602082019050602084028301858111156118de576118dd6118a3565b5b835b8181101561190757806118f3888261178c565b8452602084019350506020810190506118e0565b5050509392505050565b600082601f830112611926576119256113c3565b5b81516119368482602086016118a8565b91505092915050565b6000806040838503121561195657611955610f8f565b5b600083015167ffffffffffffffff81111561197457611973610f94565b5b61198085828601611911565b925050602083015167ffffffffffffffff8111156119a1576119a0610f94565b5b6119ad85828601611911565b9150509250929050565b60006040820190506119cc600083018561134b565b6119d96020830184611321565b9392505050565b6000602082840312156119f6576119f5610f8f565b5b6000611a048482850161178c565b91505092915050565b6000604082019050611a226000830185611321565b611a2f602083018461134b565b9392505050565b7f4f6e6c79206f776e65722063616e207365742055524900000000000000000000600082015250565b6000611a6c601683611007565b9150611a7782611a36565b602082019050919050565b60006020820190508181036000830152611a9b81611a5f565b9050919050565b60006040820190508181036000830152611abc8185611053565b9050611acb602083018461134b565b9392505050565b600060408284031215611ae857611ae7611772565b5b611af2604061142d565b90506000611b028482850161178c565b6000830152506020611b168482850161178c565b60208301525092915050565b600060408284031215611b3857611b37610f8f565b5b6000611b4684828501611ad2565b91505092915050565b7f4f6e6c79206f776e65722063616e207472616e73666572206f776e657273686960008201527f7000000000000000000000000000000000000000000000000000000000000000602082015250565b6000611bab602183611007565b9150611bb682611b4f565b604082019050919050565b60006020820190508181036000830152611bda81611b9e565b9050919050565b600067ffffffffffffffff821115611bfc57611bfb6113cd565b5b602082029050602081019050919050565b6000611c20611c1b84611be1565b61142d565b90508083825260208201905060408402830185811115611c4357611c426118a3565b5b835b81811015611c6c5780611c588882611ad2565b845260208401935050604081019050611c45565b5050509392505050565b600082601f830112611c8b57611c8a6113c3565b5b8151611c9b848260208601611c0d565b91505092915050565b600060208284031215611cba57611cb9610f8f565b5b600082015167ffffffffffffffff811115611cd857611cd7610f94565b5b611ce484828501611c76565b9150509291505056fea2646970667358221220fcf400877d3cf4a91b3729d92a17dec53faf3d37684076f0734128883a1dd37c64736f6c634300081e0033",
  "linkReferences": {},
  "deployedLinkReferences": {}
}